{
  "contractName": "CappedPureMoneyMock",
  "abi": [
    {
      "constant": true,
      "inputs": [],
      "name": "name",
      "outputs": [
        {
          "name": "",
          "type": "string"
        }
      ],
      "payable": false,
      "stateMutability": "view",
      "type": "function"
    },
    {
      "constant": false,
      "inputs": [
        {
          "name": "spender",
          "type": "address"
        },
        {
          "name": "value",
          "type": "uint256"
        }
      ],
      "name": "approve",
      "outputs": [
        {
          "name": "",
          "type": "bool"
        }
      ],
      "payable": false,
      "stateMutability": "nonpayable",
      "type": "function"
    },
    {
      "constant": true,
      "inputs": [],
      "name": "totalSupply",
      "outputs": [
        {
          "name": "",
          "type": "uint256"
        }
      ],
      "payable": false,
      "stateMutability": "view",
      "type": "function"
    },
    {
      "constant": false,
      "inputs": [
        {
          "name": "from",
          "type": "address"
        },
        {
          "name": "to",
          "type": "address"
        },
        {
          "name": "tokens",
          "type": "uint256"
        }
      ],
      "name": "transferFrom",
      "outputs": [
        {
          "name": "success",
          "type": "bool"
        }
      ],
      "payable": false,
      "stateMutability": "nonpayable",
      "type": "function"
    },
    {
      "constant": true,
      "inputs": [],
      "name": "DECIMALS",
      "outputs": [
        {
          "name": "",
          "type": "uint256"
        }
      ],
      "payable": false,
      "stateMutability": "view",
      "type": "function"
    },
    {
      "constant": true,
      "inputs": [],
      "name": "decimals",
      "outputs": [
        {
          "name": "",
          "type": "uint256"
        }
      ],
      "payable": false,
      "stateMutability": "view",
      "type": "function"
    },
    {
      "constant": true,
      "inputs": [],
      "name": "cap",
      "outputs": [
        {
          "name": "",
          "type": "uint256"
        }
      ],
      "payable": false,
      "stateMutability": "view",
      "type": "function"
    },
    {
      "constant": false,
      "inputs": [
        {
          "name": "spender",
          "type": "address"
        },
        {
          "name": "addedValue",
          "type": "uint256"
        }
      ],
      "name": "increaseAllowance",
      "outputs": [
        {
          "name": "success",
          "type": "bool"
        }
      ],
      "payable": false,
      "stateMutability": "nonpayable",
      "type": "function"
    },
    {
      "constant": true,
      "inputs": [
        {
          "name": "account",
          "type": "address"
        }
      ],
      "name": "isCapper",
      "outputs": [
        {
          "name": "",
          "type": "bool"
        }
      ],
      "payable": false,
      "stateMutability": "view",
      "type": "function"
    },
    {
      "constant": false,
      "inputs": [],
      "name": "unpause",
      "outputs": [],
      "payable": false,
      "stateMutability": "nonpayable",
      "type": "function"
    },
    {
      "constant": true,
      "inputs": [
        {
          "name": "account",
          "type": "address"
        }
      ],
      "name": "isPauser",
      "outputs": [
        {
          "name": "",
          "type": "bool"
        }
      ],
      "payable": false,
      "stateMutability": "view",
      "type": "function"
    },
    {
      "constant": false,
      "inputs": [
        {
          "name": "newCap",
          "type": "uint256"
        }
      ],
      "name": "setCap",
      "outputs": [],
      "payable": false,
      "stateMutability": "nonpayable",
      "type": "function"
    },
    {
      "constant": true,
      "inputs": [],
      "name": "paused",
      "outputs": [
        {
          "name": "",
          "type": "bool"
        }
      ],
      "payable": false,
      "stateMutability": "view",
      "type": "function"
    },
    {
      "constant": false,
      "inputs": [],
      "name": "renounceCapper",
      "outputs": [],
      "payable": false,
      "stateMutability": "nonpayable",
      "type": "function"
    },
    {
      "constant": true,
      "inputs": [],
      "name": "WAD",
      "outputs": [
        {
          "name": "",
          "type": "uint256"
        }
      ],
      "payable": false,
      "stateMutability": "view",
      "type": "function"
    },
    {
      "constant": true,
      "inputs": [
        {
          "name": "someAddr",
          "type": "address"
        }
      ],
      "name": "isDepot",
      "outputs": [
        {
          "name": "",
          "type": "bool"
        }
      ],
      "payable": false,
      "stateMutability": "view",
      "type": "function"
    },
    {
      "constant": false,
      "inputs": [],
      "name": "renouncePauser",
      "outputs": [],
      "payable": false,
      "stateMutability": "nonpayable",
      "type": "function"
    },
    {
      "constant": true,
      "inputs": [
        {
          "name": "owner",
          "type": "address"
        }
      ],
      "name": "balanceOf",
      "outputs": [
        {
          "name": "",
          "type": "uint256"
        }
      ],
      "payable": false,
      "stateMutability": "view",
      "type": "function"
    },
    {
      "constant": false,
      "inputs": [],
      "name": "renounceOwnership",
      "outputs": [],
      "payable": false,
      "stateMutability": "nonpayable",
      "type": "function"
    },
    {
      "constant": false,
      "inputs": [
        {
          "name": "_contract",
          "type": "address"
        }
      ],
      "name": "deregisterVendor",
      "outputs": [],
      "payable": false,
      "stateMutability": "nonpayable",
      "type": "function"
    },
    {
      "constant": false,
      "inputs": [
        {
          "name": "account",
          "type": "address"
        }
      ],
      "name": "addPauser",
      "outputs": [],
      "payable": false,
      "stateMutability": "nonpayable",
      "type": "function"
    },
    {
      "constant": false,
      "inputs": [],
      "name": "pause",
      "outputs": [],
      "payable": false,
      "stateMutability": "nonpayable",
      "type": "function"
    },
    {
      "constant": true,
      "inputs": [],
      "name": "owner",
      "outputs": [
        {
          "name": "",
          "type": "address"
        }
      ],
      "payable": false,
      "stateMutability": "view",
      "type": "function"
    },
    {
      "constant": false,
      "inputs": [
        {
          "name": "account",
          "type": "address"
        }
      ],
      "name": "addCapper",
      "outputs": [],
      "payable": false,
      "stateMutability": "nonpayable",
      "type": "function"
    },
    {
      "constant": true,
      "inputs": [],
      "name": "isOwner",
      "outputs": [
        {
          "name": "",
          "type": "bool"
        }
      ],
      "payable": false,
      "stateMutability": "view",
      "type": "function"
    },
    {
      "constant": true,
      "inputs": [],
      "name": "DENOMINATOR",
      "outputs": [
        {
          "name": "",
          "type": "uint256"
        }
      ],
      "payable": false,
      "stateMutability": "view",
      "type": "function"
    },
    {
      "constant": true,
      "inputs": [],
      "name": "symbol",
      "outputs": [
        {
          "name": "",
          "type": "string"
        }
      ],
      "payable": false,
      "stateMutability": "view",
      "type": "function"
    },
    {
      "constant": false,
      "inputs": [
        {
          "name": "account",
          "type": "address"
        }
      ],
      "name": "addMinter",
      "outputs": [],
      "payable": false,
      "stateMutability": "nonpayable",
      "type": "function"
    },
    {
      "constant": false,
      "inputs": [],
      "name": "renounceMinter",
      "outputs": [],
      "payable": false,
      "stateMutability": "nonpayable",
      "type": "function"
    },
    {
      "constant": false,
      "inputs": [
        {
          "name": "depot",
          "type": "address"
        }
      ],
      "name": "removeDepot",
      "outputs": [],
      "payable": false,
      "stateMutability": "nonpayable",
      "type": "function"
    },
    {
      "constant": false,
      "inputs": [
        {
          "name": "spender",
          "type": "address"
        },
        {
          "name": "subtractedValue",
          "type": "uint256"
        }
      ],
      "name": "decreaseAllowance",
      "outputs": [
        {
          "name": "success",
          "type": "bool"
        }
      ],
      "payable": false,
      "stateMutability": "nonpayable",
      "type": "function"
    },
    {
      "constant": false,
      "inputs": [
        {
          "name": "to",
          "type": "address"
        },
        {
          "name": "tokens",
          "type": "uint256"
        }
      ],
      "name": "transfer",
      "outputs": [
        {
          "name": "success",
          "type": "bool"
        }
      ],
      "payable": false,
      "stateMutability": "nonpayable",
      "type": "function"
    },
    {
      "constant": true,
      "inputs": [
        {
          "name": "account",
          "type": "address"
        }
      ],
      "name": "isMinter",
      "outputs": [
        {
          "name": "",
          "type": "bool"
        }
      ],
      "payable": false,
      "stateMutability": "view",
      "type": "function"
    },
    {
      "constant": false,
      "inputs": [
        {
          "name": "depot",
          "type": "address"
        }
      ],
      "name": "addDepot",
      "outputs": [],
      "payable": false,
      "stateMutability": "nonpayable",
      "type": "function"
    },
    {
      "constant": false,
      "inputs": [
        {
          "name": "_contract",
          "type": "address"
        },
        {
          "name": "amountToApprove",
          "type": "uint256"
        }
      ],
      "name": "registerVendor",
      "outputs": [],
      "payable": false,
      "stateMutability": "nonpayable",
      "type": "function"
    },
    {
      "constant": true,
      "inputs": [
        {
          "name": "_contract",
          "type": "address"
        }
      ],
      "name": "isRegistered",
      "outputs": [
        {
          "name": "",
          "type": "bool"
        }
      ],
      "payable": false,
      "stateMutability": "view",
      "type": "function"
    },
    {
      "constant": true,
      "inputs": [
        {
          "name": "owner",
          "type": "address"
        },
        {
          "name": "spender",
          "type": "address"
        }
      ],
      "name": "allowance",
      "outputs": [
        {
          "name": "",
          "type": "uint256"
        }
      ],
      "payable": false,
      "stateMutability": "view",
      "type": "function"
    },
    {
      "constant": false,
      "inputs": [
        {
          "name": "newOwner",
          "type": "address"
        }
      ],
      "name": "transferOwnership",
      "outputs": [],
      "payable": false,
      "stateMutability": "nonpayable",
      "type": "function"
    },
    {
      "inputs": [
        {
          "name": "initialAccount",
          "type": "address"
        },
        {
          "name": "initialCap",
          "type": "uint256"
        }
      ],
      "payable": false,
      "stateMutability": "nonpayable",
      "type": "constructor"
    },
    {
      "anonymous": false,
      "inputs": [
        {
          "indexed": false,
          "name": "from",
          "type": "address"
        },
        {
          "indexed": false,
          "name": "to",
          "type": "address"
        },
        {
          "indexed": false,
          "name": "value",
          "type": "uint256"
        }
      ],
      "name": "DebugEvent",
      "type": "event"
    },
    {
      "anonymous": false,
      "inputs": [
        {
          "indexed": false,
          "name": "_contract",
          "type": "address"
        },
        {
          "indexed": false,
          "name": "amountApproved",
          "type": "uint256"
        }
      ],
      "name": "PaymentContractRegistered",
      "type": "event"
    },
    {
      "anonymous": false,
      "inputs": [
        {
          "indexed": true,
          "name": "account",
          "type": "address"
        }
      ],
      "name": "MinterAdded",
      "type": "event"
    },
    {
      "anonymous": false,
      "inputs": [
        {
          "indexed": true,
          "name": "account",
          "type": "address"
        }
      ],
      "name": "MinterRemoved",
      "type": "event"
    },
    {
      "anonymous": false,
      "inputs": [
        {
          "indexed": false,
          "name": "account",
          "type": "address"
        }
      ],
      "name": "Paused",
      "type": "event"
    },
    {
      "anonymous": false,
      "inputs": [
        {
          "indexed": false,
          "name": "account",
          "type": "address"
        }
      ],
      "name": "Unpaused",
      "type": "event"
    },
    {
      "anonymous": false,
      "inputs": [
        {
          "indexed": true,
          "name": "account",
          "type": "address"
        }
      ],
      "name": "PauserAdded",
      "type": "event"
    },
    {
      "anonymous": false,
      "inputs": [
        {
          "indexed": true,
          "name": "account",
          "type": "address"
        }
      ],
      "name": "PauserRemoved",
      "type": "event"
    },
    {
      "anonymous": false,
      "inputs": [
        {
          "indexed": true,
          "name": "from",
          "type": "address"
        },
        {
          "indexed": true,
          "name": "to",
          "type": "address"
        },
        {
          "indexed": false,
          "name": "value",
          "type": "uint256"
        }
      ],
      "name": "Transfer",
      "type": "event"
    },
    {
      "anonymous": false,
      "inputs": [
        {
          "indexed": true,
          "name": "owner",
          "type": "address"
        },
        {
          "indexed": true,
          "name": "spender",
          "type": "address"
        },
        {
          "indexed": false,
          "name": "value",
          "type": "uint256"
        }
      ],
      "name": "Approval",
      "type": "event"
    },
    {
      "anonymous": false,
      "inputs": [
        {
          "indexed": true,
          "name": "account",
          "type": "address"
        }
      ],
      "name": "CapperAdded",
      "type": "event"
    },
    {
      "anonymous": false,
      "inputs": [
        {
          "indexed": true,
          "name": "account",
          "type": "address"
        }
      ],
      "name": "CapperRemoved",
      "type": "event"
    },
    {
      "anonymous": false,
      "inputs": [
        {
          "indexed": true,
          "name": "previousOwner",
          "type": "address"
        },
        {
          "indexed": true,
          "name": "newOwner",
          "type": "address"
        }
      ],
      "name": "OwnershipTransferred",
      "type": "event"
    },
    {
      "constant": false,
      "inputs": [
        {
          "name": "to",
          "type": "address"
        },
        {
          "name": "amount",
          "type": "uint256"
        }
      ],
      "name": "mint",
      "outputs": [
        {
          "name": "",
          "type": "bool"
        }
      ],
      "payable": false,
      "stateMutability": "nonpayable",
      "type": "function"
    }
  ],
  "bytecode": "0x60806040523480156200001157600080fd5b5060405160408062004378833981018060405281019080805190602001909291908051906020019092919050505080338180336000806101000a81548173ffffffffffffffffffffffffffffffffffffffff021916908373ffffffffffffffffffffffffffffffffffffffff1602179055506000809054906101000a900473ffffffffffffffffffffffffffffffffffffffff1673ffffffffffffffffffffffffffffffffffffffff16600073ffffffffffffffffffffffffffffffffffffffff167f8be0079c531659141344cd1fd0a4f28419497f9722a3daafe3b4186f6b6457e060405160405180910390a36200011933620004aa640100000000026401000000009004565b620001333362000514640100000000026401000000009004565b6000600760006101000a81548160ff02191690831515021790555062000168336200057e640100000000026401000000009004565b600081111515620001e1576040517f08c379a00000000000000000000000000000000000000000000000000000000081526004018080602001828103825260128152602001807f4361702063616e6e6f74206265207a65726f000000000000000000000000000081525060200191505060405180910390fd5b806009819055505060008273ffffffffffffffffffffffffffffffffffffffff161415151562000279576040517f08c379a00000000000000000000000000000000000000000000000000000000081526004018080602001828103825260168152602001807f70726f706f736564206f776e6572206973206e756c6c0000000000000000000081525060200191505060405180910390fd5b8173ffffffffffffffffffffffffffffffffffffffff163373ffffffffffffffffffffffffffffffffffffffff161415156200030d57620002ce82620005e864010000000002620020ef176401000000009004565b620002ed826200062a6401000000000262001480176401000000009004565b6200030c826200066d6401000000000262001387176401000000009004565b5b50506000811180151562000389576040517f08c379a00000000000000000000000000000000000000000000000000000000081526004018080602001828103825260118152602001807f636f6e646974696f6e206e6f74206d657400000000000000000000000000000081525060200191505060405180910390fd5b6040805190810160405280600481526020017f524f4b5300000000000000000000000000000000000000000000000000000000815250600a9080519060200190620003d6929190620009dd565b506040805190810160405280601181526020017f526f636b20537461626c6520546f6b656e000000000000000000000000000000815250600c908051906020019062000424929190620009dd565b506012600b8190555050506200044d620006b06401000000000262001457176401000000009004565b73ffffffffffffffffffffffffffffffffffffffff168273ffffffffffffffffffffffffffffffffffffffff16141515620004a257620004a182620005e864010000000002620020ef176401000000009004565b5b505062000a8c565b620004ce816001620006d9640100000000026200369f179091906401000000009004565b8073ffffffffffffffffffffffffffffffffffffffff167fa7555c95b69d4f5cc847881feb4ab2883a1921319e34fa2043747b793d65b36e60405160405180910390a250565b62000538816006620006d9640100000000026200369f179091906401000000009004565b8073ffffffffffffffffffffffffffffffffffffffff167f6719d08c1888103bea251a4ed56406bd0c3e69723c8a1686e017e7bbe159b6f860405160405180910390a250565b620005a2816008620006d9640100000000026200369f179091906401000000009004565b8073ffffffffffffffffffffffffffffffffffffffff167f6ae172837ea30b801fbfcdd4108aa1d5bf8ff775444fd70256b44e6bf3dfc3f660405160405180910390a250565b620006016200079c640100000000026401000000009004565b15156200060d57600080fd5b6200062781620007f3640100000000026401000000009004565b50565b6200064433620008ee640100000000026401000000009004565b15156200065057600080fd5b6200066a81620004aa640100000000026401000000009004565b50565b62000687336200091b640100000000026401000000009004565b15156200069357600080fd5b620006ad8162000514640100000000026401000000009004565b50565b60008060009054906101000a900473ffffffffffffffffffffffffffffffffffffffff16905090565b600073ffffffffffffffffffffffffffffffffffffffff168173ffffffffffffffffffffffffffffffffffffffff16141515156200071657600080fd5b62000731828262000948640100000000026401000000009004565b1515156200073e57600080fd5b60018260000160008373ffffffffffffffffffffffffffffffffffffffff1673ffffffffffffffffffffffffffffffffffffffff16815260200190815260200160002060006101000a81548160ff0219169083151502179055505050565b60008060009054906101000a900473ffffffffffffffffffffffffffffffffffffffff1673ffffffffffffffffffffffffffffffffffffffff163373ffffffffffffffffffffffffffffffffffffffff1614905090565b600073ffffffffffffffffffffffffffffffffffffffff168173ffffffffffffffffffffffffffffffffffffffff16141515156200083057600080fd5b8073ffffffffffffffffffffffffffffffffffffffff166000809054906101000a900473ffffffffffffffffffffffffffffffffffffffff1673ffffffffffffffffffffffffffffffffffffffff167f8be0079c531659141344cd1fd0a4f28419497f9722a3daafe3b4186f6b6457e060405160405180910390a3806000806101000a81548173ffffffffffffffffffffffffffffffffffffffff021916908373ffffffffffffffffffffffffffffffffffffffff16021790555050565b6000620009148260016200094864010000000002620028f4179091906401000000009004565b9050919050565b6000620009418260066200094864010000000002620028f4179091906401000000009004565b9050919050565b60008073ffffffffffffffffffffffffffffffffffffffff168273ffffffffffffffffffffffffffffffffffffffff16141515156200098657600080fd5b8260000160008373ffffffffffffffffffffffffffffffffffffffff1673ffffffffffffffffffffffffffffffffffffffff16815260200190815260200160002060009054906101000a900460ff16905092915050565b828054600181600116156101000203166002900490600052602060002090601f016020900481019282601f1062000a2057805160ff191683800117855562000a51565b8280016001018555821562000a51579182015b8281111562000a5057825182559160200191906001019062000a33565b5b50905062000a60919062000a64565b5090565b62000a8991905b8082111562000a8557600081600090555060010162000a6b565b5090565b90565b6138dc8062000a9c6000396000f3006080604052600436106101e3576000357c0100000000000000000000000000000000000000000000000000000000900463ffffffff16806306fdde03146101e8578063095ea7b31461027857806318160ddd146102dd57806323b872dd146103085780632e0f26251461038d578063313ce567146103b8578063355274ea146103e3578063395093511461040e57806339564561146104735780633f4ba83a146104ce57806340c10f19146104e557806346fbf68e1461054a57806347786d37146105a55780635c975abb146105d25780635d5576f8146106015780636a146024146106185780636b3b2cf9146106435780636ef8d66d1461069e57806370a08231146106b5578063715018a61461070c57806377916c011461072357806382dc1ec4146107665780638456cb59146107a95780638da5cb5b146107c05780638dfbcf36146108175780638f32d59b1461085a578063918f86741461088957806395d89b41146108b4578063983b2d5614610944578063986502751461098757806399396ace1461099e578063a457c2d7146109e1578063a9059cbb14610a46578063aa271e1a14610aab578063bb318c4214610b06578063beded8a514610b49578063c3c5a54714610b96578063dd62ed3e14610bf1578063f2fde38b14610c68575b600080fd5b3480156101f457600080fd5b506101fd610cab565b6040518080602001828103825283818151815260200191508051906020019080838360005b8381101561023d578082015181840152602081019050610222565b50505050905090810190601f16801561026a5780820380516001836020036101000a031916815260200191505b509250505060405180910390f35b34801561028457600080fd5b506102c3600480360381019080803573ffffffffffffffffffffffffffffffffffffffff16906020019092919080359060200190929190505050610d49565b604051808215151515815260200191505060405180910390f35b3480156102e957600080fd5b506102f2610d79565b6040518082815260200191505060405180910390f35b34801561031457600080fd5b50610373600480360381019080803573ffffffffffffffffffffffffffffffffffffffff169060200190929190803573ffffffffffffffffffffffffffffffffffffffff16906020019092919080359060200190929190505050610d83565b604051808215151515815260200191505060405180910390f35b34801561039957600080fd5b506103a2610e40565b6040518082815260200191505060405180910390f35b3480156103c457600080fd5b506103cd610e45565b6040518082815260200191505060405180910390f35b3480156103ef57600080fd5b506103f8610e4b565b6040518082815260200191505060405180910390f35b34801561041a57600080fd5b50610459600480360381019080803573ffffffffffffffffffffffffffffffffffffffff16906020019092919080359060200190929190505050610e55565b604051808215151515815260200191505060405180910390f35b34801561047f57600080fd5b506104b4600480360381019080803573ffffffffffffffffffffffffffffffffffffffff169060200190929190505050610e85565b604051808215151515815260200191505060405180910390f35b3480156104da57600080fd5b506104e3610ea2565b005b3480156104f157600080fd5b50610530600480360381019080803573ffffffffffffffffffffffffffffffffffffffff16906020019092919080359060200190929190505050610f51565b604051808215151515815260200191505060405180910390f35b34801561055657600080fd5b5061058b600480360381019080803573ffffffffffffffffffffffffffffffffffffffff169060200190929190505050610f6d565b604051808215151515815260200191505060405180910390f35b3480156105b157600080fd5b506105d060048036038101908080359060200190929190505050610f8a565b005b3480156105de57600080fd5b506105e7610faa565b604051808215151515815260200191505060405180910390f35b34801561060d57600080fd5b50610616610fc1565b005b34801561062457600080fd5b5061062d610fcc565b6040518082815260200191505060405180910390f35b34801561064f57600080fd5b50610684600480360381019080803573ffffffffffffffffffffffffffffffffffffffff169060200190929190505050610fd4565b604051808215151515815260200191505060405180910390f35b3480156106aa57600080fd5b506106b3610fe6565b005b3480156106c157600080fd5b506106f6600480360381019080803573ffffffffffffffffffffffffffffffffffffffff169060200190929190505050610ff1565b6040518082815260200191505060405180910390f35b34801561071857600080fd5b5061072161103a565b005b34801561072f57600080fd5b50610764600480360381019080803573ffffffffffffffffffffffffffffffffffffffff16906020019092919050505061110c565b005b34801561077257600080fd5b506107a7600480360381019080803573ffffffffffffffffffffffffffffffffffffffff169060200190929190505050611387565b005b3480156107b557600080fd5b506107be6113a7565b005b3480156107cc57600080fd5b506107d5611457565b604051808273ffffffffffffffffffffffffffffffffffffffff1673ffffffffffffffffffffffffffffffffffffffff16815260200191505060405180910390f35b34801561082357600080fd5b50610858600480360381019080803573ffffffffffffffffffffffffffffffffffffffff169060200190929190505050611480565b005b34801561086657600080fd5b5061086f6114a0565b604051808215151515815260200191505060405180910390f35b34801561089557600080fd5b5061089e6114f7565b6040518082815260200191505060405180910390f35b3480156108c057600080fd5b506108c96114fd565b6040518080602001828103825283818151815260200191508051906020019080838360005b838110156109095780820151818401526020810190506108ee565b50505050905090810190601f1680156109365780820380516001836020036101000a031916815260200191505b509250505060405180910390f35b34801561095057600080fd5b50610985600480360381019080803573ffffffffffffffffffffffffffffffffffffffff16906020019092919050505061159b565b005b34801561099357600080fd5b5061099c6115bb565b005b3480156109aa57600080fd5b506109df600480360381019080803573ffffffffffffffffffffffffffffffffffffffff1690602001909291905050506115c6565b005b3480156109ed57600080fd5b50610a2c600480360381019080803573ffffffffffffffffffffffffffffffffffffffff16906020019092919080359060200190929190505050611665565b604051808215151515815260200191505060405180910390f35b348015610a5257600080fd5b50610a91600480360381019080803573ffffffffffffffffffffffffffffffffffffffff16906020019092919080359060200190929190505050611695565b604051808215151515815260200191505060405180910390f35b348015610ab757600080fd5b50610aec600480360381019080803573ffffffffffffffffffffffffffffffffffffffff16906020019092919050505061187d565b604051808215151515815260200191505060405180910390f35b348015610b1257600080fd5b50610b47600480360381019080803573ffffffffffffffffffffffffffffffffffffffff16906020019092919050505061189a565b005b348015610b5557600080fd5b50610b94600480360381019080803573ffffffffffffffffffffffffffffffffffffffff169060200190929190803590602001909291905050506118ba565b005b348015610ba257600080fd5b50610bd7600480360381019080803573ffffffffffffffffffffffffffffffffffffffff169060200190929190505050611eb1565b604051808215151515815260200191505060405180910390f35b348015610bfd57600080fd5b50610c52600480360381019080803573ffffffffffffffffffffffffffffffffffffffff169060200190929190803573ffffffffffffffffffffffffffffffffffffffff169060200190929190505050612068565b6040518082815260200191505060405180910390f35b348015610c7457600080fd5b50610ca9600480360381019080803573ffffffffffffffffffffffffffffffffffffffff1690602001909291905050506120ef565b005b600c8054600181600116156101000203166002900480601f016020809104026020016040519081016040528092919081815260200182805460018160011615610100020316600290048015610d415780601f10610d1657610100808354040283529160200191610d41565b820191906000526020600020905b815481529060010190602001808311610d2457829003601f168201915b505050505081565b6000600760009054906101000a900460ff16151515610d6757600080fd5b610d71838361210e565b905092915050565b6000600554905090565b60007f5ea99e480d9dcff50173564668f9850cc098be11b6968d8799976067ff47312a848484604051808473ffffffffffffffffffffffffffffffffffffffff1673ffffffffffffffffffffffffffffffffffffffff1681526020018373ffffffffffffffffffffffffffffffffffffffff1673ffffffffffffffffffffffffffffffffffffffff168152602001828152602001935050505060405180910390a1610e3784610e318561223b565b8461268b565b90509392505050565b601281565b600b5481565b6000600954905090565b6000600760009054906101000a900460ff16151515610e7357600080fd5b610e7d83836126bd565b905092915050565b6000610e9b8260016128f490919063ffffffff16565b9050919050565b610eab33610f6d565b1515610eb657600080fd5b600760009054906101000a900460ff161515610ed157600080fd5b6000600760006101000a81548160ff0219169083151502179055507f5db9ee0a495bf2e6ff9c91a7834c1ba4fdd244a5e8aa4e537bd38aeae4b073aa33604051808273ffffffffffffffffffffffffffffffffffffffff1673ffffffffffffffffffffffffffffffffffffffff16815260200191505060405180910390a1565b6000610f5c8361189a565b610f668383612988565b5092915050565b6000610f838260066128f490919063ffffffff16565b9050919050565b610f9333610e85565b1515610f9e57600080fd5b610fa781612ac2565b50565b6000600760009054906101000a900460ff16905090565b610fca33612ad7565b565b6012600a0a81565b6000610fdf82612b31565b9050919050565b610fef33612b87565b565b6000600360008373ffffffffffffffffffffffffffffffffffffffff1673ffffffffffffffffffffffffffffffffffffffff168152602001908152602001600020549050919050565b6110426114a0565b151561104d57600080fd5b600073ffffffffffffffffffffffffffffffffffffffff166000809054906101000a900473ffffffffffffffffffffffffffffffffffffffff1673ffffffffffffffffffffffffffffffffffffffff167f8be0079c531659141344cd1fd0a4f28419497f9722a3daafe3b4186f6b6457e060405160405180910390a360008060006101000a81548173ffffffffffffffffffffffffffffffffffffffff021916908373ffffffffffffffffffffffffffffffffffffffff160217905550565b60006111166114a0565b151561112157600080fd5b600073ffffffffffffffffffffffffffffffffffffffff168273ffffffffffffffffffffffffffffffffffffffff16141515156111c6576040517f08c379a00000000000000000000000000000000000000000000000000000000081526004018080602001828103825260158152602001807f6e756c6c20636f6e74726163742061646472657373000000000000000000000081525060200191505060405180910390fd5b8190508073ffffffffffffffffffffffffffffffffffffffff166383197ef06040518163ffffffff167c0100000000000000000000000000000000000000000000000000000000028152600401600060405180830381600087803b15801561122d57600080fd5b505af1158015611241573d6000803e3d6000fd5b505050507f5ea99e480d9dcff50173564668f9850cc098be11b6968d8799976067ff47312a8173ffffffffffffffffffffffffffffffffffffffff1663e3082b366040518163ffffffff167c0100000000000000000000000000000000000000000000000000000000028152600401602060405180830381600087803b1580156112ca57600080fd5b505af11580156112de573d6000803e3d6000fd5b505050506040513d60208110156112f457600080fd5b8101908080519060200190929190505050600080604051808473ffffffffffffffffffffffffffffffffffffffff1673ffffffffffffffffffffffffffffffffffffffff1681526020018373ffffffffffffffffffffffffffffffffffffffff1673ffffffffffffffffffffffffffffffffffffffff168152602001828152602001935050505060405180910390a15050565b61139033610f6d565b151561139b57600080fd5b6113a481612be1565b50565b6113b033610f6d565b15156113bb57600080fd5b600760009054906101000a900460ff161515156113d757600080fd5b6001600760006101000a81548160ff0219169083151502179055507f62e78cea01bee320cd4e420270b5ea74000d11b0c9f74754ebdbfc544b05a25833604051808273ffffffffffffffffffffffffffffffffffffffff1673ffffffffffffffffffffffffffffffffffffffff16815260200191505060405180910390a1565b60008060009054906101000a900473ffffffffffffffffffffffffffffffffffffffff16905090565b61148933610e85565b151561149457600080fd5b61149d81612c3b565b50565b60008060009054906101000a900473ffffffffffffffffffffffffffffffffffffffff1673ffffffffffffffffffffffffffffffffffffffff163373ffffffffffffffffffffffffffffffffffffffff1614905090565b61271081565b600a8054600181600116156101000203166002900480601f0160208091040260200160405190810160405280929190818152602001828054600181600116156101000203166002900480156115935780601f1061156857610100808354040283529160200191611593565b820191906000526020600020905b81548152906001019060200180831161157657829003601f168201915b505050505081565b6115a43361187d565b15156115af57600080fd5b6115b881612c95565b50565b6115c433612cef565b565b6115cf33610e85565b15156115da57600080fd5b806115e481612b31565b1515611658576040517f08c379a00000000000000000000000000000000000000000000000000000000081526004018080602001828103825260138152602001807f6e6f742061206465706f7420616464726573730000000000000000000000000081525060200191505060405180910390fd5b61166182612d49565b5050565b6000600760009054906101000a900460ff1615151561168357600080fd5b61168d8383612da4565b905092915050565b6000807f5ea99e480d9dcff50173564668f9850cc098be11b6968d8799976067ff47312a338585604051808473ffffffffffffffffffffffffffffffffffffffff1673ffffffffffffffffffffffffffffffffffffffff1681526020018373ffffffffffffffffffffffffffffffffffffffff1673ffffffffffffffffffffffffffffffffffffffff168152602001828152602001935050505060405180910390a16117408461223b565b9050600073ffffffffffffffffffffffffffffffffffffffff168173ffffffffffffffffffffffffffffffffffffffff16141515156117e7576040517f08c379a00000000000000000000000000000000000000000000000000000000081526004018080602001828103825260168152602001807f76656e646f722061646472657373206973207a65726f0000000000000000000081525060200191505060405180910390fd5b826117f133610ff1565b10151515611867576040517f08c379a00000000000000000000000000000000000000000000000000000000081526004018080602001828103825260118152602001807f6e6f7420656e6f75676820746f6b656e7300000000000000000000000000000081525060200191505060405180910390fd5b611872338285612fdb565b600191505092915050565b60006118938260086128f490919063ffffffff16565b9050919050565b6118a333610e85565b15156118ae57600080fd5b6118b7816131f9565b50565b60006118c46114a0565b15156118cf57600080fd5b600073ffffffffffffffffffffffffffffffffffffffff168373ffffffffffffffffffffffffffffffffffffffff1614151515611974576040517f08c379a00000000000000000000000000000000000000000000000000000000081526004018080602001828103825260158152602001807f6e756c6c20636f6e74726163742061646472657373000000000000000000000081525060200191505060405180910390fd5b3073ffffffffffffffffffffffffffffffffffffffff1663c3c5a547846040518263ffffffff167c0100000000000000000000000000000000000000000000000000000000028152600401808273ffffffffffffffffffffffffffffffffffffffff1673ffffffffffffffffffffffffffffffffffffffff168152602001915050602060405180830381600087803b158015611a0f57600080fd5b505af1158015611a23573d6000803e3d6000fd5b505050506040513d6020811015611a3957600080fd5b8101908080519060200190929190505050151515611ae5576040517f08c379a00000000000000000000000000000000000000000000000000000000081526004018080602001828103825260268152602001807f7061796d656e7420636f6e747261637420697320616c7265616479207265676981526020017f737465726564000000000000000000000000000000000000000000000000000081525060400191505060405180910390fd5b829050600073ffffffffffffffffffffffffffffffffffffffff168173ffffffffffffffffffffffffffffffffffffffff16637d4b74116040518163ffffffff167c0100000000000000000000000000000000000000000000000000000000028152600401602060405180830381600087803b158015611b6457600080fd5b505af1158015611b78573d6000803e3d6000fd5b505050506040513d6020811015611b8e57600080fd5b810190808051906020019092919050505073ffffffffffffffffffffffffffffffffffffffff1614151515611c51576040517f08c379a00000000000000000000000000000000000000000000000000000000081526004018080602001828103825260228152602001807f76656e646f72206e6f742073657420696e207061796d656e7420636f6e74726181526020017f637400000000000000000000000000000000000000000000000000000000000081525060400191505060405180910390fd5b600073ffffffffffffffffffffffffffffffffffffffff168173ffffffffffffffffffffffffffffffffffffffff1663e3082b366040518163ffffffff167c0100000000000000000000000000000000000000000000000000000000028152600401602060405180830381600087803b158015611ccd57600080fd5b505af1158015611ce1573d6000803e3d6000fd5b505050506040513d6020811015611cf757600080fd5b810190808051906020019092919050505073ffffffffffffffffffffffffffffffffffffffff1614151515611dba576040517f08c379a00000000000000000000000000000000000000000000000000000000081526004018080602001828103825260288152602001807f52535449206163636f756e74206e6f742073657420696e207061796d656e742081526020017f636f6e747261637400000000000000000000000000000000000000000000000081525060400191505060405180910390fd5b8073ffffffffffffffffffffffffffffffffffffffff16637c8670096040518163ffffffff167c0100000000000000000000000000000000000000000000000000000000028152600401600060405180830381600087803b158015611e1e57600080fd5b505af1158015611e32573d6000803e3d6000fd5b50505050611e408183610d49565b507f01c385e5737a43d686212a1c23bddb3bf1ee4111302f7a8955fe0a5d4af591cb8383604051808373ffffffffffffffffffffffffffffffffffffffff1673ffffffffffffffffffffffffffffffffffffffff1681526020018281526020019250505060405180910390a1505050565b60006012600a0a3073ffffffffffffffffffffffffffffffffffffffff1663dd62ed3e3073ffffffffffffffffffffffffffffffffffffffff16638da5cb5b6040518163ffffffff167c0100000000000000000000000000000000000000000000000000000000028152600401602060405180830381600087803b158015611f3857600080fd5b505af1158015611f4c573d6000803e3d6000fd5b505050506040513d6020811015611f6257600080fd5b8101908080519060200190929190505050856040518363ffffffff167c0100000000000000000000000000000000000000000000000000000000028152600401808373ffffffffffffffffffffffffffffffffffffffff1673ffffffffffffffffffffffffffffffffffffffff1681526020018273ffffffffffffffffffffffffffffffffffffffff1673ffffffffffffffffffffffffffffffffffffffff16815260200192505050602060405180830381600087803b15801561202557600080fd5b505af1158015612039573d6000803e3d6000fd5b505050506040513d602081101561204f57600080fd5b8101908080519060200190929190505050119050919050565b6000600460008473ffffffffffffffffffffffffffffffffffffffff1673ffffffffffffffffffffffffffffffffffffffff16815260200190815260200160002060008373ffffffffffffffffffffffffffffffffffffffff1673ffffffffffffffffffffffffffffffffffffffff16815260200190815260200160002054905092915050565b6120f76114a0565b151561210257600080fd5b61210b816132f9565b50565b60008073ffffffffffffffffffffffffffffffffffffffff168373ffffffffffffffffffffffffffffffffffffffff161415151561214b57600080fd5b81600460003373ffffffffffffffffffffffffffffffffffffffff1673ffffffffffffffffffffffffffffffffffffffff16815260200190815260200160002060008573ffffffffffffffffffffffffffffffffffffffff1673ffffffffffffffffffffffffffffffffffffffff168152602001908152602001600020819055508273ffffffffffffffffffffffffffffffffffffffff163373ffffffffffffffffffffffffffffffffffffffff167f8c5be1e5ebec7d5bd14f71427d1e84f3dd0314c0f7b2291e5b200ac8c7c3b925846040518082815260200191505060405180910390a36001905092915050565b60008060008073ffffffffffffffffffffffffffffffffffffffff168473ffffffffffffffffffffffffffffffffffffffff16141515156122e4576040517f08c379a000000000000000000000000000000000000000000000000000000000815260040180806020018281038252601b8152602001807f64657374696e6174696f6e2061646472657373206973206e756c6c000000000081525060200191505060405180910390fd5b3073ffffffffffffffffffffffffffffffffffffffff1663c3c5a547856040518263ffffffff167c0100000000000000000000000000000000000000000000000000000000028152600401808273ffffffffffffffffffffffffffffffffffffffff1673ffffffffffffffffffffffffffffffffffffffff168152602001915050602060405180830381600087803b15801561237f57600080fd5b505af1158015612393573d6000803e3d6000fd5b505050506040513d60208110156123a957600080fd5b810190808051906020019092919050505015612680578391508173ffffffffffffffffffffffffffffffffffffffff1663770af77c6040518163ffffffff167c0100000000000000000000000000000000000000000000000000000000028152600401602060405180830381600087803b15801561242657600080fd5b505af115801561243a573d6000803e3d6000fd5b505050506040513d602081101561245057600080fd5b810190808051906020019092919050505090506012600a0a8173ffffffffffffffffffffffffffffffffffffffff166370a08231866040518263ffffffff167c0100000000000000000000000000000000000000000000000000000000028152600401808273ffffffffffffffffffffffffffffffffffffffff1673ffffffffffffffffffffffffffffffffffffffff168152602001915050602060405180830381600087803b15801561250357600080fd5b505af1158015612517573d6000803e3d6000fd5b505050506040513d602081101561252d57600080fd5b8101908080519060200190929190505050101515156125da576040517f08c379a00000000000000000000000000000000000000000000000000000000081526004018080602001828103825260378152602001807f64657374696e6174696f6e206164647265737320697320616e20756e7265676981526020017f737465726564207061796d656e7420636f6e747261637400000000000000000081525060400191505060405180910390fd5b8173ffffffffffffffffffffffffffffffffffffffff16637d4b74116040518163ffffffff167c0100000000000000000000000000000000000000000000000000000000028152600401602060405180830381600087803b15801561263e57600080fd5b505af1158015612652573d6000803e3d6000fd5b505050506040513d602081101561266857600080fd5b81019080805190602001909291905050509250612684565b8392505b5050919050565b6000600760009054906101000a900460ff161515156126a957600080fd5b6126b48484846133f3565b90509392505050565b60008073ffffffffffffffffffffffffffffffffffffffff168373ffffffffffffffffffffffffffffffffffffffff16141515156126fa57600080fd5b61278982600460003373ffffffffffffffffffffffffffffffffffffffff1673ffffffffffffffffffffffffffffffffffffffff16815260200190815260200160002060008673ffffffffffffffffffffffffffffffffffffffff1673ffffffffffffffffffffffffffffffffffffffff168152602001908152602001600020546135a590919063ffffffff16565b600460003373ffffffffffffffffffffffffffffffffffffffff1673ffffffffffffffffffffffffffffffffffffffff16815260200190815260200160002060008573ffffffffffffffffffffffffffffffffffffffff1673ffffffffffffffffffffffffffffffffffffffff168152602001908152602001600020819055508273ffffffffffffffffffffffffffffffffffffffff163373ffffffffffffffffffffffffffffffffffffffff167f8c5be1e5ebec7d5bd14f71427d1e84f3dd0314c0f7b2291e5b200ac8c7c3b925600460003373ffffffffffffffffffffffffffffffffffffffff1673ffffffffffffffffffffffffffffffffffffffff16815260200190815260200160002060008773ffffffffffffffffffffffffffffffffffffffff1673ffffffffffffffffffffffffffffffffffffffff168152602001908152602001600020546040518082815260200191505060405180910390a36001905092915050565b60008073ffffffffffffffffffffffffffffffffffffffff168273ffffffffffffffffffffffffffffffffffffffff161415151561293157600080fd5b8260000160008373ffffffffffffffffffffffffffffffffffffffff1673ffffffffffffffffffffffffffffffffffffffff16815260200190815260200160002060009054906101000a900460ff16905092915050565b60006129933361187d565b151561299e57600080fd5b826129a881612b31565b1515612a1c576040517f08c379a00000000000000000000000000000000000000000000000000000000081526004018080602001828103825260138152602001807f6e6f742061206465706f7420616464726573730000000000000000000000000081525060200191505060405180910390fd5b600954612a3984612a2b610d79565b6135a590919063ffffffff16565b11151515612aaf576040517f08c379a00000000000000000000000000000000000000000000000000000000081526004018080602001828103825260198152602001807f6d696e742076616c7565206c696d69742065786365656465640000000000000081525060200191505060405180910390fd5b612ab984846135c6565b91505092915050565b600954811115612ad457806009819055505b50565b612aeb8160016135f090919063ffffffff16565b8073ffffffffffffffffffffffffffffffffffffffff167f427400d279c506df610224b22ecce89b693fc1865864113f21c8d19c1f0c2a3b60405160405180910390a250565b6000600260008373ffffffffffffffffffffffffffffffffffffffff1673ffffffffffffffffffffffffffffffffffffffff16815260200190815260200160002060009054906101000a900460ff169050919050565b612b9b8160066135f090919063ffffffff16565b8073ffffffffffffffffffffffffffffffffffffffff167fcd265ebaf09df2871cc7bd4133404a235ba12eff2041bb89d9c714a2621c7c7e60405160405180910390a250565b612bf581600661369f90919063ffffffff16565b8073ffffffffffffffffffffffffffffffffffffffff167f6719d08c1888103bea251a4ed56406bd0c3e69723c8a1686e017e7bbe159b6f860405160405180910390a250565b612c4f81600161369f90919063ffffffff16565b8073ffffffffffffffffffffffffffffffffffffffff167fa7555c95b69d4f5cc847881feb4ab2883a1921319e34fa2043747b793d65b36e60405160405180910390a250565b612ca981600861369f90919063ffffffff16565b8073ffffffffffffffffffffffffffffffffffffffff167f6ae172837ea30b801fbfcdd4108aa1d5bf8ff775444fd70256b44e6bf3dfc3f660405160405180910390a250565b612d038160086135f090919063ffffffff16565b8073ffffffffffffffffffffffffffffffffffffffff167fe94479a9f7e1952cc78f2d6baab678adc1b772d936c6583def489e524cb6669260405160405180910390a250565b6000600260008373ffffffffffffffffffffffffffffffffffffffff1673ffffffffffffffffffffffffffffffffffffffff16815260200190815260200160002060006101000a81548160ff02191690831515021790555050565b60008073ffffffffffffffffffffffffffffffffffffffff168373ffffffffffffffffffffffffffffffffffffffff1614151515612de157600080fd5b612e7082600460003373ffffffffffffffffffffffffffffffffffffffff1673ffffffffffffffffffffffffffffffffffffffff16815260200190815260200160002060008673ffffffffffffffffffffffffffffffffffffffff1673ffffffffffffffffffffffffffffffffffffffff1681526020019081526020016000205461374f90919063ffffffff16565b600460003373ffffffffffffffffffffffffffffffffffffffff1673ffffffffffffffffffffffffffffffffffffffff16815260200190815260200160002060008573ffffffffffffffffffffffffffffffffffffffff1673ffffffffffffffffffffffffffffffffffffffff168152602001908152602001600020819055508273ffffffffffffffffffffffffffffffffffffffff163373ffffffffffffffffffffffffffffffffffffffff167f8c5be1e5ebec7d5bd14f71427d1e84f3dd0314c0f7b2291e5b200ac8c7c3b925600460003373ffffffffffffffffffffffffffffffffffffffff1673ffffffffffffffffffffffffffffffffffffffff16815260200190815260200160002060008773ffffffffffffffffffffffffffffffffffffffff1673ffffffffffffffffffffffffffffffffffffffff168152602001908152602001600020546040518082815260200191505060405180910390a36001905092915050565b600360008473ffffffffffffffffffffffffffffffffffffffff1673ffffffffffffffffffffffffffffffffffffffff16815260200190815260200160002054811115151561302957600080fd5b600073ffffffffffffffffffffffffffffffffffffffff168273ffffffffffffffffffffffffffffffffffffffff161415151561306557600080fd5b6130b781600360008673ffffffffffffffffffffffffffffffffffffffff1673ffffffffffffffffffffffffffffffffffffffff1681526020019081526020016000205461374f90919063ffffffff16565b600360008573ffffffffffffffffffffffffffffffffffffffff1673ffffffffffffffffffffffffffffffffffffffff1681526020019081526020016000208190555061314c81600360008573ffffffffffffffffffffffffffffffffffffffff1673ffffffffffffffffffffffffffffffffffffffff168152602001908152602001600020546135a590919063ffffffff16565b600360008473ffffffffffffffffffffffffffffffffffffffff1673ffffffffffffffffffffffffffffffffffffffff168152602001908152602001600020819055508173ffffffffffffffffffffffffffffffffffffffff168373ffffffffffffffffffffffffffffffffffffffff167fddf252ad1be2c89b69c2b068fc378daa952ba7f163c4a11628f55a4df523b3ef836040518082815260200191505060405180910390a3505050565b600073ffffffffffffffffffffffffffffffffffffffff168173ffffffffffffffffffffffffffffffffffffffff161415151561329e576040517f08c379a00000000000000000000000000000000000000000000000000000000081526004018080602001828103825260148152602001807f6465706f742063616e6e6f74206265206e756c6c00000000000000000000000081525060200191505060405180910390fd5b6001600260008373ffffffffffffffffffffffffffffffffffffffff1673ffffffffffffffffffffffffffffffffffffffff16815260200190815260200160002060006101000a81548160ff02191690831515021790555050565b600073ffffffffffffffffffffffffffffffffffffffff168173ffffffffffffffffffffffffffffffffffffffff161415151561333557600080fd5b8073ffffffffffffffffffffffffffffffffffffffff166000809054906101000a900473ffffffffffffffffffffffffffffffffffffffff1673ffffffffffffffffffffffffffffffffffffffff167f8be0079c531659141344cd1fd0a4f28419497f9722a3daafe3b4186f6b6457e060405160405180910390a3806000806101000a81548173ffffffffffffffffffffffffffffffffffffffff021916908373ffffffffffffffffffffffffffffffffffffffff16021790555050565b6000600460008573ffffffffffffffffffffffffffffffffffffffff1673ffffffffffffffffffffffffffffffffffffffff16815260200190815260200160002060003373ffffffffffffffffffffffffffffffffffffffff1673ffffffffffffffffffffffffffffffffffffffff16815260200190815260200160002054821115151561348057600080fd5b61350f82600460008773ffffffffffffffffffffffffffffffffffffffff1673ffffffffffffffffffffffffffffffffffffffff16815260200190815260200160002060003373ffffffffffffffffffffffffffffffffffffffff1673ffffffffffffffffffffffffffffffffffffffff1681526020019081526020016000205461374f90919063ffffffff16565b600460008673ffffffffffffffffffffffffffffffffffffffff1673ffffffffffffffffffffffffffffffffffffffff16815260200190815260200160002060003373ffffffffffffffffffffffffffffffffffffffff1673ffffffffffffffffffffffffffffffffffffffff1681526020019081526020016000208190555061359a848484612fdb565b600190509392505050565b60008082840190508381101515156135bc57600080fd5b8091505092915050565b60006135d13361187d565b15156135dc57600080fd5b6135e68383613770565b6001905092915050565b600073ffffffffffffffffffffffffffffffffffffffff168173ffffffffffffffffffffffffffffffffffffffff161415151561362c57600080fd5b61363682826128f4565b151561364157600080fd5b60008260000160008373ffffffffffffffffffffffffffffffffffffffff1673ffffffffffffffffffffffffffffffffffffffff16815260200190815260200160002060006101000a81548160ff0219169083151502179055505050565b600073ffffffffffffffffffffffffffffffffffffffff168173ffffffffffffffffffffffffffffffffffffffff16141515156136db57600080fd5b6136e582826128f4565b1515156136f157600080fd5b60018260000160008373ffffffffffffffffffffffffffffffffffffffff1673ffffffffffffffffffffffffffffffffffffffff16815260200190815260200160002060006101000a81548160ff0219169083151502179055505050565b60008083831115151561376157600080fd5b82840390508091505092915050565b60008273ffffffffffffffffffffffffffffffffffffffff161415151561379657600080fd5b6137ab816005546135a590919063ffffffff16565b60058190555061380381600360008573ffffffffffffffffffffffffffffffffffffffff1673ffffffffffffffffffffffffffffffffffffffff168152602001908152602001600020546135a590919063ffffffff16565b600360008473ffffffffffffffffffffffffffffffffffffffff1673ffffffffffffffffffffffffffffffffffffffff168152602001908152602001600020819055508173ffffffffffffffffffffffffffffffffffffffff16600073ffffffffffffffffffffffffffffffffffffffff167fddf252ad1be2c89b69c2b068fc378daa952ba7f163c4a11628f55a4df523b3ef836040518082815260200191505060405180910390a350505600a165627a7a72305820c155359f1fc2f89766d25a38c326fc6cb0a00874477c4fdca15bfd4a5da55e7b0029",
  "source": "pragma solidity ^0.4.24;\n\nimport \"../puremoney2.sol\";\n\ncontract CappedPureMoneyMock is PureMoney2 {\n\n  constructor(address initialAccount, uint256 initialCap)\n    public\n    PureMoney2(initialCap)\n  {\n    if (initialAccount != super.owner()) super.transferOwnership(initialAccount);\n  }\n\n  function mint(address to, uint256 amount) public returns (bool) {\n    super.addDepot(to);\n    super.mint(to, amount);\n  }\n\n}\n",
  "sourcePath": "C:\\Users\\ctapa\\source\\payment-system-contracts\\contracts\\mocks\\CappedPureMoneyMock.sol",
  "compiler": {
    "name": "solc",
    "version": "0.4.24+commit.e67f0147.Emscripten.clang"
  },
  "schemaVersion": "3.2.0",
  "updatedAt": "2020-05-31T01:54:38.484Z",
  "devdoc": {
    "methods": {
      "allowance(address,address)": {
        "details": "Function to check the amount of tokens that an owner allowed to a spender.",
        "params": {
          "owner": "address The address which owns the funds.",
          "spender": "address The address which will spend the funds."
        },
        "return": "A uint256 specifying the amount of tokens still available for the spender."
      },
      "balanceOf(address)": {
        "details": "Gets the balance of the specified address.",
        "params": {
          "owner": "The address to query the balance of."
        },
        "return": "An uint256 representing the amount owned by the passed address."
      },
      "cap()": {
        "return": "the cap for the token minting."
      },
      "isOwner()": {
        "return": "true if `msg.sender` is the owner of the contract."
      },
      "owner()": {
        "return": "the address of the owner."
      },
      "pause()": {
        "details": "called by the owner to pause, triggers stopped state"
      },
      "paused()": {
        "return": "true if the contract is paused, false otherwise."
      },
      "renounceOwnership()": {
        "details": "Allows the current owner to relinquish control of the contract."
      },
      "totalSupply()": {
        "details": "Total number of tokens in existence"
      },
      "transferOwnership(address)": {
        "details": "Allows the current owner to transfer control of the contract to a newOwner.",
        "params": {
          "newOwner": "The address to transfer ownership to."
        }
      },
      "unpause()": {
        "details": "called by the owner to unpause, returns to normal state"
      }
    }
  },
  "userdoc": {
    "methods": {
      "renounceOwnership()": {
        "notice": "Renouncing to ownership will leave the contract without an owner. It will not be possible to call the functions with the `onlyOwner` modifier anymore."
      }
    }
  }
}