{
  "contractName": "CapperRoleMock",
  "abi": [
    {
      "constant": true,
      "inputs": [
        {
          "name": "account",
          "type": "address"
        }
      ],
      "name": "isCapper",
      "outputs": [
        {
          "name": "",
          "type": "bool"
        }
      ],
      "payable": false,
      "stateMutability": "view",
      "type": "function"
    },
    {
      "constant": false,
      "inputs": [],
      "name": "renounceCapper",
      "outputs": [],
      "payable": false,
      "stateMutability": "nonpayable",
      "type": "function"
    },
    {
      "constant": false,
      "inputs": [
        {
          "name": "account",
          "type": "address"
        }
      ],
      "name": "addCapper",
      "outputs": [],
      "payable": false,
      "stateMutability": "nonpayable",
      "type": "function"
    },
    {
      "anonymous": false,
      "inputs": [
        {
          "indexed": true,
          "name": "account",
          "type": "address"
        }
      ],
      "name": "CapperAdded",
      "type": "event"
    },
    {
      "anonymous": false,
      "inputs": [
        {
          "indexed": true,
          "name": "account",
          "type": "address"
        }
      ],
      "name": "CapperRemoved",
      "type": "event"
    },
    {
      "constant": false,
      "inputs": [
        {
          "name": "account",
          "type": "address"
        }
      ],
      "name": "removeCapper",
      "outputs": [],
      "payable": false,
      "stateMutability": "nonpayable",
      "type": "function"
    },
    {
      "constant": true,
      "inputs": [],
      "name": "onlyCapperMock",
      "outputs": [],
      "payable": false,
      "stateMutability": "view",
      "type": "function"
    }
  ],
  "bytecode": "0x608060405261001c33610021640100000000026401000000009004565b6101db565b6100428160006100886401000000000261033f179091906401000000009004565b8073ffffffffffffffffffffffffffffffffffffffff167fa7555c95b69d4f5cc847881feb4ab2883a1921319e34fa2043747b793d65b36e60405160405180910390a250565b600073ffffffffffffffffffffffffffffffffffffffff168173ffffffffffffffffffffffffffffffffffffffff16141515156100c457600080fd5b6100dd8282610147640100000000026401000000009004565b1515156100e957600080fd5b60018260000160008373ffffffffffffffffffffffffffffffffffffffff1673ffffffffffffffffffffffffffffffffffffffff16815260200190815260200160002060006101000a81548160ff0219169083151502179055505050565b60008073ffffffffffffffffffffffffffffffffffffffff168273ffffffffffffffffffffffffffffffffffffffff161415151561018457600080fd5b8260000160008373ffffffffffffffffffffffffffffffffffffffff1673ffffffffffffffffffffffffffffffffffffffff16815260200190815260200160002060009054906101000a900460ff16905092915050565b6104ca806101ea6000396000f30060806040526004361061006d576000357c0100000000000000000000000000000000000000000000000000000000900463ffffffff16806339564561146100725780633f4a6484146100cd5780635d5576f8146101105780638dfbcf3614610127578063d1e07bcb1461016a575b600080fd5b34801561007e57600080fd5b506100b3600480360381019080803573ffffffffffffffffffffffffffffffffffffffff169060200190929190505050610181565b604051808215151515815260200191505060405180910390f35b3480156100d957600080fd5b5061010e600480360381019080803573ffffffffffffffffffffffffffffffffffffffff16906020019092919050505061019e565b005b34801561011c57600080fd5b506101256101aa565b005b34801561013357600080fd5b50610168600480360381019080803573ffffffffffffffffffffffffffffffffffffffff1690602001909291905050506101b5565b005b34801561017657600080fd5b5061017f6101d5565b005b60006101978260006101eb90919063ffffffff16565b9050919050565b6101a78161027f565b50565b6101b33361027f565b565b6101be33610181565b15156101c957600080fd5b6101d28161028b565b50565b6101de33610181565b15156101e957600080fd5b565b60008073ffffffffffffffffffffffffffffffffffffffff168273ffffffffffffffffffffffffffffffffffffffff161415151561022857600080fd5b8260000160008373ffffffffffffffffffffffffffffffffffffffff1673ffffffffffffffffffffffffffffffffffffffff16815260200190815260200160002060009054906101000a900460ff16905092915050565b610288816102e5565b50565b61029f81600061033f90919063ffffffff16565b8073ffffffffffffffffffffffffffffffffffffffff167fa7555c95b69d4f5cc847881feb4ab2883a1921319e34fa2043747b793d65b36e60405160405180910390a250565b6102f98160006103ef90919063ffffffff16565b8073ffffffffffffffffffffffffffffffffffffffff167f427400d279c506df610224b22ecce89b693fc1865864113f21c8d19c1f0c2a3b60405160405180910390a250565b600073ffffffffffffffffffffffffffffffffffffffff168173ffffffffffffffffffffffffffffffffffffffff161415151561037b57600080fd5b61038582826101eb565b15151561039157600080fd5b60018260000160008373ffffffffffffffffffffffffffffffffffffffff1673ffffffffffffffffffffffffffffffffffffffff16815260200190815260200160002060006101000a81548160ff0219169083151502179055505050565b600073ffffffffffffffffffffffffffffffffffffffff168173ffffffffffffffffffffffffffffffffffffffff161415151561042b57600080fd5b61043582826101eb565b151561044057600080fd5b60008260000160008373ffffffffffffffffffffffffffffffffffffffff1673ffffffffffffffffffffffffffffffffffffffff16815260200190815260200160002060006101000a81548160ff02191690831515021790555050505600a165627a7a72305820591ebd45c4771ba7beb981472c623900343ff71202e60cf69f38e15d35b2b2a60029",
  "source": "pragma solidity ^0.4.24;\n\nimport \"openzeppelin-solidity/contracts/access/roles/CapperRole.sol\";\n\ncontract CapperRoleMock is CapperRole {\n  function removeCapper(address account) public {\n    _removeCapper(account);\n  }\n\n  function onlyCapperMock() public view onlyCapper {\n  }\n\n  // Causes a compilation error if super._removeCapper is not internal\n  function _removeCapper(address account) internal {\n    super._removeCapper(account);\n  }\n}\n",
  "sourcePath": "C:\\Users\\ctapa\\source\\payment-system-contracts\\contracts\\mocks\\CapperRoleMock.sol",
  "compiler": {
    "name": "solc",
    "version": "0.4.24+commit.e67f0147.Emscripten.clang"
  },
  "schemaVersion": "3.2.0",
  "updatedAt": "2020-05-31T01:54:38.495Z",
  "devdoc": {
    "methods": {}
  },
  "userdoc": {
    "methods": {}
  }
}