{
  "contractName": "Constants",
  "abi": [
    {
      "constant": true,
      "inputs": [],
      "name": "DECIMALS",
      "outputs": [
        {
          "name": "",
          "type": "uint256"
        }
      ],
      "payable": false,
      "stateMutability": "view",
      "type": "function"
    },
    {
      "constant": true,
      "inputs": [],
      "name": "WAD",
      "outputs": [
        {
          "name": "",
          "type": "uint256"
        }
      ],
      "payable": false,
      "stateMutability": "view",
      "type": "function"
    },
    {
      "constant": true,
      "inputs": [],
      "name": "DENOMINATOR",
      "outputs": [
        {
          "name": "",
          "type": "uint256"
        }
      ],
      "payable": false,
      "stateMutability": "view",
      "type": "function"
    }
  ],
  "bytecode": "0x608060405234801561001057600080fd5b5061010f806100206000396000f3006080604052600436106053576000357c0100000000000000000000000000000000000000000000000000000000900463ffffffff1680632e0f26251460585780636a146024146080578063918f86741460a8575b600080fd5b348015606357600080fd5b50606a60d0565b6040518082815260200191505060405180910390f35b348015608b57600080fd5b50609260d5565b6040518082815260200191505060405180910390f35b34801560b357600080fd5b5060ba60dd565b6040518082815260200191505060405180910390f35b601281565b6012600a0a81565b612710815600a165627a7a72305820e972d0c964b8720f372f045683045f1bcb1d7cc433061f0572ee26e80ee6381c0029",
  "source": "/// token.sol - base class for all Rock Stable tokens\n\n// Copyright (C) 2018, 2019 Rock Stable Token Inc\n\n// This is based on OpenZeppelin code.\n// You may not use this file except in compliance with the MIT License.\n\n// Unless required by applicable law or agreed to in writing, software\n// distributed under the License is distributed on an \"AS IS\" BASIS,\n// WITHOUT WARRANTIES OR CONDITIONS OF ANY KIND (express or implied).\n\npragma solidity ^0.4.24;\n\nimport { CapperRole } from \"openzeppelin-solidity/contracts/access/roles/CapperRole.sol\";\nimport { MinterRole } from \"openzeppelin-solidity/contracts/access/roles/MinterRole.sol\";\nimport { PauserRole } from \"openzeppelin-solidity/contracts/access/roles/PauserRole.sol\";\nimport { IERC20 } from \"openzeppelin-solidity/contracts/token/ERC20/IERC20.sol\";\nimport { Capped } from \"./Capped.sol\";\nimport { ERC20Pausable } from \"openzeppelin-solidity/contracts/token/ERC20/ERC20Pausable.sol\";\nimport { Ownable } from \"openzeppelin-solidity/contracts/ownership/Ownable.sol\";\n\ncontract Constants {\n    uint public constant DENOMINATOR = 10000; // deprecated\n    uint public constant DECIMALS = 18;\n    uint public constant WAD = 10**DECIMALS;\n}\n\ncontract Token is Constants, Ownable, ERC20Pausable, Capped {\n    string  public symbol;\n    uint256 public decimals;\n    string  public name;\n\n    modifier condition(bool _condition) {\n      require(_condition, \"condition not met\");\n      _;\n    }\n\n    constructor(address _owner, uint256 _cap)\n        public\n        Capped(_cap)\n    {\n      require(_owner != 0, \"proposed owner is null\");\n      if (msg.sender != _owner) {\n        super.transferOwnership(_owner);\n        super.addCapper(_owner);\n        super.addPauser(_owner);\n      }\n    }\n\n}\n",
  "sourcePath": "C:\\Users\\ctapa\\source\\payment-system-contracts\\contracts\\token.sol",
  "compiler": {
    "name": "solc",
    "version": "0.4.24+commit.e67f0147.Emscripten.clang"
  },
  "schemaVersion": "3.2.0",
  "updatedAt": "2020-05-31T01:54:38.642Z",
  "devdoc": {
    "methods": {}
  },
  "userdoc": {
    "methods": {}
  }
}