{
  "contractName": "MintableUniversalTokenMock",
  "abi": [
    {
      "constant": false,
      "inputs": [
        {
          "name": "_xactionFeeMult",
          "type": "uint256"
        }
      ],
      "name": "modifyTransFee",
      "outputs": [],
      "payable": false,
      "stateMutability": "nonpayable",
      "type": "function"
    },
    {
      "constant": true,
      "inputs": [],
      "name": "name",
      "outputs": [
        {
          "name": "",
          "type": "string"
        }
      ],
      "payable": false,
      "stateMutability": "view",
      "type": "function"
    },
    {
      "constant": false,
      "inputs": [
        {
          "name": "spender",
          "type": "address"
        },
        {
          "name": "value",
          "type": "uint256"
        }
      ],
      "name": "approve",
      "outputs": [
        {
          "name": "",
          "type": "bool"
        }
      ],
      "payable": false,
      "stateMutability": "nonpayable",
      "type": "function"
    },
    {
      "constant": true,
      "inputs": [],
      "name": "totalSupply",
      "outputs": [
        {
          "name": "",
          "type": "uint256"
        }
      ],
      "payable": false,
      "stateMutability": "view",
      "type": "function"
    },
    {
      "constant": false,
      "inputs": [
        {
          "name": "from",
          "type": "address"
        },
        {
          "name": "to",
          "type": "address"
        },
        {
          "name": "value",
          "type": "uint256"
        }
      ],
      "name": "transferFrom",
      "outputs": [
        {
          "name": "",
          "type": "bool"
        }
      ],
      "payable": false,
      "stateMutability": "nonpayable",
      "type": "function"
    },
    {
      "constant": false,
      "inputs": [
        {
          "name": "_share",
          "type": "uint256"
        }
      ],
      "name": "modifyFeeShare",
      "outputs": [],
      "payable": false,
      "stateMutability": "nonpayable",
      "type": "function"
    },
    {
      "constant": true,
      "inputs": [],
      "name": "DECIMALS",
      "outputs": [
        {
          "name": "",
          "type": "uint256"
        }
      ],
      "payable": false,
      "stateMutability": "view",
      "type": "function"
    },
    {
      "constant": false,
      "inputs": [
        {
          "name": "account",
          "type": "address"
        }
      ],
      "name": "removeMinter",
      "outputs": [],
      "payable": false,
      "stateMutability": "nonpayable",
      "type": "function"
    },
    {
      "constant": true,
      "inputs": [],
      "name": "decimals",
      "outputs": [
        {
          "name": "",
          "type": "uint256"
        }
      ],
      "payable": false,
      "stateMutability": "view",
      "type": "function"
    },
    {
      "constant": true,
      "inputs": [],
      "name": "cap",
      "outputs": [
        {
          "name": "",
          "type": "uint256"
        }
      ],
      "payable": false,
      "stateMutability": "view",
      "type": "function"
    },
    {
      "constant": true,
      "inputs": [],
      "name": "xactionFeeNumerator",
      "outputs": [
        {
          "name": "",
          "type": "uint256"
        }
      ],
      "payable": false,
      "stateMutability": "view",
      "type": "function"
    },
    {
      "constant": false,
      "inputs": [
        {
          "name": "spender",
          "type": "address"
        },
        {
          "name": "addedValue",
          "type": "uint256"
        }
      ],
      "name": "increaseAllowance",
      "outputs": [
        {
          "name": "success",
          "type": "bool"
        }
      ],
      "payable": false,
      "stateMutability": "nonpayable",
      "type": "function"
    },
    {
      "constant": true,
      "inputs": [
        {
          "name": "account",
          "type": "address"
        }
      ],
      "name": "isCapper",
      "outputs": [
        {
          "name": "",
          "type": "bool"
        }
      ],
      "payable": false,
      "stateMutability": "view",
      "type": "function"
    },
    {
      "constant": false,
      "inputs": [],
      "name": "unpause",
      "outputs": [],
      "payable": false,
      "stateMutability": "nonpayable",
      "type": "function"
    },
    {
      "constant": true,
      "inputs": [
        {
          "name": "account",
          "type": "address"
        }
      ],
      "name": "isPauser",
      "outputs": [
        {
          "name": "",
          "type": "bool"
        }
      ],
      "payable": false,
      "stateMutability": "view",
      "type": "function"
    },
    {
      "constant": false,
      "inputs": [
        {
          "name": "newCap",
          "type": "uint256"
        }
      ],
      "name": "setCap",
      "outputs": [],
      "payable": false,
      "stateMutability": "nonpayable",
      "type": "function"
    },
    {
      "constant": true,
      "inputs": [],
      "name": "paused",
      "outputs": [
        {
          "name": "",
          "type": "bool"
        }
      ],
      "payable": false,
      "stateMutability": "view",
      "type": "function"
    },
    {
      "constant": false,
      "inputs": [],
      "name": "renounceCapper",
      "outputs": [],
      "payable": false,
      "stateMutability": "nonpayable",
      "type": "function"
    },
    {
      "constant": true,
      "inputs": [],
      "name": "WAD",
      "outputs": [
        {
          "name": "",
          "type": "uint256"
        }
      ],
      "payable": false,
      "stateMutability": "view",
      "type": "function"
    },
    {
      "constant": true,
      "inputs": [
        {
          "name": "someAddr",
          "type": "address"
        }
      ],
      "name": "isDepot",
      "outputs": [
        {
          "name": "",
          "type": "bool"
        }
      ],
      "payable": false,
      "stateMutability": "view",
      "type": "function"
    },
    {
      "constant": false,
      "inputs": [],
      "name": "renouncePauser",
      "outputs": [],
      "payable": false,
      "stateMutability": "nonpayable",
      "type": "function"
    },
    {
      "constant": true,
      "inputs": [
        {
          "name": "owner",
          "type": "address"
        }
      ],
      "name": "balanceOf",
      "outputs": [
        {
          "name": "",
          "type": "uint256"
        }
      ],
      "payable": false,
      "stateMutability": "view",
      "type": "function"
    },
    {
      "constant": false,
      "inputs": [],
      "name": "renounceOwnership",
      "outputs": [],
      "payable": false,
      "stateMutability": "nonpayable",
      "type": "function"
    },
    {
      "constant": false,
      "inputs": [
        {
          "name": "account",
          "type": "address"
        }
      ],
      "name": "addPauser",
      "outputs": [],
      "payable": false,
      "stateMutability": "nonpayable",
      "type": "function"
    },
    {
      "constant": false,
      "inputs": [],
      "name": "pause",
      "outputs": [],
      "payable": false,
      "stateMutability": "nonpayable",
      "type": "function"
    },
    {
      "constant": true,
      "inputs": [],
      "name": "owner",
      "outputs": [
        {
          "name": "",
          "type": "address"
        }
      ],
      "payable": false,
      "stateMutability": "view",
      "type": "function"
    },
    {
      "constant": false,
      "inputs": [
        {
          "name": "account",
          "type": "address"
        }
      ],
      "name": "addCapper",
      "outputs": [],
      "payable": false,
      "stateMutability": "nonpayable",
      "type": "function"
    },
    {
      "constant": true,
      "inputs": [],
      "name": "isOwner",
      "outputs": [
        {
          "name": "",
          "type": "bool"
        }
      ],
      "payable": false,
      "stateMutability": "view",
      "type": "function"
    },
    {
      "constant": true,
      "inputs": [],
      "name": "DENOMINATOR",
      "outputs": [
        {
          "name": "",
          "type": "uint256"
        }
      ],
      "payable": false,
      "stateMutability": "view",
      "type": "function"
    },
    {
      "constant": true,
      "inputs": [],
      "name": "symbol",
      "outputs": [
        {
          "name": "",
          "type": "string"
        }
      ],
      "payable": false,
      "stateMutability": "view",
      "type": "function"
    },
    {
      "constant": false,
      "inputs": [
        {
          "name": "account",
          "type": "address"
        }
      ],
      "name": "addMinter",
      "outputs": [],
      "payable": false,
      "stateMutability": "nonpayable",
      "type": "function"
    },
    {
      "constant": false,
      "inputs": [],
      "name": "renounceMinter",
      "outputs": [],
      "payable": false,
      "stateMutability": "nonpayable",
      "type": "function"
    },
    {
      "constant": false,
      "inputs": [
        {
          "name": "depot",
          "type": "address"
        }
      ],
      "name": "removeDepot",
      "outputs": [],
      "payable": false,
      "stateMutability": "nonpayable",
      "type": "function"
    },
    {
      "constant": false,
      "inputs": [
        {
          "name": "spender",
          "type": "address"
        },
        {
          "name": "subtractedValue",
          "type": "uint256"
        }
      ],
      "name": "decreaseAllowance",
      "outputs": [
        {
          "name": "success",
          "type": "bool"
        }
      ],
      "payable": false,
      "stateMutability": "nonpayable",
      "type": "function"
    },
    {
      "constant": false,
      "inputs": [
        {
          "name": "to",
          "type": "address"
        },
        {
          "name": "value",
          "type": "uint256"
        }
      ],
      "name": "transfer",
      "outputs": [
        {
          "name": "",
          "type": "bool"
        }
      ],
      "payable": false,
      "stateMutability": "nonpayable",
      "type": "function"
    },
    {
      "constant": true,
      "inputs": [
        {
          "name": "account",
          "type": "address"
        }
      ],
      "name": "isMinter",
      "outputs": [
        {
          "name": "",
          "type": "bool"
        }
      ],
      "payable": false,
      "stateMutability": "view",
      "type": "function"
    },
    {
      "constant": true,
      "inputs": [],
      "name": "onlyMinterMock",
      "outputs": [],
      "payable": false,
      "stateMutability": "view",
      "type": "function"
    },
    {
      "constant": false,
      "inputs": [
        {
          "name": "depot",
          "type": "address"
        }
      ],
      "name": "addDepot",
      "outputs": [],
      "payable": false,
      "stateMutability": "nonpayable",
      "type": "function"
    },
    {
      "constant": true,
      "inputs": [],
      "name": "xactionFeeShare",
      "outputs": [
        {
          "name": "",
          "type": "uint256"
        }
      ],
      "payable": false,
      "stateMutability": "view",
      "type": "function"
    },
    {
      "constant": true,
      "inputs": [
        {
          "name": "owner",
          "type": "address"
        },
        {
          "name": "spender",
          "type": "address"
        }
      ],
      "name": "allowance",
      "outputs": [
        {
          "name": "",
          "type": "uint256"
        }
      ],
      "payable": false,
      "stateMutability": "view",
      "type": "function"
    },
    {
      "constant": false,
      "inputs": [
        {
          "name": "newOwner",
          "type": "address"
        }
      ],
      "name": "transferOwnership",
      "outputs": [],
      "payable": false,
      "stateMutability": "nonpayable",
      "type": "function"
    },
    {
      "inputs": [
        {
          "name": "initialAccount",
          "type": "address"
        },
        {
          "name": "initialBalance",
          "type": "uint256"
        }
      ],
      "payable": false,
      "stateMutability": "nonpayable",
      "type": "constructor"
    },
    {
      "anonymous": false,
      "inputs": [
        {
          "indexed": false,
          "name": "newFee",
          "type": "uint256"
        }
      ],
      "name": "ModifyTransFeeCalled",
      "type": "event"
    },
    {
      "anonymous": false,
      "inputs": [
        {
          "indexed": false,
          "name": "newShare",
          "type": "uint256"
        }
      ],
      "name": "ModifyFeeShareCalled",
      "type": "event"
    },
    {
      "anonymous": false,
      "inputs": [
        {
          "indexed": true,
          "name": "account",
          "type": "address"
        }
      ],
      "name": "MinterAdded",
      "type": "event"
    },
    {
      "anonymous": false,
      "inputs": [
        {
          "indexed": true,
          "name": "account",
          "type": "address"
        }
      ],
      "name": "MinterRemoved",
      "type": "event"
    },
    {
      "anonymous": false,
      "inputs": [
        {
          "indexed": false,
          "name": "account",
          "type": "address"
        }
      ],
      "name": "Paused",
      "type": "event"
    },
    {
      "anonymous": false,
      "inputs": [
        {
          "indexed": false,
          "name": "account",
          "type": "address"
        }
      ],
      "name": "Unpaused",
      "type": "event"
    },
    {
      "anonymous": false,
      "inputs": [
        {
          "indexed": true,
          "name": "account",
          "type": "address"
        }
      ],
      "name": "PauserAdded",
      "type": "event"
    },
    {
      "anonymous": false,
      "inputs": [
        {
          "indexed": true,
          "name": "account",
          "type": "address"
        }
      ],
      "name": "PauserRemoved",
      "type": "event"
    },
    {
      "anonymous": false,
      "inputs": [
        {
          "indexed": true,
          "name": "from",
          "type": "address"
        },
        {
          "indexed": true,
          "name": "to",
          "type": "address"
        },
        {
          "indexed": false,
          "name": "value",
          "type": "uint256"
        }
      ],
      "name": "Transfer",
      "type": "event"
    },
    {
      "anonymous": false,
      "inputs": [
        {
          "indexed": true,
          "name": "owner",
          "type": "address"
        },
        {
          "indexed": true,
          "name": "spender",
          "type": "address"
        },
        {
          "indexed": false,
          "name": "value",
          "type": "uint256"
        }
      ],
      "name": "Approval",
      "type": "event"
    },
    {
      "anonymous": false,
      "inputs": [
        {
          "indexed": true,
          "name": "account",
          "type": "address"
        }
      ],
      "name": "CapperAdded",
      "type": "event"
    },
    {
      "anonymous": false,
      "inputs": [
        {
          "indexed": true,
          "name": "account",
          "type": "address"
        }
      ],
      "name": "CapperRemoved",
      "type": "event"
    },
    {
      "anonymous": false,
      "inputs": [
        {
          "indexed": true,
          "name": "previousOwner",
          "type": "address"
        },
        {
          "indexed": true,
          "name": "newOwner",
          "type": "address"
        }
      ],
      "name": "OwnershipTransferred",
      "type": "event"
    },
    {
      "constant": false,
      "inputs": [
        {
          "name": "to",
          "type": "address"
        },
        {
          "name": "amount",
          "type": "uint256"
        }
      ],
      "name": "mint",
      "outputs": [
        {
          "name": "",
          "type": "bool"
        }
      ],
      "payable": false,
      "stateMutability": "nonpayable",
      "type": "function"
    }
  ],
  "bytecode": "0x60806040523480156200001157600080fd5b50604051604080620036bd83398101806040528101908080519060200190929190805190602001909291905050506200006360028262000579640100000000026200171c179091906401000000009004565b6064610bb8338380336000806101000a81548173ffffffffffffffffffffffffffffffffffffffff021916908373ffffffffffffffffffffffffffffffffffffffff1602179055506000809054906101000a900473ffffffffffffffffffffffffffffffffffffffff1673ffffffffffffffffffffffffffffffffffffffff16600073ffffffffffffffffffffffffffffffffffffffff167f8be0079c531659141344cd1fd0a4f28419497f9722a3daafe3b4186f6b6457e060405160405180910390a36200014133620005bb640100000000026401000000009004565b6200015b3362000625640100000000026401000000009004565b6000600760006101000a81548160ff02191690831515021790555062000190336200068f640100000000026401000000009004565b60008111151562000209576040517f08c379a00000000000000000000000000000000000000000000000000000000081526004018080602001828103825260128152602001807f4361702063616e6e6f74206265207a65726f000000000000000000000000000081525060200191505060405180910390fd5b806009819055505060008273ffffffffffffffffffffffffffffffffffffffff1614151515620002a1576040517f08c379a00000000000000000000000000000000000000000000000000000000081526004018080602001828103825260168152602001807f70726f706f736564206f776e6572206973206e756c6c0000000000000000000081525060200191505060405180910390fd5b8173ffffffffffffffffffffffffffffffffffffffff163373ffffffffffffffffffffffffffffffffffffffff161415156200033557620002f682620006f964010000000002620016fd176401000000009004565b62000315826200073b64010000000002620013d8176401000000009004565b62000334826200077e64010000000002620012df176401000000009004565b5b5050600083111515620003d6576040517f08c379a00000000000000000000000000000000000000000000000000000000081526004018080602001828103825260258152602001807f696e697469616c20737570706c79206d7573742062652067726561746572207481526020017f68616e203000000000000000000000000000000000000000000000000000000081525060400191505060405180910390fd5b6000821115156200044f576040517f08c379a000000000000000000000000000000000000000000000000000000000815260040180806020018281038252601f8152602001807f666565206d756c7469706c696572206d757374206265206e6f6e2d7a65726f0081525060200191505060405180910390fd5b6040805190810160405280600481526020017f5545545200000000000000000000000000000000000000000000000000000000815250600a90805190602001906200049c92919062000b35565b50606060405190810160405280603581526020017f556e6976657273616c204576616e67656c69737420546f6b656e202d2062792081526020017f526f636b20537461626c6520546f6b656e20496e630000000000000000000000815250600c90805190602001906200051192919062000b35565b506012600b8190555081600d8190555080600e819055505050506200054a82620007c1640100000000026200161d176401000000009004565b151562000571576200057082620007ee64010000000002620014f3176401000000009004565b5b505062000be4565b6000806000841415620005905760009150620005b4565b8284029050828482811515620005a257fe5b04141515620005b057600080fd5b8091505b5092915050565b620005df8160016200083164010000000002620028ad179091906401000000009004565b8073ffffffffffffffffffffffffffffffffffffffff167fa7555c95b69d4f5cc847881feb4ab2883a1921319e34fa2043747b793d65b36e60405160405180910390a250565b620006498160066200083164010000000002620028ad179091906401000000009004565b8073ffffffffffffffffffffffffffffffffffffffff167f6719d08c1888103bea251a4ed56406bd0c3e69723c8a1686e017e7bbe159b6f860405160405180910390a250565b620006b38160086200083164010000000002620028ad179091906401000000009004565b8073ffffffffffffffffffffffffffffffffffffffff167f6ae172837ea30b801fbfcdd4108aa1d5bf8ff775444fd70256b44e6bf3dfc3f660405160405180910390a250565b62000712620008f4640100000000026401000000009004565b15156200071e57600080fd5b62000738816200094b640100000000026401000000009004565b50565b620007553362000a46640100000000026401000000009004565b15156200076157600080fd5b6200077b81620005bb640100000000026401000000009004565b50565b620007983362000a73640100000000026401000000009004565b1515620007a457600080fd5b620007be8162000625640100000000026401000000009004565b50565b6000620007e782600862000aa06401000000000262001c7c179091906401000000009004565b9050919050565b6200080833620007c1640100000000026401000000009004565b15156200081457600080fd5b6200082e816200068f640100000000026401000000009004565b50565b600073ffffffffffffffffffffffffffffffffffffffff168173ffffffffffffffffffffffffffffffffffffffff16141515156200086e57600080fd5b62000889828262000aa0640100000000026401000000009004565b1515156200089657600080fd5b60018260000160008373ffffffffffffffffffffffffffffffffffffffff1673ffffffffffffffffffffffffffffffffffffffff16815260200190815260200160002060006101000a81548160ff0219169083151502179055505050565b60008060009054906101000a900473ffffffffffffffffffffffffffffffffffffffff1673ffffffffffffffffffffffffffffffffffffffff163373ffffffffffffffffffffffffffffffffffffffff1614905090565b600073ffffffffffffffffffffffffffffffffffffffff168173ffffffffffffffffffffffffffffffffffffffff16141515156200098857600080fd5b8073ffffffffffffffffffffffffffffffffffffffff166000809054906101000a900473ffffffffffffffffffffffffffffffffffffffff1673ffffffffffffffffffffffffffffffffffffffff167f8be0079c531659141344cd1fd0a4f28419497f9722a3daafe3b4186f6b6457e060405160405180910390a3806000806101000a81548173ffffffffffffffffffffffffffffffffffffffff021916908373ffffffffffffffffffffffffffffffffffffffff16021790555050565b600062000a6c82600162000aa06401000000000262001c7c179091906401000000009004565b9050919050565b600062000a9982600662000aa06401000000000262001c7c179091906401000000009004565b9050919050565b60008073ffffffffffffffffffffffffffffffffffffffff168273ffffffffffffffffffffffffffffffffffffffff161415151562000ade57600080fd5b8260000160008373ffffffffffffffffffffffffffffffffffffffff1673ffffffffffffffffffffffffffffffffffffffff16815260200190815260200160002060009054906101000a900460ff16905092915050565b828054600181600116156101000203166002900490600052602060002090601f016020900481019282601f1062000b7857805160ff191683800117855562000ba9565b8280016001018555821562000ba9579182015b8281111562000ba857825182559160200191906001019062000b8b565b5b50905062000bb8919062000bbc565b5090565b62000be191905b8082111562000bdd57600081600090555060010162000bc3565b5090565b90565b612ac98062000bf46000396000f300608060405260043610610204576000357c0100000000000000000000000000000000000000000000000000000000900463ffffffff1680630465832e1461020957806306fdde0314610236578063095ea7b3146102c657806318160ddd1461032b57806323b872dd1461035657806329c71c1b146103db5780632e0f2625146104085780633092afd514610433578063313ce56714610476578063355274ea146104a157806336a9f2f7146104cc57806339509351146104f7578063395645611461055c5780633f4ba83a146105b757806340c10f19146105ce57806346fbf68e1461063357806347786d371461068e5780635c975abb146106bb5780635d5576f8146106ea5780636a146024146107015780636b3b2cf91461072c5780636ef8d66d1461078757806370a082311461079e578063715018a6146107f557806382dc1ec41461080c5780638456cb591461084f5780638da5cb5b146108665780638dfbcf36146108bd5780638f32d59b14610900578063918f86741461092f57806395d89b411461095a578063983b2d56146109ea5780639865027514610a2d57806399396ace14610a44578063a457c2d714610a87578063a9059cbb14610aec578063aa271e1a14610b51578063b5dba35b14610bac578063bb318c4214610bc3578063c6117d3714610c06578063dd62ed3e14610c31578063f2fde38b14610ca8575b600080fd5b34801561021557600080fd5b5061023460048036038101908080359060200190929190505050610ceb565b005b34801561024257600080fd5b5061024b610df1565b6040518080602001828103825283818151815260200191508051906020019080838360005b8381101561028b578082015181840152602081019050610270565b50505050905090810190601f1680156102b85780820380516001836020036101000a031916815260200191505b509250505060405180910390f35b3480156102d257600080fd5b50610311600480360381019080803573ffffffffffffffffffffffffffffffffffffffff16906020019092919080359060200190929190505050610e8f565b604051808215151515815260200191505060405180910390f35b34801561033757600080fd5b50610340610ebf565b6040518082815260200191505060405180910390f35b34801561036257600080fd5b506103c1600480360381019080803573ffffffffffffffffffffffffffffffffffffffff169060200190929190803573ffffffffffffffffffffffffffffffffffffffff16906020019092919080359060200190929190505050610ec9565b604051808215151515815260200191505060405180910390f35b3480156103e757600080fd5b5061040660048036038101908080359060200190929190505050610efb565b005b34801561041457600080fd5b5061041d611001565b6040518082815260200191505060405180910390f35b34801561043f57600080fd5b50610474600480360381019080803573ffffffffffffffffffffffffffffffffffffffff169060200190929190505050611006565b005b34801561048257600080fd5b5061048b611012565b6040518082815260200191505060405180910390f35b3480156104ad57600080fd5b506104b6611018565b6040518082815260200191505060405180910390f35b3480156104d857600080fd5b506104e1611022565b6040518082815260200191505060405180910390f35b34801561050357600080fd5b50610542600480360381019080803573ffffffffffffffffffffffffffffffffffffffff16906020019092919080359060200190929190505050611028565b604051808215151515815260200191505060405180910390f35b34801561056857600080fd5b5061059d600480360381019080803573ffffffffffffffffffffffffffffffffffffffff169060200190929190505050611058565b604051808215151515815260200191505060405180910390f35b3480156105c357600080fd5b506105cc611075565b005b3480156105da57600080fd5b50610619600480360381019080803573ffffffffffffffffffffffffffffffffffffffff16906020019092919080359060200190929190505050611124565b604051808215151515815260200191505060405180910390f35b34801561063f57600080fd5b50610674600480360381019080803573ffffffffffffffffffffffffffffffffffffffff169060200190929190505050611140565b604051808215151515815260200191505060405180910390f35b34801561069a57600080fd5b506106b96004803603810190808035906020019092919050505061115d565b005b3480156106c757600080fd5b506106d061117d565b604051808215151515815260200191505060405180910390f35b3480156106f657600080fd5b506106ff611194565b005b34801561070d57600080fd5b5061071661119f565b6040518082815260200191505060405180910390f35b34801561073857600080fd5b5061076d600480360381019080803573ffffffffffffffffffffffffffffffffffffffff1690602001909291905050506111a7565b604051808215151515815260200191505060405180910390f35b34801561079357600080fd5b5061079c6111b9565b005b3480156107aa57600080fd5b506107df600480360381019080803573ffffffffffffffffffffffffffffffffffffffff1690602001909291905050506111c4565b6040518082815260200191505060405180910390f35b34801561080157600080fd5b5061080a61120d565b005b34801561081857600080fd5b5061084d600480360381019080803573ffffffffffffffffffffffffffffffffffffffff1690602001909291905050506112df565b005b34801561085b57600080fd5b506108646112ff565b005b34801561087257600080fd5b5061087b6113af565b604051808273ffffffffffffffffffffffffffffffffffffffff1673ffffffffffffffffffffffffffffffffffffffff16815260200191505060405180910390f35b3480156108c957600080fd5b506108fe600480360381019080803573ffffffffffffffffffffffffffffffffffffffff1690602001909291905050506113d8565b005b34801561090c57600080fd5b506109156113f8565b604051808215151515815260200191505060405180910390f35b34801561093b57600080fd5b5061094461144f565b6040518082815260200191505060405180910390f35b34801561096657600080fd5b5061096f611455565b6040518080602001828103825283818151815260200191508051906020019080838360005b838110156109af578082015181840152602081019050610994565b50505050905090810190601f1680156109dc5780820380516001836020036101000a031916815260200191505b509250505060405180910390f35b3480156109f657600080fd5b50610a2b600480360381019080803573ffffffffffffffffffffffffffffffffffffffff1690602001909291905050506114f3565b005b348015610a3957600080fd5b50610a42611513565b005b348015610a5057600080fd5b50610a85600480360381019080803573ffffffffffffffffffffffffffffffffffffffff16906020019092919050505061151e565b005b348015610a9357600080fd5b50610ad2600480360381019080803573ffffffffffffffffffffffffffffffffffffffff169060200190929190803590602001909291905050506115bd565b604051808215151515815260200191505060405180910390f35b348015610af857600080fd5b50610b37600480360381019080803573ffffffffffffffffffffffffffffffffffffffff169060200190929190803590602001909291905050506115ed565b604051808215151515815260200191505060405180910390f35b348015610b5d57600080fd5b50610b92600480360381019080803573ffffffffffffffffffffffffffffffffffffffff16906020019092919050505061161d565b604051808215151515815260200191505060405180910390f35b348015610bb857600080fd5b50610bc161163a565b005b348015610bcf57600080fd5b50610c04600480360381019080803573ffffffffffffffffffffffffffffffffffffffff169060200190929190505050611650565b005b348015610c1257600080fd5b50610c1b611670565b6040518082815260200191505060405180910390f35b348015610c3d57600080fd5b50610c92600480360381019080803573ffffffffffffffffffffffffffffffffffffffff169060200190929190803573ffffffffffffffffffffffffffffffffffffffff169060200190929190505050611676565b6040518082815260200191505060405180910390f35b348015610cb457600080fd5b50610ce9600480360381019080803573ffffffffffffffffffffffffffffffffffffffff1690602001909291905050506116fd565b005b610cf36113f8565b1515610cfe57600080fd5b610d1260048261171c90919063ffffffff16565b612710111515610db0576040517f08c379a000000000000000000000000000000000000000000000000000000000815260040180806020018281038252602f8152602001807f63616e6e6f74206d6f64696679207472616e73616374696f6e2066656520746f81526020017f206d6f7265207468616e20302e3235000000000000000000000000000000000081525060400191505060405180910390fd5b80600d819055507f89c8aa3d17ece8bbdd09fea5e6c512786ff98211bc3e694f1fe9226cb1c0c2a4816040518082815260200191505060405180910390a150565b600c8054600181600116156101000203166002900480601f016020809104026020016040519081016040528092919081815260200182805460018160011615610100020316600290048015610e875780601f10610e5c57610100808354040283529160200191610e87565b820191906000526020600020905b815481529060010190602001808311610e6a57829003601f168201915b505050505081565b6000600760009054906101000a900460ff16151515610ead57600080fd5b610eb7838361175a565b905092915050565b6000600554905090565b6000600760009054906101000a900460ff16151515610ee757600080fd5b610ef2848484611887565b90509392505050565b610f036113f8565b1515610f0e57600080fd5b610f2260038261171c90919063ffffffff16565b612710111515610fc0576040517f08c379a00000000000000000000000000000000000000000000000000000000081526004018080602001828103825260268152602001807f52535449207368617265206d757374206265206c657373207468616e206f6e6581526020017f2d7468697264000000000000000000000000000000000000000000000000000081525060400191505060405180910390fd5b80600e819055507f866076dfb2d5facff41b41ac7d82b720b5307b543b2299105b580d1d8e33113f816040518082815260200191505060405180910390a150565b601281565b61100f81611a39565b50565b600b5481565b6000600954905090565b600d5481565b6000600760009054906101000a900460ff1615151561104657600080fd5b6110508383611a45565b905092915050565b600061106e826001611c7c90919063ffffffff16565b9050919050565b61107e33611140565b151561108957600080fd5b600760009054906101000a900460ff1615156110a457600080fd5b6000600760006101000a81548160ff0219169083151502179055507f5db9ee0a495bf2e6ff9c91a7834c1ba4fdd244a5e8aa4e537bd38aeae4b073aa33604051808273ffffffffffffffffffffffffffffffffffffffff1673ffffffffffffffffffffffffffffffffffffffff16815260200191505060405180910390a1565b600061112f83611650565b6111398383611d10565b5092915050565b6000611156826006611c7c90919063ffffffff16565b9050919050565b61116633611058565b151561117157600080fd5b61117a81611e4a565b50565b6000600760009054906101000a900460ff16905090565b61119d33611e5f565b565b6012600a0a81565b60006111b282611eb9565b9050919050565b6111c233611f0f565b565b6000600360008373ffffffffffffffffffffffffffffffffffffffff1673ffffffffffffffffffffffffffffffffffffffff168152602001908152602001600020549050919050565b6112156113f8565b151561122057600080fd5b600073ffffffffffffffffffffffffffffffffffffffff166000809054906101000a900473ffffffffffffffffffffffffffffffffffffffff1673ffffffffffffffffffffffffffffffffffffffff167f8be0079c531659141344cd1fd0a4f28419497f9722a3daafe3b4186f6b6457e060405160405180910390a360008060006101000a81548173ffffffffffffffffffffffffffffffffffffffff021916908373ffffffffffffffffffffffffffffffffffffffff160217905550565b6112e833611140565b15156112f357600080fd5b6112fc81611f69565b50565b61130833611140565b151561131357600080fd5b600760009054906101000a900460ff1615151561132f57600080fd5b6001600760006101000a81548160ff0219169083151502179055507f62e78cea01bee320cd4e420270b5ea74000d11b0c9f74754ebdbfc544b05a25833604051808273ffffffffffffffffffffffffffffffffffffffff1673ffffffffffffffffffffffffffffffffffffffff16815260200191505060405180910390a1565b60008060009054906101000a900473ffffffffffffffffffffffffffffffffffffffff16905090565b6113e133611058565b15156113ec57600080fd5b6113f581611fc3565b50565b60008060009054906101000a900473ffffffffffffffffffffffffffffffffffffffff1673ffffffffffffffffffffffffffffffffffffffff163373ffffffffffffffffffffffffffffffffffffffff1614905090565b61271081565b600a8054600181600116156101000203166002900480601f0160208091040260200160405190810160405280929190818152602001828054600181600116156101000203166002900480156114eb5780601f106114c0576101008083540402835291602001916114eb565b820191906000526020600020905b8154815290600101906020018083116114ce57829003601f168201915b505050505081565b6114fc3361161d565b151561150757600080fd5b6115108161201d565b50565b61151c33611a39565b565b61152733611058565b151561153257600080fd5b8061153c81611eb9565b15156115b0576040517f08c379a00000000000000000000000000000000000000000000000000000000081526004018080602001828103825260138152602001807f6e6f742061206465706f7420616464726573730000000000000000000000000081525060200191505060405180910390fd5b6115b982612077565b5050565b6000600760009054906101000a900460ff161515156115db57600080fd5b6115e583836120d2565b905092915050565b6000600760009054906101000a900460ff1615151561160b57600080fd5b6116158383612309565b905092915050565b6000611633826008611c7c90919063ffffffff16565b9050919050565b6116433361161d565b151561164e57600080fd5b565b61165933611058565b151561166457600080fd5b61166d81612320565b50565b600e5481565b6000600460008473ffffffffffffffffffffffffffffffffffffffff1673ffffffffffffffffffffffffffffffffffffffff16815260200190815260200160002060008373ffffffffffffffffffffffffffffffffffffffff1673ffffffffffffffffffffffffffffffffffffffff16815260200190815260200160002054905092915050565b6117056113f8565b151561171057600080fd5b61171981612420565b50565b60008060008414156117315760009150611753565b828402905082848281151561174257fe5b0414151561174f57600080fd5b8091505b5092915050565b60008073ffffffffffffffffffffffffffffffffffffffff168373ffffffffffffffffffffffffffffffffffffffff161415151561179757600080fd5b81600460003373ffffffffffffffffffffffffffffffffffffffff1673ffffffffffffffffffffffffffffffffffffffff16815260200190815260200160002060008573ffffffffffffffffffffffffffffffffffffffff1673ffffffffffffffffffffffffffffffffffffffff168152602001908152602001600020819055508273ffffffffffffffffffffffffffffffffffffffff163373ffffffffffffffffffffffffffffffffffffffff167f8c5be1e5ebec7d5bd14f71427d1e84f3dd0314c0f7b2291e5b200ac8c7c3b925846040518082815260200191505060405180910390a36001905092915050565b6000600460008573ffffffffffffffffffffffffffffffffffffffff1673ffffffffffffffffffffffffffffffffffffffff16815260200190815260200160002060003373ffffffffffffffffffffffffffffffffffffffff1673ffffffffffffffffffffffffffffffffffffffff16815260200190815260200160002054821115151561191457600080fd5b6119a382600460008773ffffffffffffffffffffffffffffffffffffffff1673ffffffffffffffffffffffffffffffffffffffff16815260200190815260200160002060003373ffffffffffffffffffffffffffffffffffffffff1673ffffffffffffffffffffffffffffffffffffffff1681526020019081526020016000205461251a90919063ffffffff16565b600460008673ffffffffffffffffffffffffffffffffffffffff1673ffffffffffffffffffffffffffffffffffffffff16815260200190815260200160002060003373ffffffffffffffffffffffffffffffffffffffff1673ffffffffffffffffffffffffffffffffffffffff16815260200190815260200160002081905550611a2e84848461253b565b600190509392505050565b611a4281612759565b50565b60008073ffffffffffffffffffffffffffffffffffffffff168373ffffffffffffffffffffffffffffffffffffffff1614151515611a8257600080fd5b611b1182600460003373ffffffffffffffffffffffffffffffffffffffff1673ffffffffffffffffffffffffffffffffffffffff16815260200190815260200160002060008673ffffffffffffffffffffffffffffffffffffffff1673ffffffffffffffffffffffffffffffffffffffff168152602001908152602001600020546127b390919063ffffffff16565b600460003373ffffffffffffffffffffffffffffffffffffffff1673ffffffffffffffffffffffffffffffffffffffff16815260200190815260200160002060008573ffffffffffffffffffffffffffffffffffffffff1673ffffffffffffffffffffffffffffffffffffffff168152602001908152602001600020819055508273ffffffffffffffffffffffffffffffffffffffff163373ffffffffffffffffffffffffffffffffffffffff167f8c5be1e5ebec7d5bd14f71427d1e84f3dd0314c0f7b2291e5b200ac8c7c3b925600460003373ffffffffffffffffffffffffffffffffffffffff1673ffffffffffffffffffffffffffffffffffffffff16815260200190815260200160002060008773ffffffffffffffffffffffffffffffffffffffff1673ffffffffffffffffffffffffffffffffffffffff168152602001908152602001600020546040518082815260200191505060405180910390a36001905092915050565b60008073ffffffffffffffffffffffffffffffffffffffff168273ffffffffffffffffffffffffffffffffffffffff1614151515611cb957600080fd5b8260000160008373ffffffffffffffffffffffffffffffffffffffff1673ffffffffffffffffffffffffffffffffffffffff16815260200190815260200160002060009054906101000a900460ff16905092915050565b6000611d1b3361161d565b1515611d2657600080fd5b82611d3081611eb9565b1515611da4576040517f08c379a00000000000000000000000000000000000000000000000000000000081526004018080602001828103825260138152602001807f6e6f742061206465706f7420616464726573730000000000000000000000000081525060200191505060405180910390fd5b600954611dc184611db3610ebf565b6127b390919063ffffffff16565b11151515611e37576040517f08c379a00000000000000000000000000000000000000000000000000000000081526004018080602001828103825260198152602001807f6d696e742076616c7565206c696d69742065786365656465640000000000000081525060200191505060405180910390fd5b611e4184846127d4565b91505092915050565b600954811115611e5c57806009819055505b50565b611e738160016127fe90919063ffffffff16565b8073ffffffffffffffffffffffffffffffffffffffff167f427400d279c506df610224b22ecce89b693fc1865864113f21c8d19c1f0c2a3b60405160405180910390a250565b6000600260008373ffffffffffffffffffffffffffffffffffffffff1673ffffffffffffffffffffffffffffffffffffffff16815260200190815260200160002060009054906101000a900460ff169050919050565b611f238160066127fe90919063ffffffff16565b8073ffffffffffffffffffffffffffffffffffffffff167fcd265ebaf09df2871cc7bd4133404a235ba12eff2041bb89d9c714a2621c7c7e60405160405180910390a250565b611f7d8160066128ad90919063ffffffff16565b8073ffffffffffffffffffffffffffffffffffffffff167f6719d08c1888103bea251a4ed56406bd0c3e69723c8a1686e017e7bbe159b6f860405160405180910390a250565b611fd78160016128ad90919063ffffffff16565b8073ffffffffffffffffffffffffffffffffffffffff167fa7555c95b69d4f5cc847881feb4ab2883a1921319e34fa2043747b793d65b36e60405160405180910390a250565b6120318160086128ad90919063ffffffff16565b8073ffffffffffffffffffffffffffffffffffffffff167f6ae172837ea30b801fbfcdd4108aa1d5bf8ff775444fd70256b44e6bf3dfc3f660405160405180910390a250565b6000600260008373ffffffffffffffffffffffffffffffffffffffff1673ffffffffffffffffffffffffffffffffffffffff16815260200190815260200160002060006101000a81548160ff02191690831515021790555050565b60008073ffffffffffffffffffffffffffffffffffffffff168373ffffffffffffffffffffffffffffffffffffffff161415151561210f57600080fd5b61219e82600460003373ffffffffffffffffffffffffffffffffffffffff1673ffffffffffffffffffffffffffffffffffffffff16815260200190815260200160002060008673ffffffffffffffffffffffffffffffffffffffff1673ffffffffffffffffffffffffffffffffffffffff1681526020019081526020016000205461251a90919063ffffffff16565b600460003373ffffffffffffffffffffffffffffffffffffffff1673ffffffffffffffffffffffffffffffffffffffff16815260200190815260200160002060008573ffffffffffffffffffffffffffffffffffffffff1673ffffffffffffffffffffffffffffffffffffffff168152602001908152602001600020819055508273ffffffffffffffffffffffffffffffffffffffff163373ffffffffffffffffffffffffffffffffffffffff167f8c5be1e5ebec7d5bd14f71427d1e84f3dd0314c0f7b2291e5b200ac8c7c3b925600460003373ffffffffffffffffffffffffffffffffffffffff1673ffffffffffffffffffffffffffffffffffffffff16815260200190815260200160002060008773ffffffffffffffffffffffffffffffffffffffff1673ffffffffffffffffffffffffffffffffffffffff168152602001908152602001600020546040518082815260200191505060405180910390a36001905092915050565b600061231633848461253b565b6001905092915050565b600073ffffffffffffffffffffffffffffffffffffffff168173ffffffffffffffffffffffffffffffffffffffff16141515156123c5576040517f08c379a00000000000000000000000000000000000000000000000000000000081526004018080602001828103825260148152602001807f6465706f742063616e6e6f74206265206e756c6c00000000000000000000000081525060200191505060405180910390fd5b6001600260008373ffffffffffffffffffffffffffffffffffffffff1673ffffffffffffffffffffffffffffffffffffffff16815260200190815260200160002060006101000a81548160ff02191690831515021790555050565b600073ffffffffffffffffffffffffffffffffffffffff168173ffffffffffffffffffffffffffffffffffffffff161415151561245c57600080fd5b8073ffffffffffffffffffffffffffffffffffffffff166000809054906101000a900473ffffffffffffffffffffffffffffffffffffffff1673ffffffffffffffffffffffffffffffffffffffff167f8be0079c531659141344cd1fd0a4f28419497f9722a3daafe3b4186f6b6457e060405160405180910390a3806000806101000a81548173ffffffffffffffffffffffffffffffffffffffff021916908373ffffffffffffffffffffffffffffffffffffffff16021790555050565b60008083831115151561252c57600080fd5b82840390508091505092915050565b600360008473ffffffffffffffffffffffffffffffffffffffff1673ffffffffffffffffffffffffffffffffffffffff16815260200190815260200160002054811115151561258957600080fd5b600073ffffffffffffffffffffffffffffffffffffffff168273ffffffffffffffffffffffffffffffffffffffff16141515156125c557600080fd5b61261781600360008673ffffffffffffffffffffffffffffffffffffffff1673ffffffffffffffffffffffffffffffffffffffff1681526020019081526020016000205461251a90919063ffffffff16565b600360008573ffffffffffffffffffffffffffffffffffffffff1673ffffffffffffffffffffffffffffffffffffffff168152602001908152602001600020819055506126ac81600360008573ffffffffffffffffffffffffffffffffffffffff1673ffffffffffffffffffffffffffffffffffffffff168152602001908152602001600020546127b390919063ffffffff16565b600360008473ffffffffffffffffffffffffffffffffffffffff1673ffffffffffffffffffffffffffffffffffffffff168152602001908152602001600020819055508173ffffffffffffffffffffffffffffffffffffffff168373ffffffffffffffffffffffffffffffffffffffff167fddf252ad1be2c89b69c2b068fc378daa952ba7f163c4a11628f55a4df523b3ef836040518082815260200191505060405180910390a3505050565b61276d8160086127fe90919063ffffffff16565b8073ffffffffffffffffffffffffffffffffffffffff167fe94479a9f7e1952cc78f2d6baab678adc1b772d936c6583def489e524cb6669260405160405180910390a250565b60008082840190508381101515156127ca57600080fd5b8091505092915050565b60006127df3361161d565b15156127ea57600080fd5b6127f4838361295d565b6001905092915050565b600073ffffffffffffffffffffffffffffffffffffffff168173ffffffffffffffffffffffffffffffffffffffff161415151561283a57600080fd5b6128448282611c7c565b151561284f57600080fd5b60008260000160008373ffffffffffffffffffffffffffffffffffffffff1673ffffffffffffffffffffffffffffffffffffffff16815260200190815260200160002060006101000a81548160ff0219169083151502179055505050565b600073ffffffffffffffffffffffffffffffffffffffff168173ffffffffffffffffffffffffffffffffffffffff16141515156128e957600080fd5b6128f38282611c7c565b1515156128ff57600080fd5b60018260000160008373ffffffffffffffffffffffffffffffffffffffff1673ffffffffffffffffffffffffffffffffffffffff16815260200190815260200160002060006101000a81548160ff0219169083151502179055505050565b60008273ffffffffffffffffffffffffffffffffffffffff161415151561298357600080fd5b612998816005546127b390919063ffffffff16565b6005819055506129f081600360008573ffffffffffffffffffffffffffffffffffffffff1673ffffffffffffffffffffffffffffffffffffffff168152602001908152602001600020546127b390919063ffffffff16565b600360008473ffffffffffffffffffffffffffffffffffffffff1673ffffffffffffffffffffffffffffffffffffffff168152602001908152602001600020819055508173ffffffffffffffffffffffffffffffffffffffff16600073ffffffffffffffffffffffffffffffffffffffff167fddf252ad1be2c89b69c2b068fc378daa952ba7f163c4a11628f55a4df523b3ef836040518082815260200191505060405180910390a350505600a165627a7a723058209eca9b6b2ccc7a7fb3d20cb7cc2f85a73d0e05216734a825baee760c7bd5d99e0029",
  "source": "pragma solidity ^0.4.24;\n\nimport \"../universaltoken.sol\";\nimport \"./MinterRoleMock.sol\";\n\ncontract MintableUniversalTokenMock is MinterRoleMock, UniversalToken {\n\n  constructor(address initialAccount, uint256 initialBalance)\n      public\n      UniversalToken(initialBalance.mul(2), 100, 3000)\n  {\n    // super.transferOwnership(initialAccount);\n    if (!super.isMinter(initialAccount)) super.addMinter(initialAccount);\n    // super.addDepot(initialAccount);\n    // super.mint(initialAccount, initialBalance);\n  }\n\n  function mint(address to, uint256 amount) public returns (bool) {\n    super.addDepot(to);\n    super.mint(to, amount);\n  }\n\n}\n",
  "sourcePath": "C:\\Users\\ctapa\\source\\payment-system-contracts\\contracts\\mocks\\MintableUniversalTokenMock.sol",
  "compiler": {
    "name": "solc",
    "version": "0.4.24+commit.e67f0147.Emscripten.clang"
  },
  "schemaVersion": "3.2.0",
  "updatedAt": "2020-05-31T01:54:38.515Z",
  "devdoc": {
    "methods": {
      "allowance(address,address)": {
        "details": "Function to check the amount of tokens that an owner allowed to a spender.",
        "params": {
          "owner": "address The address which owns the funds.",
          "spender": "address The address which will spend the funds."
        },
        "return": "A uint256 specifying the amount of tokens still available for the spender."
      },
      "balanceOf(address)": {
        "details": "Gets the balance of the specified address.",
        "params": {
          "owner": "The address to query the balance of."
        },
        "return": "An uint256 representing the amount owned by the passed address."
      },
      "cap()": {
        "return": "the cap for the token minting."
      },
      "isOwner()": {
        "return": "true if `msg.sender` is the owner of the contract."
      },
      "owner()": {
        "return": "the address of the owner."
      },
      "pause()": {
        "details": "called by the owner to pause, triggers stopped state"
      },
      "paused()": {
        "return": "true if the contract is paused, false otherwise."
      },
      "renounceOwnership()": {
        "details": "Allows the current owner to relinquish control of the contract."
      },
      "totalSupply()": {
        "details": "Total number of tokens in existence"
      },
      "transferOwnership(address)": {
        "details": "Allows the current owner to transfer control of the contract to a newOwner.",
        "params": {
          "newOwner": "The address to transfer ownership to."
        }
      },
      "unpause()": {
        "details": "called by the owner to unpause, returns to normal state"
      }
    }
  },
  "userdoc": {
    "methods": {
      "renounceOwnership()": {
        "notice": "Renouncing to ownership will leave the contract without an owner. It will not be possible to call the functions with the `onlyOwner` modifier anymore."
      }
    }
  }
}