{
  "contractName": "PausableLocalTokenMock",
  "abi": [
    {
      "constant": true,
      "inputs": [],
      "name": "name",
      "outputs": [
        {
          "name": "",
          "type": "string"
        }
      ],
      "payable": false,
      "stateMutability": "view",
      "type": "function"
    },
    {
      "constant": false,
      "inputs": [
        {
          "name": "spender",
          "type": "address"
        },
        {
          "name": "value",
          "type": "uint256"
        }
      ],
      "name": "approve",
      "outputs": [
        {
          "name": "",
          "type": "bool"
        }
      ],
      "payable": false,
      "stateMutability": "nonpayable",
      "type": "function"
    },
    {
      "constant": true,
      "inputs": [],
      "name": "totalSupply",
      "outputs": [
        {
          "name": "",
          "type": "uint256"
        }
      ],
      "payable": false,
      "stateMutability": "view",
      "type": "function"
    },
    {
      "constant": false,
      "inputs": [
        {
          "name": "from",
          "type": "address"
        },
        {
          "name": "to",
          "type": "address"
        },
        {
          "name": "value",
          "type": "uint256"
        }
      ],
      "name": "transferFrom",
      "outputs": [
        {
          "name": "",
          "type": "bool"
        }
      ],
      "payable": false,
      "stateMutability": "nonpayable",
      "type": "function"
    },
    {
      "constant": true,
      "inputs": [],
      "name": "localityCode",
      "outputs": [
        {
          "name": "",
          "type": "string"
        }
      ],
      "payable": false,
      "stateMutability": "view",
      "type": "function"
    },
    {
      "constant": true,
      "inputs": [],
      "name": "DECIMALS",
      "outputs": [
        {
          "name": "",
          "type": "uint256"
        }
      ],
      "payable": false,
      "stateMutability": "view",
      "type": "function"
    },
    {
      "constant": true,
      "inputs": [],
      "name": "decimals",
      "outputs": [
        {
          "name": "",
          "type": "uint256"
        }
      ],
      "payable": false,
      "stateMutability": "view",
      "type": "function"
    },
    {
      "constant": true,
      "inputs": [],
      "name": "onlyPauserMock",
      "outputs": [],
      "payable": false,
      "stateMutability": "view",
      "type": "function"
    },
    {
      "constant": true,
      "inputs": [],
      "name": "cap",
      "outputs": [
        {
          "name": "",
          "type": "uint256"
        }
      ],
      "payable": false,
      "stateMutability": "view",
      "type": "function"
    },
    {
      "constant": false,
      "inputs": [
        {
          "name": "spender",
          "type": "address"
        },
        {
          "name": "addedValue",
          "type": "uint256"
        }
      ],
      "name": "increaseAllowance",
      "outputs": [
        {
          "name": "success",
          "type": "bool"
        }
      ],
      "payable": false,
      "stateMutability": "nonpayable",
      "type": "function"
    },
    {
      "constant": true,
      "inputs": [
        {
          "name": "account",
          "type": "address"
        }
      ],
      "name": "isCapper",
      "outputs": [
        {
          "name": "",
          "type": "bool"
        }
      ],
      "payable": false,
      "stateMutability": "view",
      "type": "function"
    },
    {
      "constant": false,
      "inputs": [],
      "name": "unpause",
      "outputs": [],
      "payable": false,
      "stateMutability": "nonpayable",
      "type": "function"
    },
    {
      "constant": true,
      "inputs": [
        {
          "name": "account",
          "type": "address"
        }
      ],
      "name": "isPauser",
      "outputs": [
        {
          "name": "",
          "type": "bool"
        }
      ],
      "payable": false,
      "stateMutability": "view",
      "type": "function"
    },
    {
      "constant": false,
      "inputs": [
        {
          "name": "newCap",
          "type": "uint256"
        }
      ],
      "name": "setCap",
      "outputs": [],
      "payable": false,
      "stateMutability": "nonpayable",
      "type": "function"
    },
    {
      "constant": true,
      "inputs": [],
      "name": "taxRateNumerator",
      "outputs": [
        {
          "name": "",
          "type": "uint256"
        }
      ],
      "payable": false,
      "stateMutability": "view",
      "type": "function"
    },
    {
      "constant": false,
      "inputs": [
        {
          "name": "_pmt",
          "type": "address"
        }
      ],
      "name": "modifyPMTAccount",
      "outputs": [],
      "payable": false,
      "stateMutability": "nonpayable",
      "type": "function"
    },
    {
      "constant": true,
      "inputs": [],
      "name": "paused",
      "outputs": [
        {
          "name": "",
          "type": "bool"
        }
      ],
      "payable": false,
      "stateMutability": "view",
      "type": "function"
    },
    {
      "constant": false,
      "inputs": [],
      "name": "renounceCapper",
      "outputs": [],
      "payable": false,
      "stateMutability": "nonpayable",
      "type": "function"
    },
    {
      "constant": true,
      "inputs": [],
      "name": "WAD",
      "outputs": [
        {
          "name": "",
          "type": "uint256"
        }
      ],
      "payable": false,
      "stateMutability": "view",
      "type": "function"
    },
    {
      "constant": false,
      "inputs": [
        {
          "name": "account",
          "type": "address"
        }
      ],
      "name": "removePauser",
      "outputs": [],
      "payable": false,
      "stateMutability": "nonpayable",
      "type": "function"
    },
    {
      "constant": true,
      "inputs": [
        {
          "name": "someAddr",
          "type": "address"
        }
      ],
      "name": "isDepot",
      "outputs": [
        {
          "name": "",
          "type": "bool"
        }
      ],
      "payable": false,
      "stateMutability": "view",
      "type": "function"
    },
    {
      "constant": true,
      "inputs": [],
      "name": "govtAccount",
      "outputs": [
        {
          "name": "",
          "type": "address"
        }
      ],
      "payable": false,
      "stateMutability": "view",
      "type": "function"
    },
    {
      "constant": false,
      "inputs": [],
      "name": "renouncePauser",
      "outputs": [],
      "payable": false,
      "stateMutability": "nonpayable",
      "type": "function"
    },
    {
      "constant": true,
      "inputs": [
        {
          "name": "owner",
          "type": "address"
        }
      ],
      "name": "balanceOf",
      "outputs": [
        {
          "name": "",
          "type": "uint256"
        }
      ],
      "payable": false,
      "stateMutability": "view",
      "type": "function"
    },
    {
      "constant": false,
      "inputs": [],
      "name": "renounceOwnership",
      "outputs": [],
      "payable": false,
      "stateMutability": "nonpayable",
      "type": "function"
    },
    {
      "constant": false,
      "inputs": [
        {
          "name": "_taxMult",
          "type": "uint256"
        }
      ],
      "name": "modifyTaxRate",
      "outputs": [],
      "payable": false,
      "stateMutability": "nonpayable",
      "type": "function"
    },
    {
      "constant": false,
      "inputs": [
        {
          "name": "account",
          "type": "address"
        }
      ],
      "name": "addPauser",
      "outputs": [],
      "payable": false,
      "stateMutability": "nonpayable",
      "type": "function"
    },
    {
      "constant": false,
      "inputs": [],
      "name": "pause",
      "outputs": [],
      "payable": false,
      "stateMutability": "nonpayable",
      "type": "function"
    },
    {
      "constant": true,
      "inputs": [],
      "name": "owner",
      "outputs": [
        {
          "name": "",
          "type": "address"
        }
      ],
      "payable": false,
      "stateMutability": "view",
      "type": "function"
    },
    {
      "constant": false,
      "inputs": [
        {
          "name": "account",
          "type": "address"
        }
      ],
      "name": "addCapper",
      "outputs": [],
      "payable": false,
      "stateMutability": "nonpayable",
      "type": "function"
    },
    {
      "constant": true,
      "inputs": [],
      "name": "isOwner",
      "outputs": [
        {
          "name": "",
          "type": "bool"
        }
      ],
      "payable": false,
      "stateMutability": "view",
      "type": "function"
    },
    {
      "constant": true,
      "inputs": [],
      "name": "pmtAccount",
      "outputs": [
        {
          "name": "",
          "type": "address"
        }
      ],
      "payable": false,
      "stateMutability": "view",
      "type": "function"
    },
    {
      "constant": true,
      "inputs": [],
      "name": "DENOMINATOR",
      "outputs": [
        {
          "name": "",
          "type": "uint256"
        }
      ],
      "payable": false,
      "stateMutability": "view",
      "type": "function"
    },
    {
      "constant": true,
      "inputs": [],
      "name": "symbol",
      "outputs": [
        {
          "name": "",
          "type": "string"
        }
      ],
      "payable": false,
      "stateMutability": "view",
      "type": "function"
    },
    {
      "constant": false,
      "inputs": [
        {
          "name": "account",
          "type": "address"
        }
      ],
      "name": "addMinter",
      "outputs": [],
      "payable": false,
      "stateMutability": "nonpayable",
      "type": "function"
    },
    {
      "constant": false,
      "inputs": [],
      "name": "renounceMinter",
      "outputs": [],
      "payable": false,
      "stateMutability": "nonpayable",
      "type": "function"
    },
    {
      "constant": false,
      "inputs": [
        {
          "name": "depot",
          "type": "address"
        }
      ],
      "name": "removeDepot",
      "outputs": [],
      "payable": false,
      "stateMutability": "nonpayable",
      "type": "function"
    },
    {
      "constant": false,
      "inputs": [
        {
          "name": "spender",
          "type": "address"
        },
        {
          "name": "subtractedValue",
          "type": "uint256"
        }
      ],
      "name": "decreaseAllowance",
      "outputs": [
        {
          "name": "success",
          "type": "bool"
        }
      ],
      "payable": false,
      "stateMutability": "nonpayable",
      "type": "function"
    },
    {
      "constant": false,
      "inputs": [
        {
          "name": "to",
          "type": "address"
        },
        {
          "name": "value",
          "type": "uint256"
        }
      ],
      "name": "transfer",
      "outputs": [
        {
          "name": "",
          "type": "bool"
        }
      ],
      "payable": false,
      "stateMutability": "nonpayable",
      "type": "function"
    },
    {
      "constant": true,
      "inputs": [
        {
          "name": "account",
          "type": "address"
        }
      ],
      "name": "isMinter",
      "outputs": [
        {
          "name": "",
          "type": "bool"
        }
      ],
      "payable": false,
      "stateMutability": "view",
      "type": "function"
    },
    {
      "constant": false,
      "inputs": [
        {
          "name": "newLocality",
          "type": "string"
        }
      ],
      "name": "modifyLocality",
      "outputs": [],
      "payable": false,
      "stateMutability": "nonpayable",
      "type": "function"
    },
    {
      "constant": false,
      "inputs": [
        {
          "name": "govt",
          "type": "address"
        }
      ],
      "name": "modifyGovtAccount",
      "outputs": [],
      "payable": false,
      "stateMutability": "nonpayable",
      "type": "function"
    },
    {
      "constant": false,
      "inputs": [
        {
          "name": "depot",
          "type": "address"
        }
      ],
      "name": "addDepot",
      "outputs": [],
      "payable": false,
      "stateMutability": "nonpayable",
      "type": "function"
    },
    {
      "constant": true,
      "inputs": [
        {
          "name": "owner",
          "type": "address"
        },
        {
          "name": "spender",
          "type": "address"
        }
      ],
      "name": "allowance",
      "outputs": [
        {
          "name": "",
          "type": "uint256"
        }
      ],
      "payable": false,
      "stateMutability": "view",
      "type": "function"
    },
    {
      "constant": true,
      "inputs": [],
      "name": "universalToken",
      "outputs": [
        {
          "name": "",
          "type": "address"
        }
      ],
      "payable": false,
      "stateMutability": "view",
      "type": "function"
    },
    {
      "constant": false,
      "inputs": [
        {
          "name": "newOwner",
          "type": "address"
        }
      ],
      "name": "transferOwnership",
      "outputs": [],
      "payable": false,
      "stateMutability": "nonpayable",
      "type": "function"
    },
    {
      "inputs": [
        {
          "name": "initialAccount",
          "type": "address"
        },
        {
          "name": "initialBalance",
          "type": "uint256"
        },
        {
          "name": "uniAddr",
          "type": "address"
        }
      ],
      "payable": false,
      "stateMutability": "nonpayable",
      "type": "constructor"
    },
    {
      "anonymous": false,
      "inputs": [
        {
          "indexed": true,
          "name": "account",
          "type": "address"
        }
      ],
      "name": "MinterAdded",
      "type": "event"
    },
    {
      "anonymous": false,
      "inputs": [
        {
          "indexed": true,
          "name": "account",
          "type": "address"
        }
      ],
      "name": "MinterRemoved",
      "type": "event"
    },
    {
      "anonymous": false,
      "inputs": [
        {
          "indexed": false,
          "name": "account",
          "type": "address"
        }
      ],
      "name": "Paused",
      "type": "event"
    },
    {
      "anonymous": false,
      "inputs": [
        {
          "indexed": false,
          "name": "account",
          "type": "address"
        }
      ],
      "name": "Unpaused",
      "type": "event"
    },
    {
      "anonymous": false,
      "inputs": [
        {
          "indexed": true,
          "name": "account",
          "type": "address"
        }
      ],
      "name": "PauserAdded",
      "type": "event"
    },
    {
      "anonymous": false,
      "inputs": [
        {
          "indexed": true,
          "name": "account",
          "type": "address"
        }
      ],
      "name": "PauserRemoved",
      "type": "event"
    },
    {
      "anonymous": false,
      "inputs": [
        {
          "indexed": true,
          "name": "from",
          "type": "address"
        },
        {
          "indexed": true,
          "name": "to",
          "type": "address"
        },
        {
          "indexed": false,
          "name": "value",
          "type": "uint256"
        }
      ],
      "name": "Transfer",
      "type": "event"
    },
    {
      "anonymous": false,
      "inputs": [
        {
          "indexed": true,
          "name": "owner",
          "type": "address"
        },
        {
          "indexed": true,
          "name": "spender",
          "type": "address"
        },
        {
          "indexed": false,
          "name": "value",
          "type": "uint256"
        }
      ],
      "name": "Approval",
      "type": "event"
    },
    {
      "anonymous": false,
      "inputs": [
        {
          "indexed": true,
          "name": "account",
          "type": "address"
        }
      ],
      "name": "CapperAdded",
      "type": "event"
    },
    {
      "anonymous": false,
      "inputs": [
        {
          "indexed": true,
          "name": "account",
          "type": "address"
        }
      ],
      "name": "CapperRemoved",
      "type": "event"
    },
    {
      "anonymous": false,
      "inputs": [
        {
          "indexed": true,
          "name": "previousOwner",
          "type": "address"
        },
        {
          "indexed": true,
          "name": "newOwner",
          "type": "address"
        }
      ],
      "name": "OwnershipTransferred",
      "type": "event"
    },
    {
      "constant": false,
      "inputs": [
        {
          "name": "to",
          "type": "address"
        },
        {
          "name": "amount",
          "type": "uint256"
        }
      ],
      "name": "mint",
      "outputs": [
        {
          "name": "",
          "type": "bool"
        }
      ],
      "payable": false,
      "stateMutability": "nonpayable",
      "type": "function"
    }
  ],
  "bytecode": "0x60806040526000600e556000600f60006101000a81548173ffffffffffffffffffffffffffffffffffffffff021916908373ffffffffffffffffffffffffffffffffffffffff1602179055506000601060006101000a81548173ffffffffffffffffffffffffffffffffffffffff021916908373ffffffffffffffffffffffffffffffffffffffff1602179055503480156200009a57600080fd5b50604051606080620043a2833981018060405281019080805190602001909291908051906020019092919080519060200190929190505050620000f66002836200085c6401000000000262002367179091906401000000009004565b60006040805190810160405280600381526020017f504c5400000000000000000000000000000000000000000000000000000000008152506040805190810160405280601481526020017f5061757361626c65204c6f63616c20546f6b656e0000000000000000000000008152506040805190810160405280600a81526020017f736f6d6520706c6163650000000000000000000000000000000000000000000081525060008887338880336000806101000a81548173ffffffffffffffffffffffffffffffffffffffff021916908373ffffffffffffffffffffffffffffffffffffffff1602179055506000809054906101000a900473ffffffffffffffffffffffffffffffffffffffff1673ffffffffffffffffffffffffffffffffffffffff16600073ffffffffffffffffffffffffffffffffffffffff167f8be0079c531659141344cd1fd0a4f28419497f9722a3daafe3b4186f6b6457e060405160405180910390a362000277336200089e640100000000026401000000009004565b620002913362000908640100000000026401000000009004565b6000600760006101000a81548160ff021916908315150217905550620002c63362000972640100000000026401000000009004565b6000811115156200033f576040517f08c379a00000000000000000000000000000000000000000000000000000000081526004018080602001828103825260128152602001807f4361702063616e6e6f74206265207a65726f000000000000000000000000000081525060200191505060405180910390fd5b806009819055505060008273ffffffffffffffffffffffffffffffffffffffff1614151515620003d7576040517f08c379a00000000000000000000000000000000000000000000000000000000081526004018080602001828103825260168152602001807f70726f706f736564206f776e6572206973206e756c6c0000000000000000000081525060200191505060405180910390fd5b8173ffffffffffffffffffffffffffffffffffffffff163373ffffffffffffffffffffffffffffffffffffffff161415156200046b576200042c82620009dc6401000000000262001b93176401000000009004565b6200044b8262000a1e64010000000002620016c1176401000000009004565b6200046a8262000a6164010000000002620015c8176401000000009004565b5b505060008811801515620004e7576040517f08c379a00000000000000000000000000000000000000000000000000000000081526004018080602001828103825260118152602001807f636f6e646974696f6e206e6f74206d657400000000000000000000000000000081525060200191505060405180910390fd5b6200050b6002896200085c6401000000000262002367179091906401000000009004565b6127101180151562000585576040517f08c379a00000000000000000000000000000000000000000000000000000000081526004018080602001828103825260118152602001807f636f6e646974696f6e206e6f74206d657400000000000000000000000000000081525060200191505060405180910390fd5b600089118015620005ad575060008573ffffffffffffffffffffffffffffffffffffffff1614155b80620005b95750600089145b8015156200062f576040517f08c379a00000000000000000000000000000000000000000000000000000000081526004018080602001828103825260118152602001807f636f6e646974696f6e206e6f74206d657400000000000000000000000000000081525060200191505060405180910390fd5b60008473ffffffffffffffffffffffffffffffffffffffff161415801515620006c0576040517f08c379a00000000000000000000000000000000000000000000000000000000081526004018080602001828103825260118152602001807f636f6e646974696f6e206e6f74206d657400000000000000000000000000000081525060200191505060405180910390fd5b84601160006101000a81548173ffffffffffffffffffffffffffffffffffffffff021916908373ffffffffffffffffffffffffffffffffffffffff1602179055506012600b8190555089600a908051906020019062000721929190620012df565b5088600c90805190602001906200073a929190620012df565b5087600d908051906020019062000753929190620012df565b5086600f60006101000a81548173ffffffffffffffffffffffffffffffffffffffff021916908373ffffffffffffffffffffffffffffffffffffffff16021790555085601060006101000a81548173ffffffffffffffffffffffffffffffffffffffff021916908373ffffffffffffffffffffffffffffffffffffffff16021790555060008b1115620007e8578a600e819055505b5050505050505050505050506200081383620009dc6401000000000262001b93176401000000009004565b620008328362000aa46401000000000262001ac6176401000000009004565b62000852838362000ae7640100000000026200215c176401000000009004565b505050506200138e565b600080600084141562000873576000915062000897565b82840290508284828115156200088557fe5b041415156200089357600080fd5b8091505b5092915050565b620008c281600162000c7d6401000000000262002d43179091906401000000009004565b8073ffffffffffffffffffffffffffffffffffffffff167fa7555c95b69d4f5cc847881feb4ab2883a1921319e34fa2043747b793d65b36e60405160405180910390a250565b6200092c81600662000c7d6401000000000262002d43179091906401000000009004565b8073ffffffffffffffffffffffffffffffffffffffff167f6719d08c1888103bea251a4ed56406bd0c3e69723c8a1686e017e7bbe159b6f860405160405180910390a250565b6200099681600862000c7d6401000000000262002d43179091906401000000009004565b8073ffffffffffffffffffffffffffffffffffffffff167f6ae172837ea30b801fbfcdd4108aa1d5bf8ff775444fd70256b44e6bf3dfc3f660405160405180910390a250565b620009f562000d40640100000000026401000000009004565b151562000a0157600080fd5b62000a1b8162000d97640100000000026401000000009004565b50565b62000a383362000e92640100000000026401000000009004565b151562000a4457600080fd5b62000a5e816200089e640100000000026401000000009004565b50565b62000a7b3362000ebf640100000000026401000000009004565b151562000a8757600080fd5b62000aa18162000908640100000000026401000000009004565b50565b62000abe3362000e92640100000000026401000000009004565b151562000aca57600080fd5b62000ae48162000eec640100000000026401000000009004565b50565b600062000b033362000fed640100000000026401000000009004565b151562000b0f57600080fd5b8262000b2a816200101a640100000000026401000000009004565b151562000b9f576040517f08c379a00000000000000000000000000000000000000000000000000000000081526004018080602001828103825260138152602001807f6e6f742061206465706f7420616464726573730000000000000000000000000081525060200191505060405180910390fd5b60095462000bdd8462000bc062001070640100000000026401000000009004565b6200107a6401000000000262002bef179091906401000000009004565b1115151562000c54576040517f08c379a00000000000000000000000000000000000000000000000000000000081526004018080602001828103825260198152602001807f6d696e742076616c7565206c696d69742065786365656465640000000000000081525060200191505060405180910390fd5b62000c7484846200109c6401000000000262002c10176401000000009004565b91505092915050565b600073ffffffffffffffffffffffffffffffffffffffff168173ffffffffffffffffffffffffffffffffffffffff161415151562000cba57600080fd5b62000cd58282620010e9640100000000026401000000009004565b15151562000ce257600080fd5b60018260000160008373ffffffffffffffffffffffffffffffffffffffff1673ffffffffffffffffffffffffffffffffffffffff16815260200190815260200160002060006101000a81548160ff0219169083151502179055505050565b60008060009054906101000a900473ffffffffffffffffffffffffffffffffffffffff1673ffffffffffffffffffffffffffffffffffffffff163373ffffffffffffffffffffffffffffffffffffffff1614905090565b600073ffffffffffffffffffffffffffffffffffffffff168173ffffffffffffffffffffffffffffffffffffffff161415151562000dd457600080fd5b8073ffffffffffffffffffffffffffffffffffffffff166000809054906101000a900473ffffffffffffffffffffffffffffffffffffffff1673ffffffffffffffffffffffffffffffffffffffff167f8be0079c531659141344cd1fd0a4f28419497f9722a3daafe3b4186f6b6457e060405160405180910390a3806000806101000a81548173ffffffffffffffffffffffffffffffffffffffff021916908373ffffffffffffffffffffffffffffffffffffffff16021790555050565b600062000eb8826001620010e964010000000002620020c8179091906401000000009004565b9050919050565b600062000ee5826006620010e964010000000002620020c8179091906401000000009004565b9050919050565b600073ffffffffffffffffffffffffffffffffffffffff168173ffffffffffffffffffffffffffffffffffffffff161415151562000f92576040517f08c379a00000000000000000000000000000000000000000000000000000000081526004018080602001828103825260148152602001807f6465706f742063616e6e6f74206265206e756c6c00000000000000000000000081525060200191505060405180910390fd5b6001600260008373ffffffffffffffffffffffffffffffffffffffff1673ffffffffffffffffffffffffffffffffffffffff16815260200190815260200160002060006101000a81548160ff02191690831515021790555050565b600062001013826008620010e964010000000002620020c8179091906401000000009004565b9050919050565b6000600260008373ffffffffffffffffffffffffffffffffffffffff1673ffffffffffffffffffffffffffffffffffffffff16815260200190815260200160002060009054906101000a900460ff169050919050565b6000600554905090565b60008082840190508381101515156200109257600080fd5b8091505092915050565b6000620010b83362000fed640100000000026401000000009004565b1515620010c457600080fd5b620010df83836200117e640100000000026401000000009004565b6001905092915050565b60008073ffffffffffffffffffffffffffffffffffffffff168273ffffffffffffffffffffffffffffffffffffffff16141515156200112757600080fd5b8260000160008373ffffffffffffffffffffffffffffffffffffffff1673ffffffffffffffffffffffffffffffffffffffff16815260200190815260200160002060009054906101000a900460ff16905092915050565b60008273ffffffffffffffffffffffffffffffffffffffff1614151515620011a557600080fd5b620011ca816005546200107a6401000000000262002bef179091906401000000009004565b6005819055506200123281600360008573ffffffffffffffffffffffffffffffffffffffff1673ffffffffffffffffffffffffffffffffffffffff168152602001908152602001600020546200107a6401000000000262002bef179091906401000000009004565b600360008473ffffffffffffffffffffffffffffffffffffffff1673ffffffffffffffffffffffffffffffffffffffff168152602001908152602001600020819055508173ffffffffffffffffffffffffffffffffffffffff16600073ffffffffffffffffffffffffffffffffffffffff167fddf252ad1be2c89b69c2b068fc378daa952ba7f163c4a11628f55a4df523b3ef836040518082815260200191505060405180910390a35050565b828054600181600116156101000203166002900490600052602060002090601f016020900481019282601f106200132257805160ff191683800117855562001353565b8280016001018555821562001353579182015b828111156200135257825182559160200191906001019062001335565b5b50905062001362919062001366565b5090565b6200138b91905b80821115620013875760008160009055506001016200136d565b5090565b90565b613004806200139e6000396000f30060806040526004361061023b576000357c0100000000000000000000000000000000000000000000000000000000900463ffffffff16806306fdde0314610240578063095ea7b3146102d057806318160ddd1461033557806323b872dd1461036057806327ed31ff146103e55780632e0f262514610475578063313ce567146104a0578063329daf90146104cb578063355274ea146104e2578063395093511461050d57806339564561146105725780633f4ba83a146105cd57806340c10f19146105e457806346fbf68e1461064957806347786d37146106a4578063493fcf1c146106d157806351aa0a30146106fc5780635c975abb1461073f5780635d5576f81461076e5780636a146024146107855780636b2c0f55146107b05780636b3b2cf9146107f35780636d9cb37d1461084e5780636ef8d66d146108a557806370a08231146108bc578063715018a614610913578063744f5f1a1461092a57806382dc1ec4146109575780638456cb591461099a5780638da5cb5b146109b15780638dfbcf3614610a085780638f32d59b14610a4b5780638fa5a6e914610a7a578063918f867414610ad157806395d89b4114610afc578063983b2d5614610b8c5780639865027514610bcf57806399396ace14610be6578063a457c2d714610c29578063a9059cbb14610c8e578063aa271e1a14610cf3578063b7abf60614610d4e578063b7c8699d14610db7578063bb318c4214610dfa578063dd62ed3e14610e3d578063e99d2db414610eb4578063f2fde38b14610f0b575b600080fd5b34801561024c57600080fd5b50610255610f4e565b6040518080602001828103825283818151815260200191508051906020019080838360005b8381101561029557808201518184015260208101905061027a565b50505050905090810190601f1680156102c25780820380516001836020036101000a031916815260200191505b509250505060405180910390f35b3480156102dc57600080fd5b5061031b600480360381019080803573ffffffffffffffffffffffffffffffffffffffff16906020019092919080359060200190929190505050610fec565b604051808215151515815260200191505060405180910390f35b34801561034157600080fd5b5061034a61101c565b6040518082815260200191505060405180910390f35b34801561036c57600080fd5b506103cb600480360381019080803573ffffffffffffffffffffffffffffffffffffffff169060200190929190803573ffffffffffffffffffffffffffffffffffffffff16906020019092919080359060200190929190505050611026565b604051808215151515815260200191505060405180910390f35b3480156103f157600080fd5b506103fa611058565b6040518080602001828103825283818151815260200191508051906020019080838360005b8381101561043a57808201518184015260208101905061041f565b50505050905090810190601f1680156104675780820380516001836020036101000a031916815260200191505b509250505060405180910390f35b34801561048157600080fd5b5061048a6110f6565b6040518082815260200191505060405180910390f35b3480156104ac57600080fd5b506104b56110fb565b6040518082815260200191505060405180910390f35b3480156104d757600080fd5b506104e0611101565b005b3480156104ee57600080fd5b506104f7611117565b6040518082815260200191505060405180910390f35b34801561051957600080fd5b50610558600480360381019080803573ffffffffffffffffffffffffffffffffffffffff16906020019092919080359060200190929190505050611121565b604051808215151515815260200191505060405180910390f35b34801561057e57600080fd5b506105b3600480360381019080803573ffffffffffffffffffffffffffffffffffffffff169060200190929190505050611151565b604051808215151515815260200191505060405180910390f35b3480156105d957600080fd5b506105e261116e565b005b3480156105f057600080fd5b5061062f600480360381019080803573ffffffffffffffffffffffffffffffffffffffff1690602001909291908035906020019092919050505061121d565b604051808215151515815260200191505060405180910390f35b34801561065557600080fd5b5061068a600480360381019080803573ffffffffffffffffffffffffffffffffffffffff169060200190929190505050611239565b604051808215151515815260200191505060405180910390f35b3480156106b057600080fd5b506106cf60048036038101908080359060200190929190505050611256565b005b3480156106dd57600080fd5b506106e6611276565b6040518082815260200191505060405180910390f35b34801561070857600080fd5b5061073d600480360381019080803573ffffffffffffffffffffffffffffffffffffffff16906020019092919050505061127c565b005b34801561074b57600080fd5b50610754611388565b604051808215151515815260200191505060405180910390f35b34801561077a57600080fd5b5061078361139f565b005b34801561079157600080fd5b5061079a6113aa565b6040518082815260200191505060405180910390f35b3480156107bc57600080fd5b506107f1600480360381019080803573ffffffffffffffffffffffffffffffffffffffff1690602001909291905050506113b2565b005b3480156107ff57600080fd5b50610834600480360381019080803573ffffffffffffffffffffffffffffffffffffffff1690602001909291905050506113be565b604051808215151515815260200191505060405180910390f35b34801561085a57600080fd5b506108636113d0565b604051808273ffffffffffffffffffffffffffffffffffffffff1673ffffffffffffffffffffffffffffffffffffffff16815260200191505060405180910390f35b3480156108b157600080fd5b506108ba6113f6565b005b3480156108c857600080fd5b506108fd600480360381019080803573ffffffffffffffffffffffffffffffffffffffff169060200190929190505050611401565b6040518082815260200191505060405180910390f35b34801561091f57600080fd5b5061092861144a565b005b34801561093657600080fd5b506109556004803603810190808035906020019092919050505061151c565b005b34801561096357600080fd5b50610998600480360381019080803573ffffffffffffffffffffffffffffffffffffffff1690602001909291905050506115c8565b005b3480156109a657600080fd5b506109af6115e8565b005b3480156109bd57600080fd5b506109c6611698565b604051808273ffffffffffffffffffffffffffffffffffffffff1673ffffffffffffffffffffffffffffffffffffffff16815260200191505060405180910390f35b348015610a1457600080fd5b50610a49600480360381019080803573ffffffffffffffffffffffffffffffffffffffff1690602001909291905050506116c1565b005b348015610a5757600080fd5b50610a606116e1565b604051808215151515815260200191505060405180910390f35b348015610a8657600080fd5b50610a8f611738565b604051808273ffffffffffffffffffffffffffffffffffffffff1673ffffffffffffffffffffffffffffffffffffffff16815260200191505060405180910390f35b348015610add57600080fd5b50610ae661175e565b6040518082815260200191505060405180910390f35b348015610b0857600080fd5b50610b11611764565b6040518080602001828103825283818151815260200191508051906020019080838360005b83811015610b51578082015181840152602081019050610b36565b50505050905090810190601f168015610b7e5780820380516001836020036101000a031916815260200191505b509250505060405180910390f35b348015610b9857600080fd5b50610bcd600480360381019080803573ffffffffffffffffffffffffffffffffffffffff169060200190929190505050611802565b005b348015610bdb57600080fd5b50610be4611822565b005b348015610bf257600080fd5b50610c27600480360381019080803573ffffffffffffffffffffffffffffffffffffffff16906020019092919050505061182d565b005b348015610c3557600080fd5b50610c74600480360381019080803573ffffffffffffffffffffffffffffffffffffffff169060200190929190803590602001909291905050506118cc565b604051808215151515815260200191505060405180910390f35b348015610c9a57600080fd5b50610cd9600480360381019080803573ffffffffffffffffffffffffffffffffffffffff169060200190929190803590602001909291905050506118fc565b604051808215151515815260200191505060405180910390f35b348015610cff57600080fd5b50610d34600480360381019080803573ffffffffffffffffffffffffffffffffffffffff16906020019092919050505061192c565b604051808215151515815260200191505060405180910390f35b348015610d5a57600080fd5b50610db5600480360381019080803590602001908201803590602001908080601f0160208091040260200160405190810160405280939291908181526020018383808284378201915050505050509192919290505050611949565b005b348015610dc357600080fd5b50610df8600480360381019080803573ffffffffffffffffffffffffffffffffffffffff169060200190929190505050611977565b005b348015610e0657600080fd5b50610e3b600480360381019080803573ffffffffffffffffffffffffffffffffffffffff169060200190929190505050611ac6565b005b348015610e4957600080fd5b50610e9e600480360381019080803573ffffffffffffffffffffffffffffffffffffffff169060200190929190803573ffffffffffffffffffffffffffffffffffffffff169060200190929190505050611ae6565b6040518082815260200191505060405180910390f35b348015610ec057600080fd5b50610ec9611b6d565b604051808273ffffffffffffffffffffffffffffffffffffffff1673ffffffffffffffffffffffffffffffffffffffff16815260200191505060405180910390f35b348015610f1757600080fd5b50610f4c600480360381019080803573ffffffffffffffffffffffffffffffffffffffff169060200190929190505050611b93565b005b600c8054600181600116156101000203166002900480601f016020809104026020016040519081016040528092919081815260200182805460018160011615610100020316600290048015610fe45780601f10610fb957610100808354040283529160200191610fe4565b820191906000526020600020905b815481529060010190602001808311610fc757829003601f168201915b505050505081565b6000600760009054906101000a900460ff1615151561100a57600080fd5b6110148383611bb2565b905092915050565b6000600554905090565b6000600760009054906101000a900460ff1615151561104457600080fd5b61104f848484611cdf565b90509392505050565b600d8054600181600116156101000203166002900480601f0160208091040260200160405190810160405280929190818152602001828054600181600116156101000203166002900480156110ee5780601f106110c3576101008083540402835291602001916110ee565b820191906000526020600020905b8154815290600101906020018083116110d157829003601f168201915b505050505081565b601281565b600b5481565b61110a33611239565b151561111557600080fd5b565b6000600954905090565b6000600760009054906101000a900460ff1615151561113f57600080fd5b6111498383611e91565b905092915050565b60006111678260016120c890919063ffffffff16565b9050919050565b61117733611239565b151561118257600080fd5b600760009054906101000a900460ff16151561119d57600080fd5b6000600760006101000a81548160ff0219169083151502179055507f5db9ee0a495bf2e6ff9c91a7834c1ba4fdd244a5e8aa4e537bd38aeae4b073aa33604051808273ffffffffffffffffffffffffffffffffffffffff1673ffffffffffffffffffffffffffffffffffffffff16815260200191505060405180910390a1565b600061122883611ac6565b611232838361215c565b5092915050565b600061124f8260066120c890919063ffffffff16565b9050919050565b61125f33611151565b151561126a57600080fd5b61127381612296565b50565b600e5481565b6112846116e1565b151561128f57600080fd5b60008173ffffffffffffffffffffffffffffffffffffffff1614151515611344576040517f08c379a00000000000000000000000000000000000000000000000000000000081526004018080602001828103825260258152602001807f63616e6e6f742073657420526f636b537461626c65206164647265737320746f81526020017f207a65726f00000000000000000000000000000000000000000000000000000081525060400191505060405180910390fd5b80601060006101000a81548173ffffffffffffffffffffffffffffffffffffffff021916908373ffffffffffffffffffffffffffffffffffffffff16021790555050565b6000600760009054906101000a900460ff16905090565b6113a8336122ab565b565b6012600a0a81565b6113bb81612305565b50565b60006113c982612311565b9050919050565b600f60009054906101000a900473ffffffffffffffffffffffffffffffffffffffff1681565b6113ff33612305565b565b6000600360008373ffffffffffffffffffffffffffffffffffffffff1673ffffffffffffffffffffffffffffffffffffffff168152602001908152602001600020549050919050565b6114526116e1565b151561145d57600080fd5b600073ffffffffffffffffffffffffffffffffffffffff166000809054906101000a900473ffffffffffffffffffffffffffffffffffffffff1673ffffffffffffffffffffffffffffffffffffffff167f8be0079c531659141344cd1fd0a4f28419497f9722a3daafe3b4186f6b6457e060405160405180910390a360008060006101000a81548173ffffffffffffffffffffffffffffffffffffffff021916908373ffffffffffffffffffffffffffffffffffffffff160217905550565b6115253361192c565b151561153057600080fd5b61154460028261236790919063ffffffff16565b612710118015156115bd576040517f08c379a00000000000000000000000000000000000000000000000000000000081526004018080602001828103825260118152602001807f636f6e646974696f6e206e6f74206d657400000000000000000000000000000081525060200191505060405180910390fd5b81600e819055505050565b6115d133611239565b15156115dc57600080fd5b6115e5816123a5565b50565b6115f133611239565b15156115fc57600080fd5b600760009054906101000a900460ff1615151561161857600080fd5b6001600760006101000a81548160ff0219169083151502179055507f62e78cea01bee320cd4e420270b5ea74000d11b0c9f74754ebdbfc544b05a25833604051808273ffffffffffffffffffffffffffffffffffffffff1673ffffffffffffffffffffffffffffffffffffffff16815260200191505060405180910390a1565b60008060009054906101000a900473ffffffffffffffffffffffffffffffffffffffff16905090565b6116ca33611151565b15156116d557600080fd5b6116de816123ff565b50565b60008060009054906101000a900473ffffffffffffffffffffffffffffffffffffffff1673ffffffffffffffffffffffffffffffffffffffff163373ffffffffffffffffffffffffffffffffffffffff1614905090565b601060009054906101000a900473ffffffffffffffffffffffffffffffffffffffff1681565b61271081565b600a8054600181600116156101000203166002900480601f0160208091040260200160405190810160405280929190818152602001828054600181600116156101000203166002900480156117fa5780601f106117cf576101008083540402835291602001916117fa565b820191906000526020600020905b8154815290600101906020018083116117dd57829003601f168201915b505050505081565b61180b3361192c565b151561181657600080fd5b61181f81612459565b50565b61182b336124b3565b565b61183633611151565b151561184157600080fd5b8061184b81612311565b15156118bf576040517f08c379a00000000000000000000000000000000000000000000000000000000081526004018080602001828103825260138152602001807f6e6f742061206465706f7420616464726573730000000000000000000000000081525060200191505060405180910390fd5b6118c88261250d565b5050565b6000600760009054906101000a900460ff161515156118ea57600080fd5b6118f48383612568565b905092915050565b6000600760009054906101000a900460ff1615151561191a57600080fd5b611924838361279f565b905092915050565b60006119428260086120c890919063ffffffff16565b9050919050565b6119523361192c565b151561195d57600080fd5b80600d9080519060200190611973929190612f33565b5050565b6119803361192c565b151561198b57600080fd5b6000600e541180156119c95750600073ffffffffffffffffffffffffffffffffffffffff168173ffffffffffffffffffffffffffffffffffffffff16145b80611a0f57506000600e54148015611a0e5750600073ffffffffffffffffffffffffffffffffffffffff168173ffffffffffffffffffffffffffffffffffffffff1614155b5b15611a82576040517f08c379a000000000000000000000000000000000000000000000000000000000815260040180806020018281038252600d8152602001807f696e76616c696420696e7075740000000000000000000000000000000000000081525060200191505060405180910390fd5b80600f60006101000a81548173ffffffffffffffffffffffffffffffffffffffff021916908373ffffffffffffffffffffffffffffffffffffffff16021790555050565b611acf33611151565b1515611ada57600080fd5b611ae3816127b6565b50565b6000600460008473ffffffffffffffffffffffffffffffffffffffff1673ffffffffffffffffffffffffffffffffffffffff16815260200190815260200160002060008373ffffffffffffffffffffffffffffffffffffffff1673ffffffffffffffffffffffffffffffffffffffff16815260200190815260200160002054905092915050565b601160009054906101000a900473ffffffffffffffffffffffffffffffffffffffff1681565b611b9b6116e1565b1515611ba657600080fd5b611baf816128b6565b50565b60008073ffffffffffffffffffffffffffffffffffffffff168373ffffffffffffffffffffffffffffffffffffffff1614151515611bef57600080fd5b81600460003373ffffffffffffffffffffffffffffffffffffffff1673ffffffffffffffffffffffffffffffffffffffff16815260200190815260200160002060008573ffffffffffffffffffffffffffffffffffffffff1673ffffffffffffffffffffffffffffffffffffffff168152602001908152602001600020819055508273ffffffffffffffffffffffffffffffffffffffff163373ffffffffffffffffffffffffffffffffffffffff167f8c5be1e5ebec7d5bd14f71427d1e84f3dd0314c0f7b2291e5b200ac8c7c3b925846040518082815260200191505060405180910390a36001905092915050565b6000600460008573ffffffffffffffffffffffffffffffffffffffff1673ffffffffffffffffffffffffffffffffffffffff16815260200190815260200160002060003373ffffffffffffffffffffffffffffffffffffffff1673ffffffffffffffffffffffffffffffffffffffff168152602001908152602001600020548211151515611d6c57600080fd5b611dfb82600460008773ffffffffffffffffffffffffffffffffffffffff1673ffffffffffffffffffffffffffffffffffffffff16815260200190815260200160002060003373ffffffffffffffffffffffffffffffffffffffff1673ffffffffffffffffffffffffffffffffffffffff168152602001908152602001600020546129b090919063ffffffff16565b600460008673ffffffffffffffffffffffffffffffffffffffff1673ffffffffffffffffffffffffffffffffffffffff16815260200190815260200160002060003373ffffffffffffffffffffffffffffffffffffffff1673ffffffffffffffffffffffffffffffffffffffff16815260200190815260200160002081905550611e868484846129d1565b600190509392505050565b60008073ffffffffffffffffffffffffffffffffffffffff168373ffffffffffffffffffffffffffffffffffffffff1614151515611ece57600080fd5b611f5d82600460003373ffffffffffffffffffffffffffffffffffffffff1673ffffffffffffffffffffffffffffffffffffffff16815260200190815260200160002060008673ffffffffffffffffffffffffffffffffffffffff1673ffffffffffffffffffffffffffffffffffffffff16815260200190815260200160002054612bef90919063ffffffff16565b600460003373ffffffffffffffffffffffffffffffffffffffff1673ffffffffffffffffffffffffffffffffffffffff16815260200190815260200160002060008573ffffffffffffffffffffffffffffffffffffffff1673ffffffffffffffffffffffffffffffffffffffff168152602001908152602001600020819055508273ffffffffffffffffffffffffffffffffffffffff163373ffffffffffffffffffffffffffffffffffffffff167f8c5be1e5ebec7d5bd14f71427d1e84f3dd0314c0f7b2291e5b200ac8c7c3b925600460003373ffffffffffffffffffffffffffffffffffffffff1673ffffffffffffffffffffffffffffffffffffffff16815260200190815260200160002060008773ffffffffffffffffffffffffffffffffffffffff1673ffffffffffffffffffffffffffffffffffffffff168152602001908152602001600020546040518082815260200191505060405180910390a36001905092915050565b60008073ffffffffffffffffffffffffffffffffffffffff168273ffffffffffffffffffffffffffffffffffffffff161415151561210557600080fd5b8260000160008373ffffffffffffffffffffffffffffffffffffffff1673ffffffffffffffffffffffffffffffffffffffff16815260200190815260200160002060009054906101000a900460ff16905092915050565b60006121673361192c565b151561217257600080fd5b8261217c81612311565b15156121f0576040517f08c379a00000000000000000000000000000000000000000000000000000000081526004018080602001828103825260138152602001807f6e6f742061206465706f7420616464726573730000000000000000000000000081525060200191505060405180910390fd5b60095461220d846121ff61101c565b612bef90919063ffffffff16565b11151515612283576040517f08c379a00000000000000000000000000000000000000000000000000000000081526004018080602001828103825260198152602001807f6d696e742076616c7565206c696d69742065786365656465640000000000000081525060200191505060405180910390fd5b61228d8484612c10565b91505092915050565b6009548111156122a857806009819055505b50565b6122bf816001612c3a90919063ffffffff16565b8073ffffffffffffffffffffffffffffffffffffffff167f427400d279c506df610224b22ecce89b693fc1865864113f21c8d19c1f0c2a3b60405160405180910390a250565b61230e81612ce9565b50565b6000600260008373ffffffffffffffffffffffffffffffffffffffff1673ffffffffffffffffffffffffffffffffffffffff16815260200190815260200160002060009054906101000a900460ff169050919050565b600080600084141561237c576000915061239e565b828402905082848281151561238d57fe5b0414151561239a57600080fd5b8091505b5092915050565b6123b9816006612d4390919063ffffffff16565b8073ffffffffffffffffffffffffffffffffffffffff167f6719d08c1888103bea251a4ed56406bd0c3e69723c8a1686e017e7bbe159b6f860405160405180910390a250565b612413816001612d4390919063ffffffff16565b8073ffffffffffffffffffffffffffffffffffffffff167fa7555c95b69d4f5cc847881feb4ab2883a1921319e34fa2043747b793d65b36e60405160405180910390a250565b61246d816008612d4390919063ffffffff16565b8073ffffffffffffffffffffffffffffffffffffffff167f6ae172837ea30b801fbfcdd4108aa1d5bf8ff775444fd70256b44e6bf3dfc3f660405160405180910390a250565b6124c7816008612c3a90919063ffffffff16565b8073ffffffffffffffffffffffffffffffffffffffff167fe94479a9f7e1952cc78f2d6baab678adc1b772d936c6583def489e524cb6669260405160405180910390a250565b6000600260008373ffffffffffffffffffffffffffffffffffffffff1673ffffffffffffffffffffffffffffffffffffffff16815260200190815260200160002060006101000a81548160ff02191690831515021790555050565b60008073ffffffffffffffffffffffffffffffffffffffff168373ffffffffffffffffffffffffffffffffffffffff16141515156125a557600080fd5b61263482600460003373ffffffffffffffffffffffffffffffffffffffff1673ffffffffffffffffffffffffffffffffffffffff16815260200190815260200160002060008673ffffffffffffffffffffffffffffffffffffffff1673ffffffffffffffffffffffffffffffffffffffff168152602001908152602001600020546129b090919063ffffffff16565b600460003373ffffffffffffffffffffffffffffffffffffffff1673ffffffffffffffffffffffffffffffffffffffff16815260200190815260200160002060008573ffffffffffffffffffffffffffffffffffffffff1673ffffffffffffffffffffffffffffffffffffffff168152602001908152602001600020819055508273ffffffffffffffffffffffffffffffffffffffff163373ffffffffffffffffffffffffffffffffffffffff167f8c5be1e5ebec7d5bd14f71427d1e84f3dd0314c0f7b2291e5b200ac8c7c3b925600460003373ffffffffffffffffffffffffffffffffffffffff1673ffffffffffffffffffffffffffffffffffffffff16815260200190815260200160002060008773ffffffffffffffffffffffffffffffffffffffff1673ffffffffffffffffffffffffffffffffffffffff168152602001908152602001600020546040518082815260200191505060405180910390a36001905092915050565b60006127ac3384846129d1565b6001905092915050565b600073ffffffffffffffffffffffffffffffffffffffff168173ffffffffffffffffffffffffffffffffffffffff161415151561285b576040517f08c379a00000000000000000000000000000000000000000000000000000000081526004018080602001828103825260148152602001807f6465706f742063616e6e6f74206265206e756c6c00000000000000000000000081525060200191505060405180910390fd5b6001600260008373ffffffffffffffffffffffffffffffffffffffff1673ffffffffffffffffffffffffffffffffffffffff16815260200190815260200160002060006101000a81548160ff02191690831515021790555050565b600073ffffffffffffffffffffffffffffffffffffffff168173ffffffffffffffffffffffffffffffffffffffff16141515156128f257600080fd5b8073ffffffffffffffffffffffffffffffffffffffff166000809054906101000a900473ffffffffffffffffffffffffffffffffffffffff1673ffffffffffffffffffffffffffffffffffffffff167f8be0079c531659141344cd1fd0a4f28419497f9722a3daafe3b4186f6b6457e060405160405180910390a3806000806101000a81548173ffffffffffffffffffffffffffffffffffffffff021916908373ffffffffffffffffffffffffffffffffffffffff16021790555050565b6000808383111515156129c257600080fd5b82840390508091505092915050565b600360008473ffffffffffffffffffffffffffffffffffffffff1673ffffffffffffffffffffffffffffffffffffffff168152602001908152602001600020548111151515612a1f57600080fd5b600073ffffffffffffffffffffffffffffffffffffffff168273ffffffffffffffffffffffffffffffffffffffff1614151515612a5b57600080fd5b612aad81600360008673ffffffffffffffffffffffffffffffffffffffff1673ffffffffffffffffffffffffffffffffffffffff168152602001908152602001600020546129b090919063ffffffff16565b600360008573ffffffffffffffffffffffffffffffffffffffff1673ffffffffffffffffffffffffffffffffffffffff16815260200190815260200160002081905550612b4281600360008573ffffffffffffffffffffffffffffffffffffffff1673ffffffffffffffffffffffffffffffffffffffff16815260200190815260200160002054612bef90919063ffffffff16565b600360008473ffffffffffffffffffffffffffffffffffffffff1673ffffffffffffffffffffffffffffffffffffffff168152602001908152602001600020819055508173ffffffffffffffffffffffffffffffffffffffff168373ffffffffffffffffffffffffffffffffffffffff167fddf252ad1be2c89b69c2b068fc378daa952ba7f163c4a11628f55a4df523b3ef836040518082815260200191505060405180910390a3505050565b6000808284019050838110151515612c0657600080fd5b8091505092915050565b6000612c1b3361192c565b1515612c2657600080fd5b612c308383612df3565b6001905092915050565b600073ffffffffffffffffffffffffffffffffffffffff168173ffffffffffffffffffffffffffffffffffffffff1614151515612c7657600080fd5b612c8082826120c8565b1515612c8b57600080fd5b60008260000160008373ffffffffffffffffffffffffffffffffffffffff1673ffffffffffffffffffffffffffffffffffffffff16815260200190815260200160002060006101000a81548160ff0219169083151502179055505050565b612cfd816006612c3a90919063ffffffff16565b8073ffffffffffffffffffffffffffffffffffffffff167fcd265ebaf09df2871cc7bd4133404a235ba12eff2041bb89d9c714a2621c7c7e60405160405180910390a250565b600073ffffffffffffffffffffffffffffffffffffffff168173ffffffffffffffffffffffffffffffffffffffff1614151515612d7f57600080fd5b612d8982826120c8565b151515612d9557600080fd5b60018260000160008373ffffffffffffffffffffffffffffffffffffffff1673ffffffffffffffffffffffffffffffffffffffff16815260200190815260200160002060006101000a81548160ff0219169083151502179055505050565b60008273ffffffffffffffffffffffffffffffffffffffff1614151515612e1957600080fd5b612e2e81600554612bef90919063ffffffff16565b600581905550612e8681600360008573ffffffffffffffffffffffffffffffffffffffff1673ffffffffffffffffffffffffffffffffffffffff16815260200190815260200160002054612bef90919063ffffffff16565b600360008473ffffffffffffffffffffffffffffffffffffffff1673ffffffffffffffffffffffffffffffffffffffff168152602001908152602001600020819055508173ffffffffffffffffffffffffffffffffffffffff16600073ffffffffffffffffffffffffffffffffffffffff167fddf252ad1be2c89b69c2b068fc378daa952ba7f163c4a11628f55a4df523b3ef836040518082815260200191505060405180910390a35050565b828054600181600116156101000203166002900490600052602060002090601f016020900481019282601f10612f7457805160ff1916838001178555612fa2565b82800160010185558215612fa2579182015b82811115612fa1578251825591602001919060010190612f86565b5b509050612faf9190612fb3565b5090565b612fd591905b80821115612fd1576000816000905550600101612fb9565b5090565b905600a165627a7a72305820594d06ce6c7457be080c7c24eb57f251f36f8c8b06264574dee2dca52b5687d10029",
  "source": "pragma solidity ^0.4.24;\n\nimport \"../LocalToken.sol\";\nimport \"../mocks/PauserRoleMock.sol\";\nimport \"openzeppelin-solidity/contracts/math/SafeMath.sol\";\n\n// use address of old universal token as last parameter\ncontract PausableLocalTokenMock is LocalToken, PauserRoleMock {\n  using SafeMath for uint256;\n\n  constructor(address initialAccount, uint256 initialBalance, address uniAddr)\n      public\n      LocalToken(initialBalance.mul(2), 0, 'PLT', 'Pausable Local Token', 'some place', 0, initialAccount, uniAddr)\n  {\n    super.transferOwnership(initialAccount);\n    super.addDepot(initialAccount);\n    super.mint(initialAccount, initialBalance);\n  }\n\n  function mint(address to, uint256 amount) public returns (bool) {\n    super.addDepot(to);\n    super.mint(to, amount);\n  }\n\n}\n",
  "sourcePath": "C:\\Users\\ctapa\\source\\payment-system-contracts\\contracts\\mocks\\PausableLocalTokenMock.sol",
  "compiler": {
    "name": "solc",
    "version": "0.4.24+commit.e67f0147.Emscripten.clang"
  },
  "schemaVersion": "3.2.0",
  "updatedAt": "2020-05-31T01:54:38.530Z",
  "devdoc": {
    "methods": {
      "allowance(address,address)": {
        "details": "Function to check the amount of tokens that an owner allowed to a spender.",
        "params": {
          "owner": "address The address which owns the funds.",
          "spender": "address The address which will spend the funds."
        },
        "return": "A uint256 specifying the amount of tokens still available for the spender."
      },
      "balanceOf(address)": {
        "details": "Gets the balance of the specified address.",
        "params": {
          "owner": "The address to query the balance of."
        },
        "return": "An uint256 representing the amount owned by the passed address."
      },
      "cap()": {
        "return": "the cap for the token minting."
      },
      "isOwner()": {
        "return": "true if `msg.sender` is the owner of the contract."
      },
      "owner()": {
        "return": "the address of the owner."
      },
      "pause()": {
        "details": "called by the owner to pause, triggers stopped state"
      },
      "paused()": {
        "return": "true if the contract is paused, false otherwise."
      },
      "renounceOwnership()": {
        "details": "Allows the current owner to relinquish control of the contract."
      },
      "totalSupply()": {
        "details": "Total number of tokens in existence"
      },
      "transferOwnership(address)": {
        "details": "Allows the current owner to transfer control of the contract to a newOwner.",
        "params": {
          "newOwner": "The address to transfer ownership to."
        }
      },
      "unpause()": {
        "details": "called by the owner to unpause, returns to normal state"
      }
    }
  },
  "userdoc": {
    "methods": {
      "renounceOwnership()": {
        "notice": "Renouncing to ownership will leave the contract without an owner. It will not be possible to call the functions with the `onlyOwner` modifier anymore."
      }
    }
  }
}