{
  "contractName": "Payment2",
  "abi": [
    {
      "constant": true,
      "inputs": [],
      "name": "txFeeFactor",
      "outputs": [
        {
          "name": "",
          "type": "uint256"
        }
      ],
      "payable": false,
      "stateMutability": "view",
      "type": "function"
    },
    {
      "constant": true,
      "inputs": [],
      "name": "payTax",
      "outputs": [
        {
          "name": "",
          "type": "bool"
        }
      ],
      "payable": false,
      "stateMutability": "view",
      "type": "function"
    },
    {
      "constant": true,
      "inputs": [],
      "name": "DECIMALS",
      "outputs": [
        {
          "name": "",
          "type": "uint256"
        }
      ],
      "payable": false,
      "stateMutability": "view",
      "type": "function"
    },
    {
      "constant": true,
      "inputs": [],
      "name": "WAD",
      "outputs": [
        {
          "name": "",
          "type": "uint256"
        }
      ],
      "payable": false,
      "stateMutability": "view",
      "type": "function"
    },
    {
      "constant": true,
      "inputs": [],
      "name": "govtAccount",
      "outputs": [
        {
          "name": "",
          "type": "address"
        }
      ],
      "payable": false,
      "stateMutability": "view",
      "type": "function"
    },
    {
      "constant": false,
      "inputs": [],
      "name": "renounceOwnership",
      "outputs": [],
      "payable": false,
      "stateMutability": "nonpayable",
      "type": "function"
    },
    {
      "constant": true,
      "inputs": [],
      "name": "taxRate",
      "outputs": [
        {
          "name": "",
          "type": "uint256"
        }
      ],
      "payable": false,
      "stateMutability": "view",
      "type": "function"
    },
    {
      "constant": true,
      "inputs": [],
      "name": "localToken",
      "outputs": [
        {
          "name": "",
          "type": "address"
        }
      ],
      "payable": false,
      "stateMutability": "view",
      "type": "function"
    },
    {
      "constant": true,
      "inputs": [],
      "name": "owner",
      "outputs": [
        {
          "name": "",
          "type": "address"
        }
      ],
      "payable": false,
      "stateMutability": "view",
      "type": "function"
    },
    {
      "constant": true,
      "inputs": [],
      "name": "isOwner",
      "outputs": [
        {
          "name": "",
          "type": "bool"
        }
      ],
      "payable": false,
      "stateMutability": "view",
      "type": "function"
    },
    {
      "constant": true,
      "inputs": [],
      "name": "pmtAccount",
      "outputs": [
        {
          "name": "",
          "type": "address"
        }
      ],
      "payable": false,
      "stateMutability": "view",
      "type": "function"
    },
    {
      "constant": true,
      "inputs": [],
      "name": "DENOMINATOR",
      "outputs": [
        {
          "name": "",
          "type": "uint256"
        }
      ],
      "payable": false,
      "stateMutability": "view",
      "type": "function"
    },
    {
      "constant": true,
      "inputs": [],
      "name": "feeRate",
      "outputs": [
        {
          "name": "",
          "type": "uint256"
        }
      ],
      "payable": false,
      "stateMutability": "view",
      "type": "function"
    },
    {
      "constant": true,
      "inputs": [],
      "name": "pmtShare",
      "outputs": [
        {
          "name": "",
          "type": "uint256"
        }
      ],
      "payable": false,
      "stateMutability": "view",
      "type": "function"
    },
    {
      "constant": true,
      "inputs": [],
      "name": "evangelist",
      "outputs": [
        {
          "name": "",
          "type": "address"
        }
      ],
      "payable": false,
      "stateMutability": "view",
      "type": "function"
    },
    {
      "constant": false,
      "inputs": [
        {
          "name": "newOwner",
          "type": "address"
        }
      ],
      "name": "transferOwnership",
      "outputs": [],
      "payable": false,
      "stateMutability": "nonpayable",
      "type": "function"
    },
    {
      "inputs": [
        {
          "name": "_payTax",
          "type": "bool"
        },
        {
          "name": "_evangelist",
          "type": "address"
        },
        {
          "name": "_localToken",
          "type": "address"
        },
        {
          "name": "_vendor",
          "type": "address"
        },
        {
          "name": "_pmntcenter",
          "type": "address"
        }
      ],
      "payable": false,
      "stateMutability": "nonpayable",
      "type": "constructor"
    },
    {
      "payable": true,
      "stateMutability": "payable",
      "type": "fallback"
    },
    {
      "anonymous": false,
      "inputs": [
        {
          "indexed": true,
          "name": "_customerAddr",
          "type": "address"
        },
        {
          "indexed": true,
          "name": "_paymentContract",
          "type": "address"
        },
        {
          "indexed": false,
          "name": "_ethValue",
          "type": "uint256"
        },
        {
          "indexed": false,
          "name": "_roks",
          "type": "uint256"
        }
      ],
      "name": "PaymentConfirmed",
      "type": "event"
    },
    {
      "anonymous": false,
      "inputs": [
        {
          "indexed": false,
          "name": "_payTax",
          "type": "bool"
        },
        {
          "indexed": false,
          "name": "_evangelist",
          "type": "address"
        },
        {
          "indexed": false,
          "name": "_localToken",
          "type": "address"
        },
        {
          "indexed": false,
          "name": "_vendor",
          "type": "address"
        },
        {
          "indexed": false,
          "name": "_pmntCenter",
          "type": "address"
        }
      ],
      "name": "PaymentContract",
      "type": "event"
    },
    {
      "anonymous": false,
      "inputs": [
        {
          "indexed": false,
          "name": "_contract",
          "type": "address"
        }
      ],
      "name": "PaymentContractRefreshed",
      "type": "event"
    },
    {
      "anonymous": false,
      "inputs": [
        {
          "indexed": false,
          "name": "_fromEvangelist",
          "type": "address"
        },
        {
          "indexed": false,
          "name": "_toEvangelist",
          "type": "address"
        }
      ],
      "name": "VendorTransferred",
      "type": "event"
    },
    {
      "anonymous": false,
      "inputs": [
        {
          "indexed": false,
          "name": "from",
          "type": "address"
        },
        {
          "indexed": false,
          "name": "to",
          "type": "address"
        },
        {
          "indexed": false,
          "name": "value",
          "type": "uint256"
        }
      ],
      "name": "DebugEvent",
      "type": "event"
    },
    {
      "anonymous": false,
      "inputs": [
        {
          "indexed": true,
          "name": "previousOwner",
          "type": "address"
        },
        {
          "indexed": true,
          "name": "newOwner",
          "type": "address"
        }
      ],
      "name": "OwnershipTransferred",
      "type": "event"
    },
    {
      "constant": true,
      "inputs": [],
      "name": "getVendor",
      "outputs": [
        {
          "name": "",
          "type": "address"
        }
      ],
      "payable": false,
      "stateMutability": "view",
      "type": "function"
    },
    {
      "constant": true,
      "inputs": [],
      "name": "getPmtAccount",
      "outputs": [
        {
          "name": "",
          "type": "address"
        }
      ],
      "payable": false,
      "stateMutability": "view",
      "type": "function"
    },
    {
      "constant": true,
      "inputs": [],
      "name": "getEthPrice",
      "outputs": [
        {
          "name": "",
          "type": "uint256"
        }
      ],
      "payable": false,
      "stateMutability": "view",
      "type": "function"
    },
    {
      "constant": false,
      "inputs": [
        {
          "name": "price",
          "type": "uint256"
        }
      ],
      "name": "setEthPrice",
      "outputs": [],
      "payable": false,
      "stateMutability": "nonpayable",
      "type": "function"
    },
    {
      "constant": true,
      "inputs": [],
      "name": "getRoksExpected",
      "outputs": [
        {
          "name": "",
          "type": "uint256"
        }
      ],
      "payable": false,
      "stateMutability": "view",
      "type": "function"
    },
    {
      "constant": false,
      "inputs": [
        {
          "name": "roks",
          "type": "uint256"
        }
      ],
      "name": "setRoksExpected",
      "outputs": [],
      "payable": false,
      "stateMutability": "nonpayable",
      "type": "function"
    },
    {
      "constant": true,
      "inputs": [],
      "name": "getLocalToken",
      "outputs": [
        {
          "name": "",
          "type": "address"
        }
      ],
      "payable": false,
      "stateMutability": "view",
      "type": "function"
    },
    {
      "constant": false,
      "inputs": [
        {
          "name": "toAnotherEvangelist",
          "type": "address"
        }
      ],
      "name": "transferThisVendor",
      "outputs": [],
      "payable": false,
      "stateMutability": "nonpayable",
      "type": "function"
    },
    {
      "constant": false,
      "inputs": [
        {
          "name": "pay",
          "type": "bool"
        }
      ],
      "name": "setPayTax",
      "outputs": [],
      "payable": false,
      "stateMutability": "nonpayable",
      "type": "function"
    },
    {
      "constant": false,
      "inputs": [],
      "name": "refreshFeeParams",
      "outputs": [],
      "payable": false,
      "stateMutability": "nonpayable",
      "type": "function"
    },
    {
      "constant": false,
      "inputs": [],
      "name": "depositLocalToken",
      "outputs": [],
      "payable": false,
      "stateMutability": "nonpayable",
      "type": "function"
    },
    {
      "constant": false,
      "inputs": [],
      "name": "destroy",
      "outputs": [],
      "payable": false,
      "stateMutability": "nonpayable",
      "type": "function"
    }
  ],
  "bytecode": "0x60806040523480156200001157600080fd5b5060405160a08062003f308339810180604052810190808051906020019092919080519060200190929190805190602001909291908051906020019092919080519060200190929190505050336000806101000a81548173ffffffffffffffffffffffffffffffffffffffff021916908373ffffffffffffffffffffffffffffffffffffffff1602179055506000809054906101000a900473ffffffffffffffffffffffffffffffffffffffff1673ffffffffffffffffffffffffffffffffffffffff16600073ffffffffffffffffffffffffffffffffffffffff167f8be0079c531659141344cd1fd0a4f28419497f9722a3daafe3b4186f6b6457e060405160405180910390a3600073ffffffffffffffffffffffffffffffffffffffff168473ffffffffffffffffffffffffffffffffffffffff161415801515620001c0576040517f08c379a00000000000000000000000000000000000000000000000000000000081526004018080602001828103825260148152602001807f707265636f6e646974696f6e206e6f74206d657400000000000000000000000081525060200191505060405180910390fd5b600073ffffffffffffffffffffffffffffffffffffffff168473ffffffffffffffffffffffffffffffffffffffff16141580151562000267576040517f08c379a00000000000000000000000000000000000000000000000000000000081526004018080602001828103825260148152602001807f707265636f6e646974696f6e206e6f74206d657400000000000000000000000081525060200191505060405180910390fd5b600073ffffffffffffffffffffffffffffffffffffffff168473ffffffffffffffffffffffffffffffffffffffff1614158015156200030e576040517f08c379a00000000000000000000000000000000000000000000000000000000081526004018080602001828103825260148152602001807f707265636f6e646974696f6e206e6f74206d657400000000000000000000000081525060200191505060405180910390fd5b8673ffffffffffffffffffffffffffffffffffffffff168573ffffffffffffffffffffffffffffffffffffffff161415801515620003b4576040517f08c379a00000000000000000000000000000000000000000000000000000000081526004018080602001828103825260148152602001807f707265636f6e646974696f6e206e6f74206d657400000000000000000000000081525060200191505060405180910390fd5b86600260006101000a81548173ffffffffffffffffffffffffffffffffffffffff021916908373ffffffffffffffffffffffffffffffffffffffff1602179055506012600a0a600260009054906101000a900473ffffffffffffffffffffffffffffffffffffffff1673ffffffffffffffffffffffffffffffffffffffff166370a082318a6040518263ffffffff167c0100000000000000000000000000000000000000000000000000000000028152600401808273ffffffffffffffffffffffffffffffffffffffff1673ffffffffffffffffffffffffffffffffffffffff168152602001915050602060405180830381600087803b158015620004b857600080fd5b505af1158015620004cd573d6000803e3d6000fd5b505050506040513d6020811015620004e457600080fd5b81019080805190602001909291905050501015151562000592576040517f08c379a00000000000000000000000000000000000000000000000000000000081526004018080602001828103825260338152602001807f6576616e67656c697374206d75737420616c7265616479206265206c6963656e81526020017f73656420666f7220746869732076656e646f720000000000000000000000000081525060400191505060405180910390fd5b600260009054906101000a900473ffffffffffffffffffffffffffffffffffffffff1673ffffffffffffffffffffffffffffffffffffffff1663e99d2db46040518163ffffffff167c0100000000000000000000000000000000000000000000000000000000028152600401602060405180830381600087803b1580156200061957600080fd5b505af11580156200062e573d6000803e3d6000fd5b505050506040513d60208110156200064557600080fd5b810190808051906020019092919050505073ffffffffffffffffffffffffffffffffffffffff166336a9f2f76040518163ffffffff167c0100000000000000000000000000000000000000000000000000000000028152600401602060405180830381600087803b158015620006ba57600080fd5b505af1158015620006cf573d6000803e3d6000fd5b505050506040513d6020811015620006e657600080fd5b8101908080519060200190929190505050600681905550600260009054906101000a900473ffffffffffffffffffffffffffffffffffffffff1673ffffffffffffffffffffffffffffffffffffffff1663e99d2db46040518163ffffffff167c0100000000000000000000000000000000000000000000000000000000028152600401602060405180830381600087803b1580156200078457600080fd5b505af115801562000799573d6000803e3d6000fd5b505050506040513d6020811015620007b057600080fd5b810190808051906020019092919050505073ffffffffffffffffffffffffffffffffffffffff1663c6117d376040518163ffffffff167c0100000000000000000000000000000000000000000000000000000000028152600401602060405180830381600087803b1580156200082557600080fd5b505af11580156200083a573d6000803e3d6000fd5b505050506040513d60208110156200085157600080fd5b8101908080519060200190929190505050600581905550600260009054906101000a900473ffffffffffffffffffffffffffffffffffffffff1673ffffffffffffffffffffffffffffffffffffffff1663493fcf1c6040518163ffffffff167c0100000000000000000000000000000000000000000000000000000000028152600401602060405180830381600087803b158015620008ef57600080fd5b505af115801562000904573d6000803e3d6000fd5b505050506040513d60208110156200091b57600080fd5b81019080805190602001909291905050506007819055506200098c6006546200096f8b6200094b5760006200094f565b6007545b61271062000d9f6401000000000262003018179091906401000000009004565b62000d9f6401000000000262003018179091906401000000009004565b600881905550600260009054906101000a900473ffffffffffffffffffffffffffffffffffffffff1673ffffffffffffffffffffffffffffffffffffffff16636d9cb37d6040518163ffffffff167c0100000000000000000000000000000000000000000000000000000000028152600401602060405180830381600087803b15801562000a1957600080fd5b505af115801562000a2e573d6000803e3d6000fd5b505050506040513d602081101562000a4557600080fd5b8101908080519060200190929190505050600360006101000a81548173ffffffffffffffffffffffffffffffffffffffff021916908373ffffffffffffffffffffffffffffffffffffffff160217905550600260009054906101000a900473ffffffffffffffffffffffffffffffffffffffff1673ffffffffffffffffffffffffffffffffffffffff16638fa5a6e96040518163ffffffff167c0100000000000000000000000000000000000000000000000000000000028152600401602060405180830381600087803b15801562000b1d57600080fd5b505af115801562000b32573d6000803e3d6000fd5b505050506040513d602081101562000b4957600080fd5b8101908080519060200190929190505050600460006101000a81548173ffffffffffffffffffffffffffffffffffffffff021916908373ffffffffffffffffffffffffffffffffffffffff16021790555085600b60006101000a81548173ffffffffffffffffffffffffffffffffffffffff021916908373ffffffffffffffffffffffffffffffffffffffff16021790555087600160006101000a81548173ffffffffffffffffffffffffffffffffffffffff021916908373ffffffffffffffffffffffffffffffffffffffff16021790555088600160146101000a81548160ff02191690831515021790555084600c60006101000a81548173ffffffffffffffffffffffffffffffffffffffff021916908373ffffffffffffffffffffffffffffffffffffffff1602179055506012600a0a609c026009819055507fbff87e1b902526d643a209d713d2d13d5f5d39c1a3ee49a072285571f15f8122898989898960405180861515151581526020018573ffffffffffffffffffffffffffffffffffffffff1673ffffffffffffffffffffffffffffffffffffffff1681526020018473ffffffffffffffffffffffffffffffffffffffff1673ffffffffffffffffffffffffffffffffffffffff1681526020018373ffffffffffffffffffffffffffffffffffffffff1673ffffffffffffffffffffffffffffffffffffffff1681526020018273ffffffffffffffffffffffffffffffffffffffff1673ffffffffffffffffffffffffffffffffffffffff1681526020019550505050505060405180910390a150505050505050505062000dc1565b600080828401905083811015151562000db757600080fd5b8091505092915050565b61315f8062000dd16000396000f300608060405260043610610169576000357c0100000000000000000000000000000000000000000000000000000000900463ffffffff1680629f92621461073f57806319f732511461076c5780632912ba5f146107975780632e0f2625146107c657806367c9b017146107f15780636806883b1461081c5780636a146024146108475780636d9cb37d14610872578063715018a6146108c9578063770af77c146108e0578063771a3a1d146109375780637c867009146109625780637d1d8a6f146109795780637d4b7411146109d057806383197ef014610a275780638da5cb5b14610a3e5780638f32d59b14610a955780638fa5a6e914610ac4578063918f867414610b1b578063978bbdb914610b46578063a245dda814610b71578063b3baa55b14610b9c578063caadaa4114610bc9578063d6d78cf714610c20578063de669b3b14610c63578063e3082b3614610c92578063e7f2d14714610ce9578063f2fde38b14610d00575b600080600034118015156101e5576040517f08c379a00000000000000000000000000000000000000000000000000000000081526004018080602001828103825260148152602001807f707265636f6e646974696f6e206e6f74206d657400000000000000000000000081525060200191505060405180910390fd5b3373ffffffffffffffffffffffffffffffffffffffff16600b60009054906101000a900473ffffffffffffffffffffffffffffffffffffffff1673ffffffffffffffffffffffffffffffffffffffff1614158015156102ac576040517f08c379a00000000000000000000000000000000000000000000000000000000081526004018080602001828103825260148152602001807f707265636f6e646974696f6e206e6f74206d657400000000000000000000000081525060200191505060405180910390fd5b6000600a5411801515610327576040517f08c379a00000000000000000000000000000000000000000000000000000000081526004018080602001828103825260148152602001807f707265636f6e646974696f6e206e6f74206d657400000000000000000000000081525060200191505060405180910390fd5b670de0b6b3a7640000600954118015156103a9576040517f08c379a00000000000000000000000000000000000000000000000000000000081526004018080602001828103825260148152602001807f707265636f6e646974696f6e206e6f74206d657400000000000000000000000081525060200191505060405180910390fd5b600c60009054906101000a900473ffffffffffffffffffffffffffffffffffffffff1673ffffffffffffffffffffffffffffffffffffffff1663c3c5a547306040518263ffffffff167c0100000000000000000000000000000000000000000000000000000000028152600401808273ffffffffffffffffffffffffffffffffffffffff1673ffffffffffffffffffffffffffffffffffffffff168152602001915050602060405180830381600087803b15801561046657600080fd5b505af115801561047a573d6000803e3d6000fd5b505050506040513d602081101561049057600080fd5b8101908080519060200190929190505050151561053b576040517f08c379a00000000000000000000000000000000000000000000000000000000081526004018080602001828103825260238152602001807f5061796d656e7420636f6e7472616374206d757374206265207265676973746581526020017f726564000000000000000000000000000000000000000000000000000000000081525060400191505060405180910390fd5b600073ffffffffffffffffffffffffffffffffffffffff16600460009054906101000a900473ffffffffffffffffffffffffffffffffffffffff1673ffffffffffffffffffffffffffffffffffffffff1614151515610628576040517f08c379a00000000000000000000000000000000000000000000000000000000081526004018080602001828103825260238152602001807f5061796d656e7420636f6e7472616374206973206e6f7420696e697469616c6981526020017f7a6564000000000000000000000000000000000000000000000000000000000081525060400191505060405180910390fd5b600460009054906101000a900473ffffffffffffffffffffffffffffffffffffffff1673ffffffffffffffffffffffffffffffffffffffff166108fc349081150290604051600060405180830381858888f19350505050158015610690573d6000803e3d6000fd5b506106bc6012600a0a6106ae60095434610d4390919063ffffffff16565b610d8190919063ffffffff16565b95506106c786610dab565b3394503073ffffffffffffffffffffffffffffffffffffffff168573ffffffffffffffffffffffffffffffffffffffff167ff8394e850676b464c5b3b1433c08cbb7fc15cfbbe305cda4dc649edc6449b1183489604051808381526020018281526020019250505060405180910390a3505050505050005b34801561074b57600080fd5b5061076a600480360381019080803590602001909291905050506118a6565b005b34801561077857600080fd5b506107816118c3565b6040518082815260200191505060405180910390f35b3480156107a357600080fd5b506107ac6118c9565b604051808215151515815260200191505060405180910390f35b3480156107d257600080fd5b506107db6118dc565b6040518082815260200191505060405180910390f35b3480156107fd57600080fd5b506108066118e1565b6040518082815260200191505060405180910390f35b34801561082857600080fd5b506108316118eb565b6040518082815260200191505060405180910390f35b34801561085357600080fd5b5061085c6118f5565b6040518082815260200191505060405180910390f35b34801561087e57600080fd5b506108876118fd565b604051808273ffffffffffffffffffffffffffffffffffffffff1673ffffffffffffffffffffffffffffffffffffffff16815260200191505060405180910390f35b3480156108d557600080fd5b506108de611923565b005b3480156108ec57600080fd5b506108f56119f5565b604051808273ffffffffffffffffffffffffffffffffffffffff1673ffffffffffffffffffffffffffffffffffffffff16815260200191505060405180910390f35b34801561094357600080fd5b5061094c611a1f565b6040518082815260200191505060405180910390f35b34801561096e57600080fd5b50610977611a25565b005b34801561098557600080fd5b5061098e611e46565b604051808273ffffffffffffffffffffffffffffffffffffffff1673ffffffffffffffffffffffffffffffffffffffff16815260200191505060405180910390f35b3480156109dc57600080fd5b506109e5611e6c565b604051808273ffffffffffffffffffffffffffffffffffffffff1673ffffffffffffffffffffffffffffffffffffffff16815260200191505060405180910390f35b348015610a3357600080fd5b50610a3c611e96565b005b348015610a4a57600080fd5b50610a536122a1565b604051808273ffffffffffffffffffffffffffffffffffffffff1673ffffffffffffffffffffffffffffffffffffffff16815260200191505060405180910390f35b348015610aa157600080fd5b50610aaa6122ca565b604051808215151515815260200191505060405180910390f35b348015610ad057600080fd5b50610ad9612321565b604051808273ffffffffffffffffffffffffffffffffffffffff1673ffffffffffffffffffffffffffffffffffffffff16815260200191505060405180910390f35b348015610b2757600080fd5b50610b30612347565b6040518082815260200191505060405180910390f35b348015610b5257600080fd5b50610b5b61234d565b6040518082815260200191505060405180910390f35b348015610b7d57600080fd5b50610b86612353565b6040518082815260200191505060405180910390f35b348015610ba857600080fd5b50610bc760048036038101908080359060200190929190505050612359565b005b348015610bd557600080fd5b50610bde612376565b604051808273ffffffffffffffffffffffffffffffffffffffff1673ffffffffffffffffffffffffffffffffffffffff16815260200191505060405180910390f35b348015610c2c57600080fd5b50610c61600480360381019080803573ffffffffffffffffffffffffffffffffffffffff16906020019092919050505061239c565b005b348015610c6f57600080fd5b50610c90600480360381019080803515159060200190929190505050612766565b005b348015610c9e57600080fd5b50610ca761284a565b604051808273ffffffffffffffffffffffffffffffffffffffff1673ffffffffffffffffffffffffffffffffffffffff16815260200191505060405180910390f35b348015610cf557600080fd5b50610cfe612874565b005b348015610d0c57600080fd5b50610d41600480360381019080803573ffffffffffffffffffffffffffffffffffffffff169060200190929190505050612fd8565b005b6000806000841415610d585760009150610d7a565b8284029050828482811515610d6957fe5b04141515610d7657600080fd5b8091505b5092915050565b600080600083111515610d9357600080fd5b8284811515610d9e57fe5b0490508091505092915050565b6000806000806000806000808811801515610e2e576040517f08c379a00000000000000000000000000000000000000000000000000000000081526004018080602001828103825260148152602001807f707265636f6e646974696f6e206e6f74206d657400000000000000000000000081525060200191505060405180910390fd5b600c60009054906101000a900473ffffffffffffffffffffffffffffffffffffffff1673ffffffffffffffffffffffffffffffffffffffff1663dd62ed3e600c60009054906101000a900473ffffffffffffffffffffffffffffffffffffffff1673ffffffffffffffffffffffffffffffffffffffff16638da5cb5b6040518163ffffffff167c0100000000000000000000000000000000000000000000000000000000028152600401602060405180830381600087803b158015610ef257600080fd5b505af1158015610f06573d6000803e3d6000fd5b505050506040513d6020811015610f1c57600080fd5b8101908080519060200190929190505050306040518363ffffffff167c0100000000000000000000000000000000000000000000000000000000028152600401808373ffffffffffffffffffffffffffffffffffffffff1673ffffffffffffffffffffffffffffffffffffffff1681526020018273ffffffffffffffffffffffffffffffffffffffff1673ffffffffffffffffffffffffffffffffffffffff16815260200192505050602060405180830381600087803b158015610fdf57600080fd5b505af1158015610ff3573d6000803e3d6000fd5b505050506040513d602081101561100957600080fd5b8101908080519060200190929190505050891115801515611092576040517f08c379a00000000000000000000000000000000000000000000000000000000081526004018080602001828103825260148152602001807f707265636f6e646974696f6e206e6f74206d657400000000000000000000000081525060200191505060405180910390fd5b89965060009550600a548a11156110c0576110b8600a548b612ff790919063ffffffff16565b9550600a5496505b6110e96008546110db6127108a610d4390919063ffffffff16565b610d8190919063ffffffff16565b9450600c60009054906101000a900473ffffffffffffffffffffffffffffffffffffffff1673ffffffffffffffffffffffffffffffffffffffff16638da5cb5b6040518163ffffffff167c0100000000000000000000000000000000000000000000000000000000028152600401602060405180830381600087803b15801561117157600080fd5b505af1158015611185573d6000803e3d6000fd5b505050506040513d602081101561119b57600080fd5b81019080805190602001909291905050509350600160149054906101000a900460ff1680156111cc57506000600754115b1561137f576111fa6127106111ec60065488610d4390919063ffffffff16565b610d8190919063ffffffff16565b985061122189611213878a612ff790919063ffffffff16565b612ff790919063ffffffff16565b9750600c60009054906101000a900473ffffffffffffffffffffffffffffffffffffffff1673ffffffffffffffffffffffffffffffffffffffff166323b872dd85600360009054906101000a900473ffffffffffffffffffffffffffffffffffffffff168b6040518463ffffffff167c0100000000000000000000000000000000000000000000000000000000028152600401808473ffffffffffffffffffffffffffffffffffffffff1673ffffffffffffffffffffffffffffffffffffffff1681526020018373ffffffffffffffffffffffffffffffffffffffff1673ffffffffffffffffffffffffffffffffffffffff1681526020018281526020019350505050602060405180830381600087803b15801561133e57600080fd5b505af1158015611352573d6000803e3d6000fd5b505050506040513d602081101561136857600080fd5b810190808051906020019092919050505050611395565b6113928588612ff790919063ffffffff16565b98505b600c60009054906101000a900473ffffffffffffffffffffffffffffffffffffffff1673ffffffffffffffffffffffffffffffffffffffff166323b872dd85600b60009054906101000a900473ffffffffffffffffffffffffffffffffffffffff168989016040518463ffffffff167c0100000000000000000000000000000000000000000000000000000000028152600401808473ffffffffffffffffffffffffffffffffffffffff1673ffffffffffffffffffffffffffffffffffffffff1681526020018373ffffffffffffffffffffffffffffffffffffffff1673ffffffffffffffffffffffffffffffffffffffff1681526020018281526020019350505050602060405180830381600087803b1580156114b257600080fd5b505af11580156114c6573d6000803e3d6000fd5b505050506040513d60208110156114dc57600080fd5b8101908080519060200190929190505050506115176127106115096005548c610d4390919063ffffffff16565b610d8190919063ffffffff16565b9250600c60009054906101000a900473ffffffffffffffffffffffffffffffffffffffff1673ffffffffffffffffffffffffffffffffffffffff166323b872dd85600460009054906101000a900473ffffffffffffffffffffffffffffffffffffffff16866040518463ffffffff167c0100000000000000000000000000000000000000000000000000000000028152600401808473ffffffffffffffffffffffffffffffffffffffff1673ffffffffffffffffffffffffffffffffffffffff1681526020018373ffffffffffffffffffffffffffffffffffffffff1673ffffffffffffffffffffffffffffffffffffffff1681526020018281526020019350505050602060405180830381600087803b15801561163457600080fd5b505af1158015611648573d6000803e3d6000fd5b505050506040513d602081101561165e57600080fd5b810190808051906020019092919050505050600c60009054906101000a900473ffffffffffffffffffffffffffffffffffffffff1673ffffffffffffffffffffffffffffffffffffffff166323b872dd85600160009054906101000a900473ffffffffffffffffffffffffffffffffffffffff166116e5878e612ff790919063ffffffff16565b6040518463ffffffff167c0100000000000000000000000000000000000000000000000000000000028152600401808473ffffffffffffffffffffffffffffffffffffffff1673ffffffffffffffffffffffffffffffffffffffff1681526020018373ffffffffffffffffffffffffffffffffffffffff1673ffffffffffffffffffffffffffffffffffffffff1681526020018281526020019350505050602060405180830381600087803b15801561179d57600080fd5b505af11580156117b1573d6000803e3d6000fd5b505050506040513d60208110156117c757600080fd5b8101908080519060200190929190505050507f5ea99e480d9dcff50173564668f9850cc098be11b6968d8799976067ff47312a84600460009054906101000a900473ffffffffffffffffffffffffffffffffffffffff1685604051808473ffffffffffffffffffffffffffffffffffffffff1673ffffffffffffffffffffffffffffffffffffffff1681526020018373ffffffffffffffffffffffffffffffffffffffff1673ffffffffffffffffffffffffffffffffffffffff168152602001828152602001935050505060405180910390a150505050505050505050565b6118ae6122ca565b15156118b957600080fd5b8060098190555050565b60085481565b600160149054906101000a900460ff1681565b601281565b6000600954905090565b6000600a54905090565b6012600a0a81565b600360009054906101000a900473ffffffffffffffffffffffffffffffffffffffff1681565b61192b6122ca565b151561193657600080fd5b600073ffffffffffffffffffffffffffffffffffffffff166000809054906101000a900473ffffffffffffffffffffffffffffffffffffffff1673ffffffffffffffffffffffffffffffffffffffff167f8be0079c531659141344cd1fd0a4f28419497f9722a3daafe3b4186f6b6457e060405160405180910390a360008060006101000a81548173ffffffffffffffffffffffffffffffffffffffff021916908373ffffffffffffffffffffffffffffffffffffffff160217905550565b6000600260009054906101000a900473ffffffffffffffffffffffffffffffffffffffff16905090565b60075481565b600c60009054906101000a900473ffffffffffffffffffffffffffffffffffffffff1673ffffffffffffffffffffffffffffffffffffffff163373ffffffffffffffffffffffffffffffffffffffff16141515611b10576040517f08c379a00000000000000000000000000000000000000000000000000000000081526004018080602001828103825260328152602001807f63616e206f6e6c792062652063616c6c65642066726f6d20507572654d6f6e6581526020017f79322028524f4b532920636f6e7472616374000000000000000000000000000081525060400191505060405180910390fd5b600460009054906101000a900473ffffffffffffffffffffffffffffffffffffffff1673ffffffffffffffffffffffffffffffffffffffff16600160009054906101000a900473ffffffffffffffffffffffffffffffffffffffff1673ffffffffffffffffffffffffffffffffffffffff161415611ce857600260009054906101000a900473ffffffffffffffffffffffffffffffffffffffff1673ffffffffffffffffffffffffffffffffffffffff166323b872dd600b60009054906101000a900473ffffffffffffffffffffffffffffffffffffffff16306012600a0a6040518463ffffffff167c0100000000000000000000000000000000000000000000000000000000028152600401808473ffffffffffffffffffffffffffffffffffffffff1673ffffffffffffffffffffffffffffffffffffffff1681526020018373ffffffffffffffffffffffffffffffffffffffff1673ffffffffffffffffffffffffffffffffffffffff1681526020018281526020019350505050602060405180830381600087803b158015611ca757600080fd5b505af1158015611cbb573d6000803e3d6000fd5b505050506040513d6020811015611cd157600080fd5b810190808051906020019092919050505050611e44565b600260009054906101000a900473ffffffffffffffffffffffffffffffffffffffff1673ffffffffffffffffffffffffffffffffffffffff166323b872dd600160009054906101000a900473ffffffffffffffffffffffffffffffffffffffff16306012600a0a6040518463ffffffff167c0100000000000000000000000000000000000000000000000000000000028152600401808473ffffffffffffffffffffffffffffffffffffffff1673ffffffffffffffffffffffffffffffffffffffff1681526020018373ffffffffffffffffffffffffffffffffffffffff1673ffffffffffffffffffffffffffffffffffffffff1681526020018281526020019350505050602060405180830381600087803b158015611e0757600080fd5b505af1158015611e1b573d6000803e3d6000fd5b505050506040513d6020811015611e3157600080fd5b8101908080519060200190929190505050505b565b600260009054906101000a900473ffffffffffffffffffffffffffffffffffffffff1681565b6000600b60009054906101000a900473ffffffffffffffffffffffffffffffffffffffff16905090565b6000600c60009054906101000a900473ffffffffffffffffffffffffffffffffffffffff1673ffffffffffffffffffffffffffffffffffffffff163373ffffffffffffffffffffffffffffffffffffffff16141515611f83576040517f08c379a00000000000000000000000000000000000000000000000000000000081526004018080602001828103825260328152602001807f63616e206f6e6c792062652063616c6c65642066726f6d20507572654d6f6e6581526020017f79322028524f4b532920636f6e7472616374000000000000000000000000000081525060400191505060405180910390fd5b600260009054906101000a900473ffffffffffffffffffffffffffffffffffffffff1673ffffffffffffffffffffffffffffffffffffffff1663a9059cbb600160009054906101000a900473ffffffffffffffffffffffffffffffffffffffff16600260009054906101000a900473ffffffffffffffffffffffffffffffffffffffff1673ffffffffffffffffffffffffffffffffffffffff166370a08231306040518263ffffffff167c0100000000000000000000000000000000000000000000000000000000028152600401808273ffffffffffffffffffffffffffffffffffffffff1673ffffffffffffffffffffffffffffffffffffffff168152602001915050602060405180830381600087803b1580156120a157600080fd5b505af11580156120b5573d6000803e3d6000fd5b505050506040513d60208110156120cb57600080fd5b81019080805190602001909291905050506040518363ffffffff167c0100000000000000000000000000000000000000000000000000000000028152600401808373ffffffffffffffffffffffffffffffffffffffff1673ffffffffffffffffffffffffffffffffffffffff16815260200182815260200192505050602060405180830381600087803b15801561216157600080fd5b505af1158015612175573d6000803e3d6000fd5b505050506040513d602081101561218b57600080fd5b810190808051906020019092919050505050600160009054906101000a900473ffffffffffffffffffffffffffffffffffffffff1690506000600160006101000a81548173ffffffffffffffffffffffffffffffffffffffff021916908373ffffffffffffffffffffffffffffffffffffffff1602179055506000600b60006101000a81548173ffffffffffffffffffffffffffffffffffffffff021916908373ffffffffffffffffffffffffffffffffffffffff1602179055506000600460006101000a81548173ffffffffffffffffffffffffffffffffffffffff021916908373ffffffffffffffffffffffffffffffffffffffff1602179055508073ffffffffffffffffffffffffffffffffffffffff16ff5b60008060009054906101000a900473ffffffffffffffffffffffffffffffffffffffff16905090565b60008060009054906101000a900473ffffffffffffffffffffffffffffffffffffffff1673ffffffffffffffffffffffffffffffffffffffff163373ffffffffffffffffffffffffffffffffffffffff1614905090565b600460009054906101000a900473ffffffffffffffffffffffffffffffffffffffff1681565b61271081565b60065481565b60055481565b6123616122ca565b151561236c57600080fd5b80600a8190555050565b600160009054906101000a900473ffffffffffffffffffffffffffffffffffffffff1681565b600160009054906101000a900473ffffffffffffffffffffffffffffffffffffffff1673ffffffffffffffffffffffffffffffffffffffff163373ffffffffffffffffffffffffffffffffffffffff1614801515612462576040517f08c379a00000000000000000000000000000000000000000000000000000000081526004018080602001828103825260148152602001807f707265636f6e646974696f6e206e6f74206d657400000000000000000000000081525060200191505060405180910390fd5b600160009054906101000a900473ffffffffffffffffffffffffffffffffffffffff1673ffffffffffffffffffffffffffffffffffffffff168273ffffffffffffffffffffffffffffffffffffffff161415801515612529576040517f08c379a00000000000000000000000000000000000000000000000000000000081526004018080602001828103825260148152602001807f707265636f6e646974696f6e206e6f74206d657400000000000000000000000081525060200191505060405180910390fd5b600260009054906101000a900473ffffffffffffffffffffffffffffffffffffffff1673ffffffffffffffffffffffffffffffffffffffff166323b872dd84600160009054906101000a900473ffffffffffffffffffffffffffffffffffffffff166012600a0a6040518463ffffffff167c0100000000000000000000000000000000000000000000000000000000028152600401808473ffffffffffffffffffffffffffffffffffffffff1673ffffffffffffffffffffffffffffffffffffffff1681526020018373ffffffffffffffffffffffffffffffffffffffff1673ffffffffffffffffffffffffffffffffffffffff1681526020018281526020019350505050602060405180830381600087803b15801561264857600080fd5b505af115801561265c573d6000803e3d6000fd5b505050506040513d602081101561267257600080fd5b8101908080519060200190929190505050156127615782600160006101000a81548173ffffffffffffffffffffffffffffffffffffffff021916908373ffffffffffffffffffffffffffffffffffffffff1602179055507f12e742a591ce2ca189757c4ef5888b56e67ca836d896e1d7f5c24fd58002de643384604051808373ffffffffffffffffffffffffffffffffffffffff1673ffffffffffffffffffffffffffffffffffffffff1681526020018273ffffffffffffffffffffffffffffffffffffffff1673ffffffffffffffffffffffffffffffffffffffff1681526020019250505060405180910390a15b505050565b600b60009054906101000a900473ffffffffffffffffffffffffffffffffffffffff1673ffffffffffffffffffffffffffffffffffffffff163373ffffffffffffffffffffffffffffffffffffffff161480151561282c576040517f08c379a00000000000000000000000000000000000000000000000000000000081526004018080602001828103825260148152602001807f707265636f6e646974696f6e206e6f74206d657400000000000000000000000081525060200191505060405180910390fd5b81600160146101000a81548160ff0219169083151502179055505050565b6000600460009054906101000a900473ffffffffffffffffffffffffffffffffffffffff16905090565b600b60009054906101000a900473ffffffffffffffffffffffffffffffffffffffff1673ffffffffffffffffffffffffffffffffffffffff163373ffffffffffffffffffffffffffffffffffffffff16148061291d5750600160009054906101000a900473ffffffffffffffffffffffffffffffffffffffff1673ffffffffffffffffffffffffffffffffffffffff163373ffffffffffffffffffffffffffffffffffffffff16145b801515612992576040517f08c379a00000000000000000000000000000000000000000000000000000000081526004018080602001828103825260148152602001807f707265636f6e646974696f6e206e6f74206d657400000000000000000000000081525060200191505060405180910390fd5b600260009054906101000a900473ffffffffffffffffffffffffffffffffffffffff1673ffffffffffffffffffffffffffffffffffffffff1663e99d2db46040518163ffffffff167c0100000000000000000000000000000000000000000000000000000000028152600401602060405180830381600087803b158015612a1857600080fd5b505af1158015612a2c573d6000803e3d6000fd5b505050506040513d6020811015612a4257600080fd5b810190808051906020019092919050505073ffffffffffffffffffffffffffffffffffffffff166336a9f2f76040518163ffffffff167c0100000000000000000000000000000000000000000000000000000000028152600401602060405180830381600087803b158015612ab657600080fd5b505af1158015612aca573d6000803e3d6000fd5b505050506040513d6020811015612ae057600080fd5b8101908080519060200190929190505050600681905550600260009054906101000a900473ffffffffffffffffffffffffffffffffffffffff1673ffffffffffffffffffffffffffffffffffffffff1663e99d2db46040518163ffffffff167c0100000000000000000000000000000000000000000000000000000000028152600401602060405180830381600087803b158015612b7d57600080fd5b505af1158015612b91573d6000803e3d6000fd5b505050506040513d6020811015612ba757600080fd5b810190808051906020019092919050505073ffffffffffffffffffffffffffffffffffffffff1663c6117d376040518163ffffffff167c0100000000000000000000000000000000000000000000000000000000028152600401602060405180830381600087803b158015612c1b57600080fd5b505af1158015612c2f573d6000803e3d6000fd5b505050506040513d6020811015612c4557600080fd5b8101908080519060200190929190505050600581905550600260009054906101000a900473ffffffffffffffffffffffffffffffffffffffff1673ffffffffffffffffffffffffffffffffffffffff1663493fcf1c6040518163ffffffff167c0100000000000000000000000000000000000000000000000000000000028152600401602060405180830381600087803b158015612ce257600080fd5b505af1158015612cf6573d6000803e3d6000fd5b505050506040513d6020811015612d0c57600080fd5b8101908080519060200190929190505050600781905550612d6a600654612d5c600160149054906101000a900460ff16612d47576000612d4b565b6007545b61271061301890919063ffffffff16565b61301890919063ffffffff16565b600881905550600260009054906101000a900473ffffffffffffffffffffffffffffffffffffffff1673ffffffffffffffffffffffffffffffffffffffff16636d9cb37d6040518163ffffffff167c0100000000000000000000000000000000000000000000000000000000028152600401602060405180830381600087803b158015612df657600080fd5b505af1158015612e0a573d6000803e3d6000fd5b505050506040513d6020811015612e2057600080fd5b8101908080519060200190929190505050600360006101000a81548173ffffffffffffffffffffffffffffffffffffffff021916908373ffffffffffffffffffffffffffffffffffffffff160217905550600260009054906101000a900473ffffffffffffffffffffffffffffffffffffffff1673ffffffffffffffffffffffffffffffffffffffff16638fa5a6e96040518163ffffffff167c0100000000000000000000000000000000000000000000000000000000028152600401602060405180830381600087803b158015612ef757600080fd5b505af1158015612f0b573d6000803e3d6000fd5b505050506040513d6020811015612f2157600080fd5b8101908080519060200190929190505050600460006101000a81548173ffffffffffffffffffffffffffffffffffffffff021916908373ffffffffffffffffffffffffffffffffffffffff1602179055507fb5e62d230bc65910f3c3bbf77e9493e8830f92e934dbba922a6419bd9f67436d30604051808273ffffffffffffffffffffffffffffffffffffffff1673ffffffffffffffffffffffffffffffffffffffff16815260200191505060405180910390a150565b612fe06122ca565b1515612feb57600080fd5b612ff481613039565b50565b60008083831115151561300957600080fd5b82840390508091505092915050565b600080828401905083811015151561302f57600080fd5b8091505092915050565b600073ffffffffffffffffffffffffffffffffffffffff168173ffffffffffffffffffffffffffffffffffffffff161415151561307557600080fd5b8073ffffffffffffffffffffffffffffffffffffffff166000809054906101000a900473ffffffffffffffffffffffffffffffffffffffff1673ffffffffffffffffffffffffffffffffffffffff167f8be0079c531659141344cd1fd0a4f28419497f9722a3daafe3b4186f6b6457e060405160405180910390a3806000806101000a81548173ffffffffffffffffffffffffffffffffffffffff021916908373ffffffffffffffffffffffffffffffffffffffff160217905550505600a165627a7a72305820136ab4c0e991fb849f8e42f16ac6204b7425c11dc23ade4e7f9ef187679ade8d0029",
  "source": "// An instance of this contract is created for every vendor. It's a \"Forwarding Contract\".\n// The constructor is run during POS registration, and it helps in enforcing locality of evangelist.\n// Enforcement of locality is done during POS registration. However, enforcement is done in the central server,\n// with help from these three smart contracts. The POS installation will fail for any of the following reasons:\n//   1. The evangelist doing the installation does not own local tokens;\n//   2. The local tokens owned by the evangelist do not match the political territory of the vendor;\n//   3. There are no local tokens released as yet for the territory in question.\n//\npragma solidity  ^0.4.24;\n\nimport { Constants, LocalToken } from \"./LocalToken.sol\";\nimport { IPayment2 } from \"./IPayment2.sol\";\nimport { PureMoney2 } from \"./puremoney2.sol\";\nimport \"openzeppelin-solidity/contracts/math/SafeMath.sol\";\nimport { Ownable } from \"openzeppelin-solidity/contracts/ownership/Ownable.sol\";\n\ncontract Payment2 is Constants, Ownable, IPayment2 {\n    using SafeMath for uint256;\n    using SafeMath for uint;\n\n    address public evangelist;\n    bool public payTax;\n    LocalToken public localToken;\n    address public govtAccount;\n    address public pmtAccount;\n    uint public pmtShare;\n    uint public feeRate;\n    uint public taxRate;\n    uint public txFeeFactor;\n    uint private ethPrice; // divide by Constants.DENOMINATOR to get price\n    uint private roksExpected; // roks payment set by API server in InitiatePayment()\n\n    address private vendor;\n\n    PureMoney2 paymentCenter;\n\n    modifier precondition(bool _condition) {\n        require(_condition, \"precondition not met\");\n        _;\n    }\n\n    modifier onlyPureMoney() {\n        require(msg.sender == address(paymentCenter), \"can only be called from PureMoney2 (ROKS) contract\");\n        _;\n    }\n\n    // Constructor\n    // Evangelist must approve single local token for this contract right after its creation.\n    // RSTI should run this constructor.\n    // NOTE: If the evangelist is RSTI itself, which would be the case if the vendor self-registered,\n    // then RSTI must approve a single local token right after this contructor execution\n    // and this constructor should be called with _evangelist = localToken.pmtAccount().\n    //\n    constructor(\n        bool _payTax,\n        address _evangelist,\n        address _localToken,\n        address _vendor,\n        address _pmntcenter) public // _pmntcenter is address of RSTI ROKS ERC20 contract\n        precondition(_evangelist != address(0))\n        precondition(_localToken != address(0))\n        precondition(_vendor != address(0))\n        precondition(_vendor != _evangelist)\n    {\n        localToken = LocalToken(_localToken);\n        require(localToken.balanceOf(_evangelist) >= WAD, \"evangelist must already be licensed for this vendor\");\n        feeRate = localToken.universalToken().xactionFeeNumerator();\n        pmtShare = localToken.universalToken().xactionFeeShare();\n        taxRate = localToken.taxRateNumerator();\n        txFeeFactor = DENOMINATOR.add(_payTax ? taxRate : 0).add(feeRate);\n        govtAccount = localToken.govtAccount();\n        pmtAccount = localToken.pmtAccount();\n        vendor = _vendor;\n        evangelist = _evangelist;\n        payTax = _payTax;\n        paymentCenter = PureMoney2(_pmntcenter);\n        ethPrice = 156 * WAD; // just a number, any number\n        emit PaymentContract(_payTax, _evangelist, _localToken, _vendor, _pmntcenter);\n    }\n\n    function getVendor() public view returns (address)\n    {\n        return vendor;\n    }\n\n    function getPmtAccount() public view returns (address)\n    {\n        return pmtAccount;\n    }\n\n    function getEthPrice() public view returns (uint)\n    {\n        return ethPrice;\n    }\n\n    function setEthPrice(uint price) public onlyOwner\n    {\n        ethPrice = price;\n    }\n\n    function getRoksExpected() public view returns (uint)\n    {\n        return roksExpected;\n    }\n\n    function setRoksExpected(uint roks) public onlyOwner\n    {\n        roksExpected = roks;\n    }\n\n    function getLocalToken() public view returns (address)\n    {\n        return address(localToken);\n    }\n\n    // Transfer this vendor to another evangelist.\n    // Acquiring evangelist must first approve at least single local token for source vendor.\n    function transferThisVendor(address toAnotherEvangelist) public\n        precondition(msg.sender == evangelist)\n        precondition(toAnotherEvangelist != evangelist)\n    {\n        if (localToken.transferFrom(toAnotherEvangelist, evangelist, WAD))\n        {\n            evangelist = toAnotherEvangelist;\n            emit VendorTransferred(msg.sender, toAnotherEvangelist);\n        }\n    }\n\n    // Turn ON or OFF payment of taxes.\n    // Can be done only by vendor.\n    // NOTE: If the payment tax rate is zero, this setting won't matter; no tax is paid either way.\n    function setPayTax(bool pay) public\n        precondition(msg.sender == vendor)\n    {\n        payTax = pay;\n    }\n\n    // Refresh all parameters for calculating transaction fee and taxes.\n    // This allows these parameters to be modified in a single place.\n    // This refresh routine cost is charged to the evangelist or vendor, but it needs to be done\n    // at most only once a month.\n    function refreshFeeParams() public\n        precondition(msg.sender == vendor || msg.sender == evangelist)\n    {\n        feeRate = localToken.universalToken().xactionFeeNumerator();\n        pmtShare = localToken.universalToken().xactionFeeShare();\n        taxRate = localToken.taxRateNumerator();\n        txFeeFactor = DENOMINATOR.add(payTax ? taxRate : 0).add(feeRate);\n        govtAccount = localToken.govtAccount();\n        pmtAccount = localToken.pmtAccount();\n        emit PaymentContractRefreshed(address(this));\n    }\n\n    // Need to deposit local token to this contract during\n    // registration. This can only be called from PureMoney2, so can't\n    // test it independently.\n    function depositLocalToken() public onlyPureMoney\n    {\n        // the statement below needs the evangelist to approve 1 local token, with this contract as spender;\n        // the token is deposited also in this payment contract.\n        // if we are the evangelist, we obtain the local token from the vendor\n        if (evangelist == pmtAccount)\n            localToken.transferFrom(vendor, address(this), WAD);\n        else\n            localToken.transferFrom(evangelist, address(this), WAD);\n    }\n\n    // Deregistering this Payment contract from PureMoney2 means killing it.\n    // This can only be called from PureMoney2, so can't test it independently.\n    function destroy() public onlyPureMoney {\n        // return license to evangelist (this contract currently owns the license token)\n        localToken.transfer(evangelist, localToken.balanceOf(address(this)));\n\n        // Disable ether payments by resetting pmtAccount, etc.\n        // Any ethers owned by this contract is given to evangelist (why not to vendor?).\n        // Can't reset localToken and paymentCenter.\n        address beneficiary = evangelist;\n        evangelist = address(0);\n        vendor = address(0);\n        pmtAccount = address(0);\n        selfdestruct(beneficiary);\n    }\n\n    // Pay in ROKS - called from default payable method below.\n    // The API Server must modify the ethPrice and roksExpected before the customer makes a payment.\n    // The payable method uses ethPrice to determine the ROKS (USD) amount to pay the vendor.\n    // Note that our transaction fee is calculated against net to vendor, and not against raw roks amount.\n    // This means that the MainSale POS App must have already added all fees to roks amount.\n    // If the customer adds a tip, this contract distinguishes between the tip + net and\n    // the net amount by using roksExpected amount as net (tip = netToVendor - roksExpected).\n    //\n    // With regards to timing: there should be at least a few seconds from the time MainSale sends the \n    // InitiatePayment call to the API server, and the time that the customer sends the payment itself.\n    // The payable method gets called only upon payment by customer, which then calls payInROKS.\n    // The payable method also emits the PaymentConfirmed event, which the API waits for for every\n    // InitiatePayment call. The API server places a maker order for every PaymentConfirmed event.\n    //\n    function payInROKS(uint roks) private\n        precondition(roks > 0)\n        precondition(roks <= paymentCenter.allowance(paymentCenter.owner(), address(this)))\n    {\n        uint xactionFee;\n        uint salesTax;\n        uint paidAmount = roks;\n        uint tip = 0;\n\n        if (roks > roksExpected) {\n            tip = roks.sub(roksExpected);\n            paidAmount = roksExpected;\n        }\n        uint netToVendor = paidAmount.mul(DENOMINATOR).div(txFeeFactor);\n        address owner = paymentCenter.owner();\n        if (payTax && taxRate > 0) {\n            xactionFee = netToVendor.mul(feeRate).div(DENOMINATOR);\n            salesTax = paidAmount.sub(netToVendor).sub(xactionFee);\n            paymentCenter.transferFrom(owner, govtAccount, salesTax);\n        } else {\n            xactionFee = paidAmount.sub(netToVendor);\n        }\n        paymentCenter.transferFrom(owner, vendor, netToVendor + tip);\n        uint share = xactionFee.mul(pmtShare).div(DENOMINATOR);\n        paymentCenter.transferFrom(owner, pmtAccount, share);\n        paymentCenter.transferFrom(owner, evangelist, xactionFee.sub(share));\n        emit DebugEvent(owner, pmtAccount, share);\n    }\n\n    // Payment function (in ethers)\n    // This is triggered when customer's payment from her wallet is received by network.\n    function() public\n        precondition(msg.value > 0 wei)\n        precondition(vendor != msg.sender)\n        precondition(roksExpected > 0 ether)\n        precondition(ethPrice > 1 ether)\n        payable\n    {\n        require(paymentCenter.isRegistered(address(this)), 'Payment contract must be registered');\n\n        // make sure pmtAccount is set\n        require(pmtAccount != address(0), 'Payment contract is not initialized');\n\n        // all ethers are deposited in Pure Money account\n        pmtAccount.transfer(msg.value);\n\n        uint roks = msg.value.mul(ethPrice).div(WAD);\n        payInROKS(roks);\n\n        address source = msg.sender;\n        emit PaymentConfirmed(source, address(this), msg.value, roks);\n    }\n}\n",
  "sourcePath": "C:\\Users\\ctapa\\source\\payment-system-contracts\\contracts\\payment2.sol",
  "compiler": {
    "name": "solc",
    "version": "0.4.24+commit.e67f0147.Emscripten.clang"
  },
  "schemaVersion": "3.2.0",
  "updatedAt": "2020-05-31T01:54:38.620Z",
  "devdoc": {
    "methods": {
      "isOwner()": {
        "return": "true if `msg.sender` is the owner of the contract."
      },
      "owner()": {
        "return": "the address of the owner."
      },
      "renounceOwnership()": {
        "details": "Allows the current owner to relinquish control of the contract."
      },
      "transferOwnership(address)": {
        "details": "Allows the current owner to transfer control of the contract to a newOwner.",
        "params": {
          "newOwner": "The address to transfer ownership to."
        }
      }
    }
  },
  "userdoc": {
    "methods": {
      "renounceOwnership()": {
        "notice": "Renouncing to ownership will leave the contract without an owner. It will not be possible to call the functions with the `onlyOwner` modifier anymore."
      }
    }
  }
}