{
  "contractName": "RSTIShares",
  "abi": [
    {
      "constant": true,
      "inputs": [],
      "name": "name",
      "outputs": [
        {
          "name": "",
          "type": "string"
        }
      ],
      "payable": false,
      "stateMutability": "view",
      "type": "function"
    },
    {
      "constant": false,
      "inputs": [
        {
          "name": "spender",
          "type": "address"
        },
        {
          "name": "value",
          "type": "uint256"
        }
      ],
      "name": "approve",
      "outputs": [
        {
          "name": "",
          "type": "bool"
        }
      ],
      "payable": false,
      "stateMutability": "nonpayable",
      "type": "function"
    },
    {
      "constant": true,
      "inputs": [],
      "name": "totalSupply",
      "outputs": [
        {
          "name": "",
          "type": "uint256"
        }
      ],
      "payable": false,
      "stateMutability": "view",
      "type": "function"
    },
    {
      "constant": false,
      "inputs": [
        {
          "name": "from",
          "type": "address"
        },
        {
          "name": "to",
          "type": "address"
        },
        {
          "name": "value",
          "type": "uint256"
        }
      ],
      "name": "transferFrom",
      "outputs": [
        {
          "name": "",
          "type": "bool"
        }
      ],
      "payable": false,
      "stateMutability": "nonpayable",
      "type": "function"
    },
    {
      "constant": true,
      "inputs": [],
      "name": "DECIMALS",
      "outputs": [
        {
          "name": "",
          "type": "uint256"
        }
      ],
      "payable": false,
      "stateMutability": "view",
      "type": "function"
    },
    {
      "constant": true,
      "inputs": [],
      "name": "decimals",
      "outputs": [
        {
          "name": "",
          "type": "uint256"
        }
      ],
      "payable": false,
      "stateMutability": "view",
      "type": "function"
    },
    {
      "constant": true,
      "inputs": [],
      "name": "cap",
      "outputs": [
        {
          "name": "",
          "type": "uint256"
        }
      ],
      "payable": false,
      "stateMutability": "view",
      "type": "function"
    },
    {
      "constant": false,
      "inputs": [
        {
          "name": "spender",
          "type": "address"
        },
        {
          "name": "addedValue",
          "type": "uint256"
        }
      ],
      "name": "increaseAllowance",
      "outputs": [
        {
          "name": "success",
          "type": "bool"
        }
      ],
      "payable": false,
      "stateMutability": "nonpayable",
      "type": "function"
    },
    {
      "constant": true,
      "inputs": [
        {
          "name": "account",
          "type": "address"
        }
      ],
      "name": "isCapper",
      "outputs": [
        {
          "name": "",
          "type": "bool"
        }
      ],
      "payable": false,
      "stateMutability": "view",
      "type": "function"
    },
    {
      "constant": false,
      "inputs": [],
      "name": "unpause",
      "outputs": [],
      "payable": false,
      "stateMutability": "nonpayable",
      "type": "function"
    },
    {
      "constant": false,
      "inputs": [
        {
          "name": "to",
          "type": "address"
        },
        {
          "name": "value",
          "type": "uint256"
        }
      ],
      "name": "mint",
      "outputs": [
        {
          "name": "",
          "type": "bool"
        }
      ],
      "payable": false,
      "stateMutability": "nonpayable",
      "type": "function"
    },
    {
      "constant": true,
      "inputs": [
        {
          "name": "account",
          "type": "address"
        }
      ],
      "name": "isPauser",
      "outputs": [
        {
          "name": "",
          "type": "bool"
        }
      ],
      "payable": false,
      "stateMutability": "view",
      "type": "function"
    },
    {
      "constant": false,
      "inputs": [
        {
          "name": "newCap",
          "type": "uint256"
        }
      ],
      "name": "setCap",
      "outputs": [],
      "payable": false,
      "stateMutability": "nonpayable",
      "type": "function"
    },
    {
      "constant": true,
      "inputs": [],
      "name": "paused",
      "outputs": [
        {
          "name": "",
          "type": "bool"
        }
      ],
      "payable": false,
      "stateMutability": "view",
      "type": "function"
    },
    {
      "constant": false,
      "inputs": [],
      "name": "renounceCapper",
      "outputs": [],
      "payable": false,
      "stateMutability": "nonpayable",
      "type": "function"
    },
    {
      "constant": true,
      "inputs": [],
      "name": "WAD",
      "outputs": [
        {
          "name": "",
          "type": "uint256"
        }
      ],
      "payable": false,
      "stateMutability": "view",
      "type": "function"
    },
    {
      "constant": true,
      "inputs": [
        {
          "name": "someAddr",
          "type": "address"
        }
      ],
      "name": "isDepot",
      "outputs": [
        {
          "name": "",
          "type": "bool"
        }
      ],
      "payable": false,
      "stateMutability": "view",
      "type": "function"
    },
    {
      "constant": false,
      "inputs": [],
      "name": "renouncePauser",
      "outputs": [],
      "payable": false,
      "stateMutability": "nonpayable",
      "type": "function"
    },
    {
      "constant": true,
      "inputs": [
        {
          "name": "owner",
          "type": "address"
        }
      ],
      "name": "balanceOf",
      "outputs": [
        {
          "name": "",
          "type": "uint256"
        }
      ],
      "payable": false,
      "stateMutability": "view",
      "type": "function"
    },
    {
      "constant": false,
      "inputs": [],
      "name": "renounceOwnership",
      "outputs": [],
      "payable": false,
      "stateMutability": "nonpayable",
      "type": "function"
    },
    {
      "constant": false,
      "inputs": [
        {
          "name": "account",
          "type": "address"
        }
      ],
      "name": "addPauser",
      "outputs": [],
      "payable": false,
      "stateMutability": "nonpayable",
      "type": "function"
    },
    {
      "constant": false,
      "inputs": [],
      "name": "pause",
      "outputs": [],
      "payable": false,
      "stateMutability": "nonpayable",
      "type": "function"
    },
    {
      "constant": true,
      "inputs": [],
      "name": "owner",
      "outputs": [
        {
          "name": "",
          "type": "address"
        }
      ],
      "payable": false,
      "stateMutability": "view",
      "type": "function"
    },
    {
      "constant": false,
      "inputs": [
        {
          "name": "account",
          "type": "address"
        }
      ],
      "name": "addCapper",
      "outputs": [],
      "payable": false,
      "stateMutability": "nonpayable",
      "type": "function"
    },
    {
      "constant": true,
      "inputs": [],
      "name": "isOwner",
      "outputs": [
        {
          "name": "",
          "type": "bool"
        }
      ],
      "payable": false,
      "stateMutability": "view",
      "type": "function"
    },
    {
      "constant": true,
      "inputs": [],
      "name": "DENOMINATOR",
      "outputs": [
        {
          "name": "",
          "type": "uint256"
        }
      ],
      "payable": false,
      "stateMutability": "view",
      "type": "function"
    },
    {
      "constant": true,
      "inputs": [],
      "name": "symbol",
      "outputs": [
        {
          "name": "",
          "type": "string"
        }
      ],
      "payable": false,
      "stateMutability": "view",
      "type": "function"
    },
    {
      "constant": false,
      "inputs": [
        {
          "name": "account",
          "type": "address"
        }
      ],
      "name": "addMinter",
      "outputs": [],
      "payable": false,
      "stateMutability": "nonpayable",
      "type": "function"
    },
    {
      "constant": false,
      "inputs": [],
      "name": "renounceMinter",
      "outputs": [],
      "payable": false,
      "stateMutability": "nonpayable",
      "type": "function"
    },
    {
      "constant": false,
      "inputs": [
        {
          "name": "depot",
          "type": "address"
        }
      ],
      "name": "removeDepot",
      "outputs": [],
      "payable": false,
      "stateMutability": "nonpayable",
      "type": "function"
    },
    {
      "constant": false,
      "inputs": [
        {
          "name": "spender",
          "type": "address"
        },
        {
          "name": "subtractedValue",
          "type": "uint256"
        }
      ],
      "name": "decreaseAllowance",
      "outputs": [
        {
          "name": "success",
          "type": "bool"
        }
      ],
      "payable": false,
      "stateMutability": "nonpayable",
      "type": "function"
    },
    {
      "constant": false,
      "inputs": [
        {
          "name": "to",
          "type": "address"
        },
        {
          "name": "value",
          "type": "uint256"
        }
      ],
      "name": "transfer",
      "outputs": [
        {
          "name": "",
          "type": "bool"
        }
      ],
      "payable": false,
      "stateMutability": "nonpayable",
      "type": "function"
    },
    {
      "constant": true,
      "inputs": [
        {
          "name": "account",
          "type": "address"
        }
      ],
      "name": "isMinter",
      "outputs": [
        {
          "name": "",
          "type": "bool"
        }
      ],
      "payable": false,
      "stateMutability": "view",
      "type": "function"
    },
    {
      "constant": false,
      "inputs": [
        {
          "name": "depot",
          "type": "address"
        }
      ],
      "name": "addDepot",
      "outputs": [],
      "payable": false,
      "stateMutability": "nonpayable",
      "type": "function"
    },
    {
      "constant": true,
      "inputs": [
        {
          "name": "owner",
          "type": "address"
        },
        {
          "name": "spender",
          "type": "address"
        }
      ],
      "name": "allowance",
      "outputs": [
        {
          "name": "",
          "type": "uint256"
        }
      ],
      "payable": false,
      "stateMutability": "view",
      "type": "function"
    },
    {
      "constant": false,
      "inputs": [
        {
          "name": "newOwner",
          "type": "address"
        }
      ],
      "name": "transferOwnership",
      "outputs": [],
      "payable": false,
      "stateMutability": "nonpayable",
      "type": "function"
    },
    {
      "inputs": [
        {
          "name": "_owner",
          "type": "address"
        },
        {
          "name": "_initialCap",
          "type": "uint256"
        }
      ],
      "payable": false,
      "stateMutability": "nonpayable",
      "type": "constructor"
    },
    {
      "anonymous": false,
      "inputs": [
        {
          "indexed": true,
          "name": "account",
          "type": "address"
        }
      ],
      "name": "MinterAdded",
      "type": "event"
    },
    {
      "anonymous": false,
      "inputs": [
        {
          "indexed": true,
          "name": "account",
          "type": "address"
        }
      ],
      "name": "MinterRemoved",
      "type": "event"
    },
    {
      "anonymous": false,
      "inputs": [
        {
          "indexed": false,
          "name": "account",
          "type": "address"
        }
      ],
      "name": "Paused",
      "type": "event"
    },
    {
      "anonymous": false,
      "inputs": [
        {
          "indexed": false,
          "name": "account",
          "type": "address"
        }
      ],
      "name": "Unpaused",
      "type": "event"
    },
    {
      "anonymous": false,
      "inputs": [
        {
          "indexed": true,
          "name": "account",
          "type": "address"
        }
      ],
      "name": "PauserAdded",
      "type": "event"
    },
    {
      "anonymous": false,
      "inputs": [
        {
          "indexed": true,
          "name": "account",
          "type": "address"
        }
      ],
      "name": "PauserRemoved",
      "type": "event"
    },
    {
      "anonymous": false,
      "inputs": [
        {
          "indexed": true,
          "name": "from",
          "type": "address"
        },
        {
          "indexed": true,
          "name": "to",
          "type": "address"
        },
        {
          "indexed": false,
          "name": "value",
          "type": "uint256"
        }
      ],
      "name": "Transfer",
      "type": "event"
    },
    {
      "anonymous": false,
      "inputs": [
        {
          "indexed": true,
          "name": "owner",
          "type": "address"
        },
        {
          "indexed": true,
          "name": "spender",
          "type": "address"
        },
        {
          "indexed": false,
          "name": "value",
          "type": "uint256"
        }
      ],
      "name": "Approval",
      "type": "event"
    },
    {
      "anonymous": false,
      "inputs": [
        {
          "indexed": true,
          "name": "account",
          "type": "address"
        }
      ],
      "name": "CapperAdded",
      "type": "event"
    },
    {
      "anonymous": false,
      "inputs": [
        {
          "indexed": true,
          "name": "account",
          "type": "address"
        }
      ],
      "name": "CapperRemoved",
      "type": "event"
    },
    {
      "anonymous": false,
      "inputs": [
        {
          "indexed": true,
          "name": "previousOwner",
          "type": "address"
        },
        {
          "indexed": true,
          "name": "newOwner",
          "type": "address"
        }
      ],
      "name": "OwnershipTransferred",
      "type": "event"
    }
  ],
  "bytecode": "0x60806040523480156200001157600080fd5b50604051604080620031838339810180604052810190808051906020019092919080519060200190929190505050818180336000806101000a81548173ffffffffffffffffffffffffffffffffffffffff021916908373ffffffffffffffffffffffffffffffffffffffff1602179055506000809054906101000a900473ffffffffffffffffffffffffffffffffffffffff1673ffffffffffffffffffffffffffffffffffffffff16600073ffffffffffffffffffffffffffffffffffffffff167f8be0079c531659141344cd1fd0a4f28419497f9722a3daafe3b4186f6b6457e060405160405180910390a36200011833620004dd640100000000026401000000009004565b620001323362000547640100000000026401000000009004565b6000600760006101000a81548160ff0219169083151502179055506200016733620005b1640100000000026401000000009004565b600081111515620001e0576040517f08c379a00000000000000000000000000000000000000000000000000000000081526004018080602001828103825260128152602001807f4361702063616e6e6f74206265207a65726f000000000000000000000000000081525060200191505060405180910390fd5b806009819055505060008273ffffffffffffffffffffffffffffffffffffffff161415151562000278576040517f08c379a00000000000000000000000000000000000000000000000000000000081526004018080602001828103825260168152602001807f70726f706f736564206f776e6572206973206e756c6c0000000000000000000081525060200191505060405180910390fd5b8173ffffffffffffffffffffffffffffffffffffffff163373ffffffffffffffffffffffffffffffffffffffff161415156200030c57620002cd826200061b6401000000000262001495176401000000009004565b620002ec826200065d640100000000026200118c176401000000009004565b6200030b82620006a06401000000000262001093176401000000009004565b5b50506000811180151562000388576040517f08c379a00000000000000000000000000000000000000000000000000000000081526004018080602001828103825260118152602001807f636f6e646974696f6e206e6f74206d657400000000000000000000000000000081525060200191505060405180910390fd5b600073ffffffffffffffffffffffffffffffffffffffff168373ffffffffffffffffffffffffffffffffffffffff1614158015156200042f576040517f08c379a00000000000000000000000000000000000000000000000000000000081526004018080602001828103825260118152602001807f636f6e646974696f6e206e6f74206d657400000000000000000000000000000081525060200191505060405180910390fd5b6040805190810160405280600481526020017f4d4f4e5900000000000000000000000000000000000000000000000000000000815250600a90805190602001906200047c929190620009e7565b506040805190810160405280601b81526020017f526f636b737461626c6520546f6b656e20496e63205368617265730000000000815250600c9080519060200190620004ca929190620009e7565b506012600b819055505050505062000a96565b62000501816001620006e36401000000000262002601179091906401000000009004565b8073ffffffffffffffffffffffffffffffffffffffff167fa7555c95b69d4f5cc847881feb4ab2883a1921319e34fa2043747b793d65b36e60405160405180910390a250565b6200056b816006620006e36401000000000262002601179091906401000000009004565b8073ffffffffffffffffffffffffffffffffffffffff167f6719d08c1888103bea251a4ed56406bd0c3e69723c8a1686e017e7bbe159b6f860405160405180910390a250565b620005d5816008620006e36401000000000262002601179091906401000000009004565b8073ffffffffffffffffffffffffffffffffffffffff167f6ae172837ea30b801fbfcdd4108aa1d5bf8ff775444fd70256b44e6bf3dfc3f660405160405180910390a250565b62000634620007a6640100000000026401000000009004565b15156200064057600080fd5b6200065a81620007fd640100000000026401000000009004565b50565b6200067733620008f8640100000000026401000000009004565b15156200068357600080fd5b6200069d81620004dd640100000000026401000000009004565b50565b620006ba3362000925640100000000026401000000009004565b1515620006c657600080fd5b620006e08162000547640100000000026401000000009004565b50565b600073ffffffffffffffffffffffffffffffffffffffff168173ffffffffffffffffffffffffffffffffffffffff16141515156200072057600080fd5b6200073b828262000952640100000000026401000000009004565b1515156200074857600080fd5b60018260000160008373ffffffffffffffffffffffffffffffffffffffff1673ffffffffffffffffffffffffffffffffffffffff16815260200190815260200160002060006101000a81548160ff0219169083151502179055505050565b60008060009054906101000a900473ffffffffffffffffffffffffffffffffffffffff1673ffffffffffffffffffffffffffffffffffffffff163373ffffffffffffffffffffffffffffffffffffffff1614905090565b600073ffffffffffffffffffffffffffffffffffffffff168173ffffffffffffffffffffffffffffffffffffffff16141515156200083a57600080fd5b8073ffffffffffffffffffffffffffffffffffffffff166000809054906101000a900473ffffffffffffffffffffffffffffffffffffffff1673ffffffffffffffffffffffffffffffffffffffff167f8be0079c531659141344cd1fd0a4f28419497f9722a3daafe3b4186f6b6457e060405160405180910390a3806000806101000a81548173ffffffffffffffffffffffffffffffffffffffff021916908373ffffffffffffffffffffffffffffffffffffffff16021790555050565b60006200091e8260016200095264010000000002620019ca179091906401000000009004565b9050919050565b60006200094b8260066200095264010000000002620019ca179091906401000000009004565b9050919050565b60008073ffffffffffffffffffffffffffffffffffffffff168273ffffffffffffffffffffffffffffffffffffffff16141515156200099057600080fd5b8260000160008373ffffffffffffffffffffffffffffffffffffffff1673ffffffffffffffffffffffffffffffffffffffff16815260200190815260200160002060009054906101000a900460ff16905092915050565b828054600181600116156101000203166002900490600052602060002090601f016020900481019282601f1062000a2a57805160ff191683800117855562000a5b565b8280016001018555821562000a5b579182015b8281111562000a5a57825182559160200191906001019062000a3d565b5b50905062000a6a919062000a6e565b5090565b62000a9391905b8082111562000a8f57600081600090555060010162000a75565b5090565b90565b6126dd8062000aa66000396000f3006080604052600436106101c2576000357c0100000000000000000000000000000000000000000000000000000000900463ffffffff16806306fdde03146101c7578063095ea7b31461025757806318160ddd146102bc57806323b872dd146102e75780632e0f26251461036c578063313ce56714610397578063355274ea146103c257806339509351146103ed57806339564561146104525780633f4ba83a146104ad57806340c10f19146104c457806346fbf68e1461052957806347786d37146105845780635c975abb146105b15780635d5576f8146105e05780636a146024146105f75780636b3b2cf9146106225780636ef8d66d1461067d57806370a0823114610694578063715018a6146106eb57806382dc1ec4146107025780638456cb59146107455780638da5cb5b1461075c5780638dfbcf36146107b35780638f32d59b146107f6578063918f86741461082557806395d89b4114610850578063983b2d56146108e0578063986502751461092357806399396ace1461093a578063a457c2d71461097d578063a9059cbb146109e2578063aa271e1a14610a47578063bb318c4214610aa2578063dd62ed3e14610ae5578063f2fde38b14610b5c575b600080fd5b3480156101d357600080fd5b506101dc610b9f565b6040518080602001828103825283818151815260200191508051906020019080838360005b8381101561021c578082015181840152602081019050610201565b50505050905090810190601f1680156102495780820380516001836020036101000a031916815260200191505b509250505060405180910390f35b34801561026357600080fd5b506102a2600480360381019080803573ffffffffffffffffffffffffffffffffffffffff16906020019092919080359060200190929190505050610c3d565b604051808215151515815260200191505060405180910390f35b3480156102c857600080fd5b506102d1610c6d565b6040518082815260200191505060405180910390f35b3480156102f357600080fd5b50610352600480360381019080803573ffffffffffffffffffffffffffffffffffffffff169060200190929190803573ffffffffffffffffffffffffffffffffffffffff16906020019092919080359060200190929190505050610c77565b604051808215151515815260200191505060405180910390f35b34801561037857600080fd5b50610381610ca9565b6040518082815260200191505060405180910390f35b3480156103a357600080fd5b506103ac610cae565b6040518082815260200191505060405180910390f35b3480156103ce57600080fd5b506103d7610cb4565b6040518082815260200191505060405180910390f35b3480156103f957600080fd5b50610438600480360381019080803573ffffffffffffffffffffffffffffffffffffffff16906020019092919080359060200190929190505050610cbe565b604051808215151515815260200191505060405180910390f35b34801561045e57600080fd5b50610493600480360381019080803573ffffffffffffffffffffffffffffffffffffffff169060200190929190505050610cee565b604051808215151515815260200191505060405180910390f35b3480156104b957600080fd5b506104c2610d0b565b005b3480156104d057600080fd5b5061050f600480360381019080803573ffffffffffffffffffffffffffffffffffffffff16906020019092919080359060200190929190505050610dba565b604051808215151515815260200191505060405180910390f35b34801561053557600080fd5b5061056a600480360381019080803573ffffffffffffffffffffffffffffffffffffffff169060200190929190505050610ef4565b604051808215151515815260200191505060405180910390f35b34801561059057600080fd5b506105af60048036038101908080359060200190929190505050610f11565b005b3480156105bd57600080fd5b506105c6610f31565b604051808215151515815260200191505060405180910390f35b3480156105ec57600080fd5b506105f5610f48565b005b34801561060357600080fd5b5061060c610f53565b6040518082815260200191505060405180910390f35b34801561062e57600080fd5b50610663600480360381019080803573ffffffffffffffffffffffffffffffffffffffff169060200190929190505050610f5b565b604051808215151515815260200191505060405180910390f35b34801561068957600080fd5b50610692610f6d565b005b3480156106a057600080fd5b506106d5600480360381019080803573ffffffffffffffffffffffffffffffffffffffff169060200190929190505050610f78565b6040518082815260200191505060405180910390f35b3480156106f757600080fd5b50610700610fc1565b005b34801561070e57600080fd5b50610743600480360381019080803573ffffffffffffffffffffffffffffffffffffffff169060200190929190505050611093565b005b34801561075157600080fd5b5061075a6110b3565b005b34801561076857600080fd5b50610771611163565b604051808273ffffffffffffffffffffffffffffffffffffffff1673ffffffffffffffffffffffffffffffffffffffff16815260200191505060405180910390f35b3480156107bf57600080fd5b506107f4600480360381019080803573ffffffffffffffffffffffffffffffffffffffff16906020019092919050505061118c565b005b34801561080257600080fd5b5061080b6111ac565b604051808215151515815260200191505060405180910390f35b34801561083157600080fd5b5061083a611203565b6040518082815260200191505060405180910390f35b34801561085c57600080fd5b50610865611209565b6040518080602001828103825283818151815260200191508051906020019080838360005b838110156108a557808201518184015260208101905061088a565b50505050905090810190601f1680156108d25780820380516001836020036101000a031916815260200191505b509250505060405180910390f35b3480156108ec57600080fd5b50610921600480360381019080803573ffffffffffffffffffffffffffffffffffffffff1690602001909291905050506112a7565b005b34801561092f57600080fd5b506109386112c7565b005b34801561094657600080fd5b5061097b600480360381019080803573ffffffffffffffffffffffffffffffffffffffff1690602001909291905050506112d2565b005b34801561098957600080fd5b506109c8600480360381019080803573ffffffffffffffffffffffffffffffffffffffff16906020019092919080359060200190929190505050611371565b604051808215151515815260200191505060405180910390f35b3480156109ee57600080fd5b50610a2d600480360381019080803573ffffffffffffffffffffffffffffffffffffffff169060200190929190803590602001909291905050506113a1565b604051808215151515815260200191505060405180910390f35b348015610a5357600080fd5b50610a88600480360381019080803573ffffffffffffffffffffffffffffffffffffffff1690602001909291905050506113d1565b604051808215151515815260200191505060405180910390f35b348015610aae57600080fd5b50610ae3600480360381019080803573ffffffffffffffffffffffffffffffffffffffff1690602001909291905050506113ee565b005b348015610af157600080fd5b50610b46600480360381019080803573ffffffffffffffffffffffffffffffffffffffff169060200190929190803573ffffffffffffffffffffffffffffffffffffffff16906020019092919050505061140e565b6040518082815260200191505060405180910390f35b348015610b6857600080fd5b50610b9d600480360381019080803573ffffffffffffffffffffffffffffffffffffffff169060200190929190505050611495565b005b600c8054600181600116156101000203166002900480601f016020809104026020016040519081016040528092919081815260200182805460018160011615610100020316600290048015610c355780601f10610c0a57610100808354040283529160200191610c35565b820191906000526020600020905b815481529060010190602001808311610c1857829003601f168201915b505050505081565b6000600760009054906101000a900460ff16151515610c5b57600080fd5b610c6583836114b4565b905092915050565b6000600554905090565b6000600760009054906101000a900460ff16151515610c9557600080fd5b610ca08484846115e1565b90509392505050565b601281565b600b5481565b6000600954905090565b6000600760009054906101000a900460ff16151515610cdc57600080fd5b610ce68383611793565b905092915050565b6000610d048260016119ca90919063ffffffff16565b9050919050565b610d1433610ef4565b1515610d1f57600080fd5b600760009054906101000a900460ff161515610d3a57600080fd5b6000600760006101000a81548160ff0219169083151502179055507f5db9ee0a495bf2e6ff9c91a7834c1ba4fdd244a5e8aa4e537bd38aeae4b073aa33604051808273ffffffffffffffffffffffffffffffffffffffff1673ffffffffffffffffffffffffffffffffffffffff16815260200191505060405180910390a1565b6000610dc5336113d1565b1515610dd057600080fd5b82610dda81611a5e565b1515610e4e576040517f08c379a00000000000000000000000000000000000000000000000000000000081526004018080602001828103825260138152602001807f6e6f742061206465706f7420616464726573730000000000000000000000000081525060200191505060405180910390fd5b600954610e6b84610e5d610c6d565b611ab490919063ffffffff16565b11151515610ee1576040517f08c379a00000000000000000000000000000000000000000000000000000000081526004018080602001828103825260198152602001807f6d696e742076616c7565206c696d69742065786365656465640000000000000081525060200191505060405180910390fd5b610eeb8484611ad5565b91505092915050565b6000610f0a8260066119ca90919063ffffffff16565b9050919050565b610f1a33610cee565b1515610f2557600080fd5b610f2e81611aff565b50565b6000600760009054906101000a900460ff16905090565b610f5133611b14565b565b6012600a0a81565b6000610f6682611a5e565b9050919050565b610f7633611b6e565b565b6000600360008373ffffffffffffffffffffffffffffffffffffffff1673ffffffffffffffffffffffffffffffffffffffff168152602001908152602001600020549050919050565b610fc96111ac565b1515610fd457600080fd5b600073ffffffffffffffffffffffffffffffffffffffff166000809054906101000a900473ffffffffffffffffffffffffffffffffffffffff1673ffffffffffffffffffffffffffffffffffffffff167f8be0079c531659141344cd1fd0a4f28419497f9722a3daafe3b4186f6b6457e060405160405180910390a360008060006101000a81548173ffffffffffffffffffffffffffffffffffffffff021916908373ffffffffffffffffffffffffffffffffffffffff160217905550565b61109c33610ef4565b15156110a757600080fd5b6110b081611bc8565b50565b6110bc33610ef4565b15156110c757600080fd5b600760009054906101000a900460ff161515156110e357600080fd5b6001600760006101000a81548160ff0219169083151502179055507f62e78cea01bee320cd4e420270b5ea74000d11b0c9f74754ebdbfc544b05a25833604051808273ffffffffffffffffffffffffffffffffffffffff1673ffffffffffffffffffffffffffffffffffffffff16815260200191505060405180910390a1565b60008060009054906101000a900473ffffffffffffffffffffffffffffffffffffffff16905090565b61119533610cee565b15156111a057600080fd5b6111a981611c22565b50565b60008060009054906101000a900473ffffffffffffffffffffffffffffffffffffffff1673ffffffffffffffffffffffffffffffffffffffff163373ffffffffffffffffffffffffffffffffffffffff1614905090565b61271081565b600a8054600181600116156101000203166002900480601f01602080910402602001604051908101604052809291908181526020018280546001816001161561010002031660029004801561129f5780601f106112745761010080835404028352916020019161129f565b820191906000526020600020905b81548152906001019060200180831161128257829003601f168201915b505050505081565b6112b0336113d1565b15156112bb57600080fd5b6112c481611c7c565b50565b6112d033611cd6565b565b6112db33610cee565b15156112e657600080fd5b806112f081611a5e565b1515611364576040517f08c379a00000000000000000000000000000000000000000000000000000000081526004018080602001828103825260138152602001807f6e6f742061206465706f7420616464726573730000000000000000000000000081525060200191505060405180910390fd5b61136d82611d30565b5050565b6000600760009054906101000a900460ff1615151561138f57600080fd5b6113998383611d8b565b905092915050565b6000600760009054906101000a900460ff161515156113bf57600080fd5b6113c98383611fc2565b905092915050565b60006113e78260086119ca90919063ffffffff16565b9050919050565b6113f733610cee565b151561140257600080fd5b61140b81611fd9565b50565b6000600460008473ffffffffffffffffffffffffffffffffffffffff1673ffffffffffffffffffffffffffffffffffffffff16815260200190815260200160002060008373ffffffffffffffffffffffffffffffffffffffff1673ffffffffffffffffffffffffffffffffffffffff16815260200190815260200160002054905092915050565b61149d6111ac565b15156114a857600080fd5b6114b1816120d9565b50565b60008073ffffffffffffffffffffffffffffffffffffffff168373ffffffffffffffffffffffffffffffffffffffff16141515156114f157600080fd5b81600460003373ffffffffffffffffffffffffffffffffffffffff1673ffffffffffffffffffffffffffffffffffffffff16815260200190815260200160002060008573ffffffffffffffffffffffffffffffffffffffff1673ffffffffffffffffffffffffffffffffffffffff168152602001908152602001600020819055508273ffffffffffffffffffffffffffffffffffffffff163373ffffffffffffffffffffffffffffffffffffffff167f8c5be1e5ebec7d5bd14f71427d1e84f3dd0314c0f7b2291e5b200ac8c7c3b925846040518082815260200191505060405180910390a36001905092915050565b6000600460008573ffffffffffffffffffffffffffffffffffffffff1673ffffffffffffffffffffffffffffffffffffffff16815260200190815260200160002060003373ffffffffffffffffffffffffffffffffffffffff1673ffffffffffffffffffffffffffffffffffffffff16815260200190815260200160002054821115151561166e57600080fd5b6116fd82600460008773ffffffffffffffffffffffffffffffffffffffff1673ffffffffffffffffffffffffffffffffffffffff16815260200190815260200160002060003373ffffffffffffffffffffffffffffffffffffffff1673ffffffffffffffffffffffffffffffffffffffff168152602001908152602001600020546121d390919063ffffffff16565b600460008673ffffffffffffffffffffffffffffffffffffffff1673ffffffffffffffffffffffffffffffffffffffff16815260200190815260200160002060003373ffffffffffffffffffffffffffffffffffffffff1673ffffffffffffffffffffffffffffffffffffffff168152602001908152602001600020819055506117888484846121f4565b600190509392505050565b60008073ffffffffffffffffffffffffffffffffffffffff168373ffffffffffffffffffffffffffffffffffffffff16141515156117d057600080fd5b61185f82600460003373ffffffffffffffffffffffffffffffffffffffff1673ffffffffffffffffffffffffffffffffffffffff16815260200190815260200160002060008673ffffffffffffffffffffffffffffffffffffffff1673ffffffffffffffffffffffffffffffffffffffff16815260200190815260200160002054611ab490919063ffffffff16565b600460003373ffffffffffffffffffffffffffffffffffffffff1673ffffffffffffffffffffffffffffffffffffffff16815260200190815260200160002060008573ffffffffffffffffffffffffffffffffffffffff1673ffffffffffffffffffffffffffffffffffffffff168152602001908152602001600020819055508273ffffffffffffffffffffffffffffffffffffffff163373ffffffffffffffffffffffffffffffffffffffff167f8c5be1e5ebec7d5bd14f71427d1e84f3dd0314c0f7b2291e5b200ac8c7c3b925600460003373ffffffffffffffffffffffffffffffffffffffff1673ffffffffffffffffffffffffffffffffffffffff16815260200190815260200160002060008773ffffffffffffffffffffffffffffffffffffffff1673ffffffffffffffffffffffffffffffffffffffff168152602001908152602001600020546040518082815260200191505060405180910390a36001905092915050565b60008073ffffffffffffffffffffffffffffffffffffffff168273ffffffffffffffffffffffffffffffffffffffff1614151515611a0757600080fd5b8260000160008373ffffffffffffffffffffffffffffffffffffffff1673ffffffffffffffffffffffffffffffffffffffff16815260200190815260200160002060009054906101000a900460ff16905092915050565b6000600260008373ffffffffffffffffffffffffffffffffffffffff1673ffffffffffffffffffffffffffffffffffffffff16815260200190815260200160002060009054906101000a900460ff169050919050565b6000808284019050838110151515611acb57600080fd5b8091505092915050565b6000611ae0336113d1565b1515611aeb57600080fd5b611af58383612412565b6001905092915050565b600954811115611b1157806009819055505b50565b611b2881600161255290919063ffffffff16565b8073ffffffffffffffffffffffffffffffffffffffff167f427400d279c506df610224b22ecce89b693fc1865864113f21c8d19c1f0c2a3b60405160405180910390a250565b611b8281600661255290919063ffffffff16565b8073ffffffffffffffffffffffffffffffffffffffff167fcd265ebaf09df2871cc7bd4133404a235ba12eff2041bb89d9c714a2621c7c7e60405160405180910390a250565b611bdc81600661260190919063ffffffff16565b8073ffffffffffffffffffffffffffffffffffffffff167f6719d08c1888103bea251a4ed56406bd0c3e69723c8a1686e017e7bbe159b6f860405160405180910390a250565b611c3681600161260190919063ffffffff16565b8073ffffffffffffffffffffffffffffffffffffffff167fa7555c95b69d4f5cc847881feb4ab2883a1921319e34fa2043747b793d65b36e60405160405180910390a250565b611c9081600861260190919063ffffffff16565b8073ffffffffffffffffffffffffffffffffffffffff167f6ae172837ea30b801fbfcdd4108aa1d5bf8ff775444fd70256b44e6bf3dfc3f660405160405180910390a250565b611cea81600861255290919063ffffffff16565b8073ffffffffffffffffffffffffffffffffffffffff167fe94479a9f7e1952cc78f2d6baab678adc1b772d936c6583def489e524cb6669260405160405180910390a250565b6000600260008373ffffffffffffffffffffffffffffffffffffffff1673ffffffffffffffffffffffffffffffffffffffff16815260200190815260200160002060006101000a81548160ff02191690831515021790555050565b60008073ffffffffffffffffffffffffffffffffffffffff168373ffffffffffffffffffffffffffffffffffffffff1614151515611dc857600080fd5b611e5782600460003373ffffffffffffffffffffffffffffffffffffffff1673ffffffffffffffffffffffffffffffffffffffff16815260200190815260200160002060008673ffffffffffffffffffffffffffffffffffffffff1673ffffffffffffffffffffffffffffffffffffffff168152602001908152602001600020546121d390919063ffffffff16565b600460003373ffffffffffffffffffffffffffffffffffffffff1673ffffffffffffffffffffffffffffffffffffffff16815260200190815260200160002060008573ffffffffffffffffffffffffffffffffffffffff1673ffffffffffffffffffffffffffffffffffffffff168152602001908152602001600020819055508273ffffffffffffffffffffffffffffffffffffffff163373ffffffffffffffffffffffffffffffffffffffff167f8c5be1e5ebec7d5bd14f71427d1e84f3dd0314c0f7b2291e5b200ac8c7c3b925600460003373ffffffffffffffffffffffffffffffffffffffff1673ffffffffffffffffffffffffffffffffffffffff16815260200190815260200160002060008773ffffffffffffffffffffffffffffffffffffffff1673ffffffffffffffffffffffffffffffffffffffff168152602001908152602001600020546040518082815260200191505060405180910390a36001905092915050565b6000611fcf3384846121f4565b6001905092915050565b600073ffffffffffffffffffffffffffffffffffffffff168173ffffffffffffffffffffffffffffffffffffffff161415151561207e576040517f08c379a00000000000000000000000000000000000000000000000000000000081526004018080602001828103825260148152602001807f6465706f742063616e6e6f74206265206e756c6c00000000000000000000000081525060200191505060405180910390fd5b6001600260008373ffffffffffffffffffffffffffffffffffffffff1673ffffffffffffffffffffffffffffffffffffffff16815260200190815260200160002060006101000a81548160ff02191690831515021790555050565b600073ffffffffffffffffffffffffffffffffffffffff168173ffffffffffffffffffffffffffffffffffffffff161415151561211557600080fd5b8073ffffffffffffffffffffffffffffffffffffffff166000809054906101000a900473ffffffffffffffffffffffffffffffffffffffff1673ffffffffffffffffffffffffffffffffffffffff167f8be0079c531659141344cd1fd0a4f28419497f9722a3daafe3b4186f6b6457e060405160405180910390a3806000806101000a81548173ffffffffffffffffffffffffffffffffffffffff021916908373ffffffffffffffffffffffffffffffffffffffff16021790555050565b6000808383111515156121e557600080fd5b82840390508091505092915050565b600360008473ffffffffffffffffffffffffffffffffffffffff1673ffffffffffffffffffffffffffffffffffffffff16815260200190815260200160002054811115151561224257600080fd5b600073ffffffffffffffffffffffffffffffffffffffff168273ffffffffffffffffffffffffffffffffffffffff161415151561227e57600080fd5b6122d081600360008673ffffffffffffffffffffffffffffffffffffffff1673ffffffffffffffffffffffffffffffffffffffff168152602001908152602001600020546121d390919063ffffffff16565b600360008573ffffffffffffffffffffffffffffffffffffffff1673ffffffffffffffffffffffffffffffffffffffff1681526020019081526020016000208190555061236581600360008573ffffffffffffffffffffffffffffffffffffffff1673ffffffffffffffffffffffffffffffffffffffff16815260200190815260200160002054611ab490919063ffffffff16565b600360008473ffffffffffffffffffffffffffffffffffffffff1673ffffffffffffffffffffffffffffffffffffffff168152602001908152602001600020819055508173ffffffffffffffffffffffffffffffffffffffff168373ffffffffffffffffffffffffffffffffffffffff167fddf252ad1be2c89b69c2b068fc378daa952ba7f163c4a11628f55a4df523b3ef836040518082815260200191505060405180910390a3505050565b60008273ffffffffffffffffffffffffffffffffffffffff161415151561243857600080fd5b61244d81600554611ab490919063ffffffff16565b6005819055506124a581600360008573ffffffffffffffffffffffffffffffffffffffff1673ffffffffffffffffffffffffffffffffffffffff16815260200190815260200160002054611ab490919063ffffffff16565b600360008473ffffffffffffffffffffffffffffffffffffffff1673ffffffffffffffffffffffffffffffffffffffff168152602001908152602001600020819055508173ffffffffffffffffffffffffffffffffffffffff16600073ffffffffffffffffffffffffffffffffffffffff167fddf252ad1be2c89b69c2b068fc378daa952ba7f163c4a11628f55a4df523b3ef836040518082815260200191505060405180910390a35050565b600073ffffffffffffffffffffffffffffffffffffffff168173ffffffffffffffffffffffffffffffffffffffff161415151561258e57600080fd5b61259882826119ca565b15156125a357600080fd5b60008260000160008373ffffffffffffffffffffffffffffffffffffffff1673ffffffffffffffffffffffffffffffffffffffff16815260200190815260200160002060006101000a81548160ff0219169083151502179055505050565b600073ffffffffffffffffffffffffffffffffffffffff168173ffffffffffffffffffffffffffffffffffffffff161415151561263d57600080fd5b61264782826119ca565b15151561265357600080fd5b60018260000160008373ffffffffffffffffffffffffffffffffffffffff1673ffffffffffffffffffffffffffffffffffffffff16815260200190815260200160002060006101000a81548160ff02191690831515021790555050505600a165627a7a723058203853d36753c19122c63c705e708e8e3b648a567c3957f11c7c0750010af0cf320029",
  "source": "/// token.sol - base class for all Rock Stable tokens\n\n// Copyright (C) 2018, 2019 Rock Stable Token Inc\n\n// This is based on OpenZeppelin code.\n// You may not use this file except in compliance with the MIT License.\n\n// Unless required by applicable law or agreed to in writing, software\n// distributed under the License is distributed on an \"AS IS\" BASIS,\n// WITHOUT WARRANTIES OR CONDITIONS OF ANY KIND (express or implied).\n\npragma solidity ^0.4.24;\n\nimport { CapperRole } from \"openzeppelin-solidity/contracts/access/roles/CapperRole.sol\";\nimport { IERC20 } from \"openzeppelin-solidity/contracts/token/ERC20/IERC20.sol\";\nimport { ERC20Capped } from \"openzeppelin-solidity/contracts/token/ERC20/ERC20Capped.sol\";\nimport { ERC20Pausable } from \"openzeppelin-solidity/contracts/token/ERC20/ERC20Pausable.sol\";\nimport { Ownable } from \"openzeppelin-solidity/contracts/ownership/Ownable.sol\";\nimport { Token } from \"./token.sol\";\n\ncontract RSTIShares is Token {\n\n    modifier condition(bool _condition) {\n        require(_condition, \"condition not met\");\n        _;\n    }\n\n    constructor(address _owner, uint256 _initialCap)\n        public\n        condition(_initialCap > 0)\n        condition(_owner != address(0))\n        Token(_owner, _initialCap)\n    {\n        symbol = \"MONY\";\n        name = \"Rockstable Token Inc Shares\";\n        decimals = DECIMALS;\n    }\n}\n",
  "sourcePath": "C:\\Users\\ctapa\\source\\payment-system-contracts\\contracts\\RSTIShares.sol",
  "compiler": {
    "name": "solc",
    "version": "0.4.24+commit.e67f0147.Emscripten.clang"
  },
  "schemaVersion": "3.2.0",
  "updatedAt": "2020-05-31T03:31:50.987Z",
  "networkType": "ethereum",
  "devdoc": {
    "methods": {
      "allowance(address,address)": {
        "details": "Function to check the amount of tokens that an owner allowed to a spender.",
        "params": {
          "owner": "address The address which owns the funds.",
          "spender": "address The address which will spend the funds."
        },
        "return": "A uint256 specifying the amount of tokens still available for the spender."
      },
      "balanceOf(address)": {
        "details": "Gets the balance of the specified address.",
        "params": {
          "owner": "The address to query the balance of."
        },
        "return": "An uint256 representing the amount owned by the passed address."
      },
      "cap()": {
        "return": "the cap for the token minting."
      },
      "isOwner()": {
        "return": "true if `msg.sender` is the owner of the contract."
      },
      "mint(address,uint256)": {
        "details": "Function to mint tokens",
        "params": {
          "to": "The address that will receive the minted tokens.",
          "value": "The amount of tokens to mint."
        },
        "return": "A boolean that indicates if the operation was successful."
      },
      "owner()": {
        "return": "the address of the owner."
      },
      "pause()": {
        "details": "called by the owner to pause, triggers stopped state"
      },
      "paused()": {
        "return": "true if the contract is paused, false otherwise."
      },
      "renounceOwnership()": {
        "details": "Allows the current owner to relinquish control of the contract."
      },
      "totalSupply()": {
        "details": "Total number of tokens in existence"
      },
      "transferOwnership(address)": {
        "details": "Allows the current owner to transfer control of the contract to a newOwner.",
        "params": {
          "newOwner": "The address to transfer ownership to."
        }
      },
      "unpause()": {
        "details": "called by the owner to unpause, returns to normal state"
      }
    }
  },
  "userdoc": {
    "methods": {
      "renounceOwnership()": {
        "notice": "Renouncing to ownership will leave the contract without an owner. It will not be possible to call the functions with the `onlyOwner` modifier anymore."
      }
    }
  }
}