{
  "contractName": "SafeMathMock",
  "abi": [
    {
      "constant": true,
      "inputs": [
        {
          "name": "a",
          "type": "uint256"
        },
        {
          "name": "b",
          "type": "uint256"
        }
      ],
      "name": "mul",
      "outputs": [
        {
          "name": "",
          "type": "uint256"
        }
      ],
      "payable": false,
      "stateMutability": "pure",
      "type": "function"
    },
    {
      "constant": true,
      "inputs": [
        {
          "name": "a",
          "type": "uint256"
        },
        {
          "name": "b",
          "type": "uint256"
        }
      ],
      "name": "div",
      "outputs": [
        {
          "name": "",
          "type": "uint256"
        }
      ],
      "payable": false,
      "stateMutability": "pure",
      "type": "function"
    },
    {
      "constant": true,
      "inputs": [
        {
          "name": "a",
          "type": "uint256"
        },
        {
          "name": "b",
          "type": "uint256"
        }
      ],
      "name": "sub",
      "outputs": [
        {
          "name": "",
          "type": "uint256"
        }
      ],
      "payable": false,
      "stateMutability": "pure",
      "type": "function"
    },
    {
      "constant": true,
      "inputs": [
        {
          "name": "a",
          "type": "uint256"
        },
        {
          "name": "b",
          "type": "uint256"
        }
      ],
      "name": "add",
      "outputs": [
        {
          "name": "",
          "type": "uint256"
        }
      ],
      "payable": false,
      "stateMutability": "pure",
      "type": "function"
    },
    {
      "constant": true,
      "inputs": [
        {
          "name": "a",
          "type": "uint256"
        },
        {
          "name": "b",
          "type": "uint256"
        }
      ],
      "name": "mod",
      "outputs": [
        {
          "name": "",
          "type": "uint256"
        }
      ],
      "payable": false,
      "stateMutability": "pure",
      "type": "function"
    }
  ],
  "bytecode": "0x608060405234801561001057600080fd5b50610348806100206000396000f30060806040526004361061006d576000357c0100000000000000000000000000000000000000000000000000000000900463ffffffff168063771602f714610072578063a391c15b146100bd578063b67d77c514610108578063c8a4ac9c14610153578063f43f523a1461019e575b600080fd5b34801561007e57600080fd5b506100a760048036038101908080359060200190929190803590602001909291905050506101e9565b6040518082815260200191505060405180910390f35b3480156100c957600080fd5b506100f260048036038101908080359060200190929190803590602001909291905050506101fd565b6040518082815260200191505060405180910390f35b34801561011457600080fd5b5061013d6004803603810190808035906020019092919080359060200190929190505050610211565b6040518082815260200191505060405180910390f35b34801561015f57600080fd5b506101886004803603810190808035906020019092919080359060200190929190505050610225565b6040518082815260200191505060405180910390f35b3480156101aa57600080fd5b506101d36004803603810190808035906020019092919080359060200190929190505050610239565b6040518082815260200191505060405180910390f35b60006101f5838361024d565b905092915050565b6000610209838361026e565b905092915050565b600061021d8383610298565b905092915050565b600061023183836102b9565b905092915050565b600061024583836102f7565b905092915050565b600080828401905083811015151561026457600080fd5b8091505092915050565b60008060008311151561028057600080fd5b828481151561028b57fe5b0490508091505092915050565b6000808383111515156102aa57600080fd5b82840390508091505092915050565b60008060008414156102ce57600091506102f0565b82840290508284828115156102df57fe5b041415156102ec57600080fd5b8091505b5092915050565b600080821415151561030857600080fd5b818381151561031357fe5b069050929150505600a165627a7a723058209daec407327d0ee48f9c9315cabf6be158bc73f40aed5d03aae315b9aa0cfd6a0029",
  "source": "pragma solidity ^0.4.24;\n\nimport \"openzeppelin-solidity/contracts/math/SafeMath.sol\";\n\ncontract SafeMathMock {\n\n  function mul(uint256 a, uint256 b) public pure returns (uint256) {\n    return SafeMath.mul(a, b);\n  }\n\n  function div(uint256 a, uint256 b) public pure returns (uint256) {\n    return SafeMath.div(a, b);\n  }\n\n  function sub(uint256 a, uint256 b) public pure returns (uint256) {\n    return SafeMath.sub(a, b);\n  }\n\n  function add(uint256 a, uint256 b) public pure returns (uint256) {\n    return SafeMath.add(a, b);\n  }\n\n  function mod(uint256 a, uint256 b) public pure returns (uint256) {\n    return SafeMath.mod(a, b);\n  }\n}\n",
  "sourcePath": "C:\\Users\\ctapa\\source\\payment-system-contracts\\contracts\\mocks\\SafeMathMock.sol",
  "compiler": {
    "name": "solc",
    "version": "0.4.24+commit.e67f0147.Emscripten.clang"
  },
  "schemaVersion": "3.2.0",
  "updatedAt": "2020-05-31T01:54:38.596Z",
  "devdoc": {
    "methods": {}
  },
  "userdoc": {
    "methods": {}
  }
}