{
  "contractName": "SafeERC20Helper",
  "abi": [
    {
      "inputs": [],
      "payable": false,
      "stateMutability": "nonpayable",
      "type": "constructor"
    },
    {
      "constant": false,
      "inputs": [],
      "name": "doFailingTransfer",
      "outputs": [],
      "payable": false,
      "stateMutability": "nonpayable",
      "type": "function"
    },
    {
      "constant": false,
      "inputs": [],
      "name": "doFailingTransferFrom",
      "outputs": [],
      "payable": false,
      "stateMutability": "nonpayable",
      "type": "function"
    },
    {
      "constant": false,
      "inputs": [],
      "name": "doFailingApprove",
      "outputs": [],
      "payable": false,
      "stateMutability": "nonpayable",
      "type": "function"
    },
    {
      "constant": false,
      "inputs": [],
      "name": "doSucceedingTransfer",
      "outputs": [],
      "payable": false,
      "stateMutability": "nonpayable",
      "type": "function"
    },
    {
      "constant": false,
      "inputs": [],
      "name": "doSucceedingTransferFrom",
      "outputs": [],
      "payable": false,
      "stateMutability": "nonpayable",
      "type": "function"
    },
    {
      "constant": false,
      "inputs": [],
      "name": "doSucceedingApprove",
      "outputs": [],
      "payable": false,
      "stateMutability": "nonpayable",
      "type": "function"
    }
  ],
  "bytecode": "0x608060405234801561001057600080fd5b5033620f424061001e610163565b808373ffffffffffffffffffffffffffffffffffffffff1673ffffffffffffffffffffffffffffffffffffffff16815260200182815260200192505050604051809103906000f080158015610077573d6000803e3d6000fd5b506000806101000a81548173ffffffffffffffffffffffffffffffffffffffff021916908373ffffffffffffffffffffffffffffffffffffffff16021790555033620f42406100c4610173565b808373ffffffffffffffffffffffffffffffffffffffff1673ffffffffffffffffffffffffffffffffffffffff16815260200182815260200192505050604051809103906000f08015801561011d573d6000803e3d6000fd5b50600160006101000a81548173ffffffffffffffffffffffffffffffffffffffff021916908373ffffffffffffffffffffffffffffffffffffffff160217905550610183565b6040516128cc806108ca83390190565b6040516128cf8061319683390190565b610738806101926000396000f300608060405260043610610078576000357c0100000000000000000000000000000000000000000000000000000000900463ffffffff16806350930ca51461007d57806356b2c5bb146100945780636573ee1e146100ab578063afa03ac9146100c2578063b19faed8146100d9578063d7228bb5146100f0575b600080fd5b34801561008957600080fd5b50610092610107565b005b3480156100a057600080fd5b506100a9610159565b005b3480156100b757600080fd5b506100c06101a9565b005b3480156100ce57600080fd5b506100d76101f8565b005b3480156100e557600080fd5b506100ee610247565b005b3480156100fc57600080fd5b50610105610297565b005b61015760008060008060009054906101000a900473ffffffffffffffffffffffffffffffffffffffff1673ffffffffffffffffffffffffffffffffffffffff166102ea909392919063ffffffff16565b565b6101a7600080600160009054906101000a900473ffffffffffffffffffffffffffffffffffffffff1673ffffffffffffffffffffffffffffffffffffffff1661040d9092919063ffffffff16565b565b6101f66000806000809054906101000a900473ffffffffffffffffffffffffffffffffffffffff1673ffffffffffffffffffffffffffffffffffffffff166104fb9092919063ffffffff16565b565b6102456000806000809054906101000a900473ffffffffffffffffffffffffffffffffffffffff1673ffffffffffffffffffffffffffffffffffffffff1661040d9092919063ffffffff16565b565b610295600080600160009054906101000a900473ffffffffffffffffffffffffffffffffffffffff1673ffffffffffffffffffffffffffffffffffffffff166104fb9092919063ffffffff16565b565b6102e86000806000600160009054906101000a900473ffffffffffffffffffffffffffffffffffffffff1673ffffffffffffffffffffffffffffffffffffffff166102ea909392919063ffffffff16565b565b8373ffffffffffffffffffffffffffffffffffffffff166323b872dd8484846040518463ffffffff167c0100000000000000000000000000000000000000000000000000000000028152600401808473ffffffffffffffffffffffffffffffffffffffff1673ffffffffffffffffffffffffffffffffffffffff1681526020018373ffffffffffffffffffffffffffffffffffffffff1673ffffffffffffffffffffffffffffffffffffffff1681526020018281526020019350505050602060405180830381600087803b1580156103c157600080fd5b505af11580156103d5573d6000803e3d6000fd5b505050506040513d60208110156103eb57600080fd5b8101908080519060200190929190505050151561040757600080fd5b50505050565b8273ffffffffffffffffffffffffffffffffffffffff1663a9059cbb83836040518363ffffffff167c0100000000000000000000000000000000000000000000000000000000028152600401808373ffffffffffffffffffffffffffffffffffffffff1673ffffffffffffffffffffffffffffffffffffffff16815260200182815260200192505050602060405180830381600087803b1580156104b057600080fd5b505af11580156104c4573d6000803e3d6000fd5b505050506040513d60208110156104da57600080fd5b810190808051906020019092919050505015156104f657600080fd5b505050565b6000811480610613575060008373ffffffffffffffffffffffffffffffffffffffff1663dd62ed3e33856040518363ffffffff167c0100000000000000000000000000000000000000000000000000000000028152600401808373ffffffffffffffffffffffffffffffffffffffff1673ffffffffffffffffffffffffffffffffffffffff1681526020018273ffffffffffffffffffffffffffffffffffffffff1673ffffffffffffffffffffffffffffffffffffffff16815260200192505050602060405180830381600087803b1580156105d657600080fd5b505af11580156105ea573d6000803e3d6000fd5b505050506040513d602081101561060057600080fd5b8101908080519060200190929190505050145b151561061e57600080fd5b8273ffffffffffffffffffffffffffffffffffffffff1663095ea7b383836040518363ffffffff167c0100000000000000000000000000000000000000000000000000000000028152600401808373ffffffffffffffffffffffffffffffffffffffff1673ffffffffffffffffffffffffffffffffffffffff16815260200182815260200192505050602060405180830381600087803b1580156106c157600080fd5b505af11580156106d5573d6000803e3d6000fd5b505050506040513d60208110156106eb57600080fd5b8101908080519060200190929190505050151561070757600080fd5b5050505600a165627a7a7230582093ad6797465b92d581586c17d057b40741fdbf299e7e5cb65e8915471d839859002960806040523480156200001157600080fd5b50604051604080620028cc8339810180604052810190808051906020019092919080519060200190929190505050818180336000806101000a81548173ffffffffffffffffffffffffffffffffffffffff021916908373ffffffffffffffffffffffffffffffffffffffff1602179055506000809054906101000a900473ffffffffffffffffffffffffffffffffffffffff1673ffffffffffffffffffffffffffffffffffffffff16600073ffffffffffffffffffffffffffffffffffffffff167f8be0079c531659141344cd1fd0a4f28419497f9722a3daafe3b4186f6b6457e060405160405180910390a3620001183362000316640100000000026401000000009004565b620001323362000380640100000000026401000000009004565b6000600760006101000a81548160ff0219169083151502179055506200016733620003ea640100000000026401000000009004565b600081111515620001e0576040517f08c379a00000000000000000000000000000000000000000000000000000000081526004018080602001828103825260128152602001807f4361702063616e6e6f74206265207a65726f000000000000000000000000000081525060200191505060405180910390fd5b806009819055505060008273ffffffffffffffffffffffffffffffffffffffff161415151562000278576040517f08c379a00000000000000000000000000000000000000000000000000000000081526004018080602001828103825260168152602001807f70726f706f736564206f776e6572206973206e756c6c0000000000000000000081525060200191505060405180910390fd5b8173ffffffffffffffffffffffffffffffffffffffff163373ffffffffffffffffffffffffffffffffffffffff161415156200030c57620002cd82620004546401000000000262001368176401000000009004565b620002ec82620004966401000000000262001100176401000000009004565b6200030b82620004d96401000000000262001007176401000000009004565b5b5050505062000820565b6200033a8160016200051c6401000000000262001f9f179091906401000000009004565b8073ffffffffffffffffffffffffffffffffffffffff167fa7555c95b69d4f5cc847881feb4ab2883a1921319e34fa2043747b793d65b36e60405160405180910390a250565b620003a48160066200051c6401000000000262001f9f179091906401000000009004565b8073ffffffffffffffffffffffffffffffffffffffff167f6719d08c1888103bea251a4ed56406bd0c3e69723c8a1686e017e7bbe159b6f860405160405180910390a250565b6200040e8160086200051c6401000000000262001f9f179091906401000000009004565b8073ffffffffffffffffffffffffffffffffffffffff167f6ae172837ea30b801fbfcdd4108aa1d5bf8ff775444fd70256b44e6bf3dfc3f660405160405180910390a250565b6200046d620005df640100000000026401000000009004565b15156200047957600080fd5b620004938162000636640100000000026401000000009004565b50565b620004b03362000731640100000000026401000000009004565b1515620004bc57600080fd5b620004d68162000316640100000000026401000000009004565b50565b620004f3336200075e640100000000026401000000009004565b1515620004ff57600080fd5b620005198162000380640100000000026401000000009004565b50565b600073ffffffffffffffffffffffffffffffffffffffff168173ffffffffffffffffffffffffffffffffffffffff16141515156200055957600080fd5b6200057482826200078b640100000000026401000000009004565b1515156200058157600080fd5b60018260000160008373ffffffffffffffffffffffffffffffffffffffff1673ffffffffffffffffffffffffffffffffffffffff16815260200190815260200160002060006101000a81548160ff0219169083151502179055505050565b60008060009054906101000a900473ffffffffffffffffffffffffffffffffffffffff1673ffffffffffffffffffffffffffffffffffffffff163373ffffffffffffffffffffffffffffffffffffffff1614905090565b600073ffffffffffffffffffffffffffffffffffffffff168173ffffffffffffffffffffffffffffffffffffffff16141515156200067357600080fd5b8073ffffffffffffffffffffffffffffffffffffffff166000809054906101000a900473ffffffffffffffffffffffffffffffffffffffff1673ffffffffffffffffffffffffffffffffffffffff167f8be0079c531659141344cd1fd0a4f28419497f9722a3daafe3b4186f6b6457e060405160405180910390a3806000806101000a81548173ffffffffffffffffffffffffffffffffffffffff021916908373ffffffffffffffffffffffffffffffffffffffff16021790555050565b6000620007578260016200078b64010000000002620015be179091906401000000009004565b9050919050565b6000620007848260066200078b64010000000002620015be179091906401000000009004565b9050919050565b60008073ffffffffffffffffffffffffffffffffffffffff168273ffffffffffffffffffffffffffffffffffffffff1614151515620007c957600080fd5b8260000160008373ffffffffffffffffffffffffffffffffffffffff1673ffffffffffffffffffffffffffffffffffffffff16815260200190815260200160002060009054906101000a900460ff16905092915050565b61209c80620008306000396000f3006080604052600436106101c2576000357c0100000000000000000000000000000000000000000000000000000000900463ffffffff16806306fdde03146101c7578063095ea7b31461025757806318160ddd146102bc57806323b872dd146102e75780632e0f26251461036c578063313ce56714610397578063355274ea146103c257806339509351146103ed57806339564561146104525780633f4ba83a146104ad57806340c10f19146104c457806346fbf68e1461052957806347786d37146105845780635c975abb146105b15780635d5576f8146105e05780636a146024146105f75780636b3b2cf9146106225780636ef8d66d1461067d57806370a0823114610694578063715018a6146106eb57806382dc1ec4146107025780638456cb59146107455780638da5cb5b1461075c5780638dfbcf36146107b35780638f32d59b146107f6578063918f86741461082557806395d89b4114610850578063983b2d56146108e0578063986502751461092357806399396ace1461093a578063a457c2d71461097d578063a9059cbb146109e2578063aa271e1a14610a47578063bb318c4214610aa2578063dd62ed3e14610ae5578063f2fde38b14610b5c575b600080fd5b3480156101d357600080fd5b506101dc610b9f565b6040518080602001828103825283818151815260200191508051906020019080838360005b8381101561021c578082015181840152602081019050610201565b50505050905090810190601f1680156102495780820380516001836020036101000a031916815260200191505b509250505060405180910390f35b34801561026357600080fd5b506102a2600480360381019080803573ffffffffffffffffffffffffffffffffffffffff16906020019092919080359060200190929190505050610c3d565b604051808215151515815260200191505060405180910390f35b3480156102c857600080fd5b506102d1610c48565b6040518082815260200191505060405180910390f35b3480156102f357600080fd5b50610352600480360381019080803573ffffffffffffffffffffffffffffffffffffffff169060200190929190803573ffffffffffffffffffffffffffffffffffffffff16906020019092919080359060200190929190505050610c50565b604051808215151515815260200191505060405180910390f35b34801561037857600080fd5b50610381610c5c565b6040518082815260200191505060405180910390f35b3480156103a357600080fd5b506103ac610c61565b6040518082815260200191505060405180910390f35b3480156103ce57600080fd5b506103d7610c67565b6040518082815260200191505060405180910390f35b3480156103f957600080fd5b50610438600480360381019080803573ffffffffffffffffffffffffffffffffffffffff16906020019092919080359060200190929190505050610c71565b604051808215151515815260200191505060405180910390f35b34801561045e57600080fd5b50610493600480360381019080803573ffffffffffffffffffffffffffffffffffffffff169060200190929190505050610ca1565b604051808215151515815260200191505060405180910390f35b3480156104b957600080fd5b506104c2610cbe565b005b3480156104d057600080fd5b5061050f600480360381019080803573ffffffffffffffffffffffffffffffffffffffff16906020019092919080359060200190929190505050610d6d565b604051808215151515815260200191505060405180910390f35b34801561053557600080fd5b5061056a600480360381019080803573ffffffffffffffffffffffffffffffffffffffff169060200190929190505050610ea7565b604051808215151515815260200191505060405180910390f35b34801561059057600080fd5b506105af60048036038101908080359060200190929190505050610ec4565b005b3480156105bd57600080fd5b506105c6610ee4565b604051808215151515815260200191505060405180910390f35b3480156105ec57600080fd5b506105f5610efb565b005b34801561060357600080fd5b5061060c610f06565b6040518082815260200191505060405180910390f35b34801561062e57600080fd5b50610663600480360381019080803573ffffffffffffffffffffffffffffffffffffffff169060200190929190505050610f0e565b604051808215151515815260200191505060405180910390f35b34801561068957600080fd5b50610692610f20565b005b3480156106a057600080fd5b506106d5600480360381019080803573ffffffffffffffffffffffffffffffffffffffff169060200190929190505050610f2b565b6040518082815260200191505060405180910390f35b3480156106f757600080fd5b50610700610f35565b005b34801561070e57600080fd5b50610743600480360381019080803573ffffffffffffffffffffffffffffffffffffffff169060200190929190505050611007565b005b34801561075157600080fd5b5061075a611027565b005b34801561076857600080fd5b506107716110d7565b604051808273ffffffffffffffffffffffffffffffffffffffff1673ffffffffffffffffffffffffffffffffffffffff16815260200191505060405180910390f35b3480156107bf57600080fd5b506107f4600480360381019080803573ffffffffffffffffffffffffffffffffffffffff169060200190929190505050611100565b005b34801561080257600080fd5b5061080b611120565b604051808215151515815260200191505060405180910390f35b34801561083157600080fd5b5061083a611177565b6040518082815260200191505060405180910390f35b34801561085c57600080fd5b5061086561117d565b6040518080602001828103825283818151815260200191508051906020019080838360005b838110156108a557808201518184015260208101905061088a565b50505050905090810190601f1680156108d25780820380516001836020036101000a031916815260200191505b509250505060405180910390f35b3480156108ec57600080fd5b50610921600480360381019080803573ffffffffffffffffffffffffffffffffffffffff16906020019092919050505061121b565b005b34801561092f57600080fd5b5061093861123b565b005b34801561094657600080fd5b5061097b600480360381019080803573ffffffffffffffffffffffffffffffffffffffff169060200190929190505050611246565b005b34801561098957600080fd5b506109c8600480360381019080803573ffffffffffffffffffffffffffffffffffffffff169060200190929190803590602001909291905050506112e5565b604051808215151515815260200191505060405180910390f35b3480156109ee57600080fd5b50610a2d600480360381019080803573ffffffffffffffffffffffffffffffffffffffff16906020019092919080359060200190929190505050611315565b604051808215151515815260200191505060405180910390f35b348015610a5357600080fd5b50610a88600480360381019080803573ffffffffffffffffffffffffffffffffffffffff169060200190929190505050611320565b604051808215151515815260200191505060405180910390f35b348015610aae57600080fd5b50610ae3600480360381019080803573ffffffffffffffffffffffffffffffffffffffff16906020019092919050505061133d565b005b348015610af157600080fd5b50610b46600480360381019080803573ffffffffffffffffffffffffffffffffffffffff169060200190929190803573ffffffffffffffffffffffffffffffffffffffff16906020019092919050505061135d565b6040518082815260200191505060405180910390f35b348015610b6857600080fd5b50610b9d600480360381019080803573ffffffffffffffffffffffffffffffffffffffff169060200190929190505050611368565b005b600c8054600181600116156101000203166002900480601f016020809104026020016040519081016040528092919081815260200182805460018160011615610100020316600290048015610c355780601f10610c0a57610100808354040283529160200191610c35565b820191906000526020600020905b815481529060010190602001808311610c1857829003601f168201915b505050505081565b600080905092915050565b600080905090565b60008090509392505050565b601281565b600b5481565b6000600954905090565b6000600760009054906101000a900460ff16151515610c8f57600080fd5b610c998383611387565b905092915050565b6000610cb78260016115be90919063ffffffff16565b9050919050565b610cc733610ea7565b1515610cd257600080fd5b600760009054906101000a900460ff161515610ced57600080fd5b6000600760006101000a81548160ff0219169083151502179055507f5db9ee0a495bf2e6ff9c91a7834c1ba4fdd244a5e8aa4e537bd38aeae4b073aa33604051808273ffffffffffffffffffffffffffffffffffffffff1673ffffffffffffffffffffffffffffffffffffffff16815260200191505060405180910390a1565b6000610d7833611320565b1515610d8357600080fd5b82610d8d81611652565b1515610e01576040517f08c379a00000000000000000000000000000000000000000000000000000000081526004018080602001828103825260138152602001807f6e6f742061206465706f7420616464726573730000000000000000000000000081525060200191505060405180910390fd5b600954610e1e84610e10610c48565b6116a890919063ffffffff16565b11151515610e94576040517f08c379a00000000000000000000000000000000000000000000000000000000081526004018080602001828103825260198152602001807f6d696e742076616c7565206c696d69742065786365656465640000000000000081525060200191505060405180910390fd5b610e9e84846116c9565b91505092915050565b6000610ebd8260066115be90919063ffffffff16565b9050919050565b610ecd33610ca1565b1515610ed857600080fd5b610ee1816116f3565b50565b6000600760009054906101000a900460ff16905090565b610f0433611708565b565b6012600a0a81565b6000610f1982611652565b9050919050565b610f2933611762565b565b6000809050919050565b610f3d611120565b1515610f4857600080fd5b600073ffffffffffffffffffffffffffffffffffffffff166000809054906101000a900473ffffffffffffffffffffffffffffffffffffffff1673ffffffffffffffffffffffffffffffffffffffff167f8be0079c531659141344cd1fd0a4f28419497f9722a3daafe3b4186f6b6457e060405160405180910390a360008060006101000a81548173ffffffffffffffffffffffffffffffffffffffff021916908373ffffffffffffffffffffffffffffffffffffffff160217905550565b61101033610ea7565b151561101b57600080fd5b611024816117bc565b50565b61103033610ea7565b151561103b57600080fd5b600760009054906101000a900460ff1615151561105757600080fd5b6001600760006101000a81548160ff0219169083151502179055507f62e78cea01bee320cd4e420270b5ea74000d11b0c9f74754ebdbfc544b05a25833604051808273ffffffffffffffffffffffffffffffffffffffff1673ffffffffffffffffffffffffffffffffffffffff16815260200191505060405180910390a1565b60008060009054906101000a900473ffffffffffffffffffffffffffffffffffffffff16905090565b61110933610ca1565b151561111457600080fd5b61111d81611816565b50565b60008060009054906101000a900473ffffffffffffffffffffffffffffffffffffffff1673ffffffffffffffffffffffffffffffffffffffff163373ffffffffffffffffffffffffffffffffffffffff1614905090565b61271081565b600a8054600181600116156101000203166002900480601f0160208091040260200160405190810160405280929190818152602001828054600181600116156101000203166002900480156112135780601f106111e857610100808354040283529160200191611213565b820191906000526020600020905b8154815290600101906020018083116111f657829003601f168201915b505050505081565b61122433611320565b151561122f57600080fd5b61123881611870565b50565b611244336118ca565b565b61124f33610ca1565b151561125a57600080fd5b8061126481611652565b15156112d8576040517f08c379a00000000000000000000000000000000000000000000000000000000081526004018080602001828103825260138152602001807f6e6f742061206465706f7420616464726573730000000000000000000000000081525060200191505060405180910390fd5b6112e182611924565b5050565b6000600760009054906101000a900460ff1615151561130357600080fd5b61130d838361197f565b905092915050565b600080905092915050565b60006113368260086115be90919063ffffffff16565b9050919050565b61134633610ca1565b151561135157600080fd5b61135a81611bb6565b50565b600080905092915050565b611370611120565b151561137b57600080fd5b61138481611cb6565b50565b60008073ffffffffffffffffffffffffffffffffffffffff168373ffffffffffffffffffffffffffffffffffffffff16141515156113c457600080fd5b61145382600460003373ffffffffffffffffffffffffffffffffffffffff1673ffffffffffffffffffffffffffffffffffffffff16815260200190815260200160002060008673ffffffffffffffffffffffffffffffffffffffff1673ffffffffffffffffffffffffffffffffffffffff168152602001908152602001600020546116a890919063ffffffff16565b600460003373ffffffffffffffffffffffffffffffffffffffff1673ffffffffffffffffffffffffffffffffffffffff16815260200190815260200160002060008573ffffffffffffffffffffffffffffffffffffffff1673ffffffffffffffffffffffffffffffffffffffff168152602001908152602001600020819055508273ffffffffffffffffffffffffffffffffffffffff163373ffffffffffffffffffffffffffffffffffffffff167f8c5be1e5ebec7d5bd14f71427d1e84f3dd0314c0f7b2291e5b200ac8c7c3b925600460003373ffffffffffffffffffffffffffffffffffffffff1673ffffffffffffffffffffffffffffffffffffffff16815260200190815260200160002060008773ffffffffffffffffffffffffffffffffffffffff1673ffffffffffffffffffffffffffffffffffffffff168152602001908152602001600020546040518082815260200191505060405180910390a36001905092915050565b60008073ffffffffffffffffffffffffffffffffffffffff168273ffffffffffffffffffffffffffffffffffffffff16141515156115fb57600080fd5b8260000160008373ffffffffffffffffffffffffffffffffffffffff1673ffffffffffffffffffffffffffffffffffffffff16815260200190815260200160002060009054906101000a900460ff16905092915050565b6000600260008373ffffffffffffffffffffffffffffffffffffffff1673ffffffffffffffffffffffffffffffffffffffff16815260200190815260200160002060009054906101000a900460ff169050919050565b60008082840190508381101515156116bf57600080fd5b8091505092915050565b60006116d433611320565b15156116df57600080fd5b6116e98383611db0565b6001905092915050565b60095481111561170557806009819055505b50565b61171c816001611ef090919063ffffffff16565b8073ffffffffffffffffffffffffffffffffffffffff167f427400d279c506df610224b22ecce89b693fc1865864113f21c8d19c1f0c2a3b60405160405180910390a250565b611776816006611ef090919063ffffffff16565b8073ffffffffffffffffffffffffffffffffffffffff167fcd265ebaf09df2871cc7bd4133404a235ba12eff2041bb89d9c714a2621c7c7e60405160405180910390a250565b6117d0816006611f9f90919063ffffffff16565b8073ffffffffffffffffffffffffffffffffffffffff167f6719d08c1888103bea251a4ed56406bd0c3e69723c8a1686e017e7bbe159b6f860405160405180910390a250565b61182a816001611f9f90919063ffffffff16565b8073ffffffffffffffffffffffffffffffffffffffff167fa7555c95b69d4f5cc847881feb4ab2883a1921319e34fa2043747b793d65b36e60405160405180910390a250565b611884816008611f9f90919063ffffffff16565b8073ffffffffffffffffffffffffffffffffffffffff167f6ae172837ea30b801fbfcdd4108aa1d5bf8ff775444fd70256b44e6bf3dfc3f660405160405180910390a250565b6118de816008611ef090919063ffffffff16565b8073ffffffffffffffffffffffffffffffffffffffff167fe94479a9f7e1952cc78f2d6baab678adc1b772d936c6583def489e524cb6669260405160405180910390a250565b6000600260008373ffffffffffffffffffffffffffffffffffffffff1673ffffffffffffffffffffffffffffffffffffffff16815260200190815260200160002060006101000a81548160ff02191690831515021790555050565b60008073ffffffffffffffffffffffffffffffffffffffff168373ffffffffffffffffffffffffffffffffffffffff16141515156119bc57600080fd5b611a4b82600460003373ffffffffffffffffffffffffffffffffffffffff1673ffffffffffffffffffffffffffffffffffffffff16815260200190815260200160002060008673ffffffffffffffffffffffffffffffffffffffff1673ffffffffffffffffffffffffffffffffffffffff1681526020019081526020016000205461204f90919063ffffffff16565b600460003373ffffffffffffffffffffffffffffffffffffffff1673ffffffffffffffffffffffffffffffffffffffff16815260200190815260200160002060008573ffffffffffffffffffffffffffffffffffffffff1673ffffffffffffffffffffffffffffffffffffffff168152602001908152602001600020819055508273ffffffffffffffffffffffffffffffffffffffff163373ffffffffffffffffffffffffffffffffffffffff167f8c5be1e5ebec7d5bd14f71427d1e84f3dd0314c0f7b2291e5b200ac8c7c3b925600460003373ffffffffffffffffffffffffffffffffffffffff1673ffffffffffffffffffffffffffffffffffffffff16815260200190815260200160002060008773ffffffffffffffffffffffffffffffffffffffff1673ffffffffffffffffffffffffffffffffffffffff168152602001908152602001600020546040518082815260200191505060405180910390a36001905092915050565b600073ffffffffffffffffffffffffffffffffffffffff168173ffffffffffffffffffffffffffffffffffffffff1614151515611c5b576040517f08c379a00000000000000000000000000000000000000000000000000000000081526004018080602001828103825260148152602001807f6465706f742063616e6e6f74206265206e756c6c00000000000000000000000081525060200191505060405180910390fd5b6001600260008373ffffffffffffffffffffffffffffffffffffffff1673ffffffffffffffffffffffffffffffffffffffff16815260200190815260200160002060006101000a81548160ff02191690831515021790555050565b600073ffffffffffffffffffffffffffffffffffffffff168173ffffffffffffffffffffffffffffffffffffffff1614151515611cf257600080fd5b8073ffffffffffffffffffffffffffffffffffffffff166000809054906101000a900473ffffffffffffffffffffffffffffffffffffffff1673ffffffffffffffffffffffffffffffffffffffff167f8be0079c531659141344cd1fd0a4f28419497f9722a3daafe3b4186f6b6457e060405160405180910390a3806000806101000a81548173ffffffffffffffffffffffffffffffffffffffff021916908373ffffffffffffffffffffffffffffffffffffffff16021790555050565b60008273ffffffffffffffffffffffffffffffffffffffff1614151515611dd657600080fd5b611deb816005546116a890919063ffffffff16565b600581905550611e4381600360008573ffffffffffffffffffffffffffffffffffffffff1673ffffffffffffffffffffffffffffffffffffffff168152602001908152602001600020546116a890919063ffffffff16565b600360008473ffffffffffffffffffffffffffffffffffffffff1673ffffffffffffffffffffffffffffffffffffffff168152602001908152602001600020819055508173ffffffffffffffffffffffffffffffffffffffff16600073ffffffffffffffffffffffffffffffffffffffff167fddf252ad1be2c89b69c2b068fc378daa952ba7f163c4a11628f55a4df523b3ef836040518082815260200191505060405180910390a35050565b600073ffffffffffffffffffffffffffffffffffffffff168173ffffffffffffffffffffffffffffffffffffffff1614151515611f2c57600080fd5b611f3682826115be565b1515611f4157600080fd5b60008260000160008373ffffffffffffffffffffffffffffffffffffffff1673ffffffffffffffffffffffffffffffffffffffff16815260200190815260200160002060006101000a81548160ff0219169083151502179055505050565b600073ffffffffffffffffffffffffffffffffffffffff168173ffffffffffffffffffffffffffffffffffffffff1614151515611fdb57600080fd5b611fe582826115be565b151515611ff157600080fd5b60018260000160008373ffffffffffffffffffffffffffffffffffffffff1673ffffffffffffffffffffffffffffffffffffffff16815260200190815260200160002060006101000a81548160ff0219169083151502179055505050565b60008083831115151561206157600080fd5b828403905080915050929150505600a165627a7a723058205c70e695bc1a1fa2653311d1f7aa462bddfe47de4ab431db867cdcbb146ac079002960806040523480156200001157600080fd5b50604051604080620028cf8339810180604052810190808051906020019092919080519060200190929190505050818180336000806101000a81548173ffffffffffffffffffffffffffffffffffffffff021916908373ffffffffffffffffffffffffffffffffffffffff1602179055506000809054906101000a900473ffffffffffffffffffffffffffffffffffffffff1673ffffffffffffffffffffffffffffffffffffffff16600073ffffffffffffffffffffffffffffffffffffffff167f8be0079c531659141344cd1fd0a4f28419497f9722a3daafe3b4186f6b6457e060405160405180910390a3620001183362000316640100000000026401000000009004565b620001323362000380640100000000026401000000009004565b6000600760006101000a81548160ff0219169083151502179055506200016733620003ea640100000000026401000000009004565b600081111515620001e0576040517f08c379a00000000000000000000000000000000000000000000000000000000081526004018080602001828103825260128152602001807f4361702063616e6e6f74206265207a65726f000000000000000000000000000081525060200191505060405180910390fd5b806009819055505060008273ffffffffffffffffffffffffffffffffffffffff161415151562000278576040517f08c379a00000000000000000000000000000000000000000000000000000000081526004018080602001828103825260168152602001807f70726f706f736564206f776e6572206973206e756c6c0000000000000000000081525060200191505060405180910390fd5b8173ffffffffffffffffffffffffffffffffffffffff163373ffffffffffffffffffffffffffffffffffffffff161415156200030c57620002cd8262000454640100000000026200136b176401000000009004565b620002ec82620004966401000000000262001102176401000000009004565b6200030b82620004d96401000000000262001009176401000000009004565b5b5050505062000820565b6200033a8160016200051c6401000000000262001fa2179091906401000000009004565b8073ffffffffffffffffffffffffffffffffffffffff167fa7555c95b69d4f5cc847881feb4ab2883a1921319e34fa2043747b793d65b36e60405160405180910390a250565b620003a48160066200051c6401000000000262001fa2179091906401000000009004565b8073ffffffffffffffffffffffffffffffffffffffff167f6719d08c1888103bea251a4ed56406bd0c3e69723c8a1686e017e7bbe159b6f860405160405180910390a250565b6200040e8160086200051c6401000000000262001fa2179091906401000000009004565b8073ffffffffffffffffffffffffffffffffffffffff167f6ae172837ea30b801fbfcdd4108aa1d5bf8ff775444fd70256b44e6bf3dfc3f660405160405180910390a250565b6200046d620005df640100000000026401000000009004565b15156200047957600080fd5b620004938162000636640100000000026401000000009004565b50565b620004b03362000731640100000000026401000000009004565b1515620004bc57600080fd5b620004d68162000316640100000000026401000000009004565b50565b620004f3336200075e640100000000026401000000009004565b1515620004ff57600080fd5b620005198162000380640100000000026401000000009004565b50565b600073ffffffffffffffffffffffffffffffffffffffff168173ffffffffffffffffffffffffffffffffffffffff16141515156200055957600080fd5b6200057482826200078b640100000000026401000000009004565b1515156200058157600080fd5b60018260000160008373ffffffffffffffffffffffffffffffffffffffff1673ffffffffffffffffffffffffffffffffffffffff16815260200190815260200160002060006101000a81548160ff0219169083151502179055505050565b60008060009054906101000a900473ffffffffffffffffffffffffffffffffffffffff1673ffffffffffffffffffffffffffffffffffffffff163373ffffffffffffffffffffffffffffffffffffffff1614905090565b600073ffffffffffffffffffffffffffffffffffffffff168173ffffffffffffffffffffffffffffffffffffffff16141515156200067357600080fd5b8073ffffffffffffffffffffffffffffffffffffffff166000809054906101000a900473ffffffffffffffffffffffffffffffffffffffff1673ffffffffffffffffffffffffffffffffffffffff167f8be0079c531659141344cd1fd0a4f28419497f9722a3daafe3b4186f6b6457e060405160405180910390a3806000806101000a81548173ffffffffffffffffffffffffffffffffffffffff021916908373ffffffffffffffffffffffffffffffffffffffff16021790555050565b6000620007578260016200078b64010000000002620015c1179091906401000000009004565b9050919050565b6000620007848260066200078b64010000000002620015c1179091906401000000009004565b9050919050565b60008073ffffffffffffffffffffffffffffffffffffffff168273ffffffffffffffffffffffffffffffffffffffff1614151515620007c957600080fd5b8260000160008373ffffffffffffffffffffffffffffffffffffffff1673ffffffffffffffffffffffffffffffffffffffff16815260200190815260200160002060009054906101000a900460ff16905092915050565b61209f80620008306000396000f3006080604052600436106101c2576000357c0100000000000000000000000000000000000000000000000000000000900463ffffffff16806306fdde03146101c7578063095ea7b31461025757806318160ddd146102bc57806323b872dd146102e75780632e0f26251461036c578063313ce56714610397578063355274ea146103c257806339509351146103ed57806339564561146104525780633f4ba83a146104ad57806340c10f19146104c457806346fbf68e1461052957806347786d37146105845780635c975abb146105b15780635d5576f8146105e05780636a146024146105f75780636b3b2cf9146106225780636ef8d66d1461067d57806370a0823114610694578063715018a6146106eb57806382dc1ec4146107025780638456cb59146107455780638da5cb5b1461075c5780638dfbcf36146107b35780638f32d59b146107f6578063918f86741461082557806395d89b4114610850578063983b2d56146108e0578063986502751461092357806399396ace1461093a578063a457c2d71461097d578063a9059cbb146109e2578063aa271e1a14610a47578063bb318c4214610aa2578063dd62ed3e14610ae5578063f2fde38b14610b5c575b600080fd5b3480156101d357600080fd5b506101dc610b9f565b6040518080602001828103825283818151815260200191508051906020019080838360005b8381101561021c578082015181840152602081019050610201565b50505050905090810190601f1680156102495780820380516001836020036101000a031916815260200191505b509250505060405180910390f35b34801561026357600080fd5b506102a2600480360381019080803573ffffffffffffffffffffffffffffffffffffffff16906020019092919080359060200190929190505050610c3d565b604051808215151515815260200191505060405180910390f35b3480156102c857600080fd5b506102d1610c49565b6040518082815260200191505060405180910390f35b3480156102f357600080fd5b50610352600480360381019080803573ffffffffffffffffffffffffffffffffffffffff169060200190929190803573ffffffffffffffffffffffffffffffffffffffff16906020019092919080359060200190929190505050610c51565b604051808215151515815260200191505060405180910390f35b34801561037857600080fd5b50610381610c5e565b6040518082815260200191505060405180910390f35b3480156103a357600080fd5b506103ac610c63565b6040518082815260200191505060405180910390f35b3480156103ce57600080fd5b506103d7610c69565b6040518082815260200191505060405180910390f35b3480156103f957600080fd5b50610438600480360381019080803573ffffffffffffffffffffffffffffffffffffffff16906020019092919080359060200190929190505050610c73565b604051808215151515815260200191505060405180910390f35b34801561045e57600080fd5b50610493600480360381019080803573ffffffffffffffffffffffffffffffffffffffff169060200190929190505050610ca3565b604051808215151515815260200191505060405180910390f35b3480156104b957600080fd5b506104c2610cc0565b005b3480156104d057600080fd5b5061050f600480360381019080803573ffffffffffffffffffffffffffffffffffffffff16906020019092919080359060200190929190505050610d6f565b604051808215151515815260200191505060405180910390f35b34801561053557600080fd5b5061056a600480360381019080803573ffffffffffffffffffffffffffffffffffffffff169060200190929190505050610ea9565b604051808215151515815260200191505060405180910390f35b34801561059057600080fd5b506105af60048036038101908080359060200190929190505050610ec6565b005b3480156105bd57600080fd5b506105c6610ee6565b604051808215151515815260200191505060405180910390f35b3480156105ec57600080fd5b506105f5610efd565b005b34801561060357600080fd5b5061060c610f08565b6040518082815260200191505060405180910390f35b34801561062e57600080fd5b50610663600480360381019080803573ffffffffffffffffffffffffffffffffffffffff169060200190929190505050610f10565b604051808215151515815260200191505060405180910390f35b34801561068957600080fd5b50610692610f22565b005b3480156106a057600080fd5b506106d5600480360381019080803573ffffffffffffffffffffffffffffffffffffffff169060200190929190505050610f2d565b6040518082815260200191505060405180910390f35b3480156106f757600080fd5b50610700610f37565b005b34801561070e57600080fd5b50610743600480360381019080803573ffffffffffffffffffffffffffffffffffffffff169060200190929190505050611009565b005b34801561075157600080fd5b5061075a611029565b005b34801561076857600080fd5b506107716110d9565b604051808273ffffffffffffffffffffffffffffffffffffffff1673ffffffffffffffffffffffffffffffffffffffff16815260200191505060405180910390f35b3480156107bf57600080fd5b506107f4600480360381019080803573ffffffffffffffffffffffffffffffffffffffff169060200190929190505050611102565b005b34801561080257600080fd5b5061080b611122565b604051808215151515815260200191505060405180910390f35b34801561083157600080fd5b5061083a611179565b6040518082815260200191505060405180910390f35b34801561085c57600080fd5b5061086561117f565b6040518080602001828103825283818151815260200191508051906020019080838360005b838110156108a557808201518184015260208101905061088a565b50505050905090810190601f1680156108d25780820380516001836020036101000a031916815260200191505b509250505060405180910390f35b3480156108ec57600080fd5b50610921600480360381019080803573ffffffffffffffffffffffffffffffffffffffff16906020019092919050505061121d565b005b34801561092f57600080fd5b5061093861123d565b005b34801561094657600080fd5b5061097b600480360381019080803573ffffffffffffffffffffffffffffffffffffffff169060200190929190505050611248565b005b34801561098957600080fd5b506109c8600480360381019080803573ffffffffffffffffffffffffffffffffffffffff169060200190929190803590602001909291905050506112e7565b604051808215151515815260200191505060405180910390f35b3480156109ee57600080fd5b50610a2d600480360381019080803573ffffffffffffffffffffffffffffffffffffffff16906020019092919080359060200190929190505050611317565b604051808215151515815260200191505060405180910390f35b348015610a5357600080fd5b50610a88600480360381019080803573ffffffffffffffffffffffffffffffffffffffff169060200190929190505050611323565b604051808215151515815260200191505060405180910390f35b348015610aae57600080fd5b50610ae3600480360381019080803573ffffffffffffffffffffffffffffffffffffffff169060200190929190505050611340565b005b348015610af157600080fd5b50610b46600480360381019080803573ffffffffffffffffffffffffffffffffffffffff169060200190929190803573ffffffffffffffffffffffffffffffffffffffff169060200190929190505050611360565b6040518082815260200191505060405180910390f35b348015610b6857600080fd5b50610b9d600480360381019080803573ffffffffffffffffffffffffffffffffffffffff16906020019092919050505061136b565b005b600c8054600181600116156101000203166002900480601f016020809104026020016040519081016040528092919081815260200182805460018160011615610100020316600290048015610c355780601f10610c0a57610100808354040283529160200191610c35565b820191906000526020600020905b815481529060010190602001808311610c1857829003601f168201915b505050505081565b60006001905092915050565b600080905090565b6000600190509392505050565b601281565b600b5481565b6000600954905090565b6000600760009054906101000a900460ff16151515610c9157600080fd5b610c9b838361138a565b905092915050565b6000610cb98260016115c190919063ffffffff16565b9050919050565b610cc933610ea9565b1515610cd457600080fd5b600760009054906101000a900460ff161515610cef57600080fd5b6000600760006101000a81548160ff0219169083151502179055507f5db9ee0a495bf2e6ff9c91a7834c1ba4fdd244a5e8aa4e537bd38aeae4b073aa33604051808273ffffffffffffffffffffffffffffffffffffffff1673ffffffffffffffffffffffffffffffffffffffff16815260200191505060405180910390a1565b6000610d7a33611323565b1515610d8557600080fd5b82610d8f81611655565b1515610e03576040517f08c379a00000000000000000000000000000000000000000000000000000000081526004018080602001828103825260138152602001807f6e6f742061206465706f7420616464726573730000000000000000000000000081525060200191505060405180910390fd5b600954610e2084610e12610c49565b6116ab90919063ffffffff16565b11151515610e96576040517f08c379a00000000000000000000000000000000000000000000000000000000081526004018080602001828103825260198152602001807f6d696e742076616c7565206c696d69742065786365656465640000000000000081525060200191505060405180910390fd5b610ea084846116cc565b91505092915050565b6000610ebf8260066115c190919063ffffffff16565b9050919050565b610ecf33610ca3565b1515610eda57600080fd5b610ee3816116f6565b50565b6000600760009054906101000a900460ff16905090565b610f063361170b565b565b6012600a0a81565b6000610f1b82611655565b9050919050565b610f2b33611765565b565b6000809050919050565b610f3f611122565b1515610f4a57600080fd5b600073ffffffffffffffffffffffffffffffffffffffff166000809054906101000a900473ffffffffffffffffffffffffffffffffffffffff1673ffffffffffffffffffffffffffffffffffffffff167f8be0079c531659141344cd1fd0a4f28419497f9722a3daafe3b4186f6b6457e060405160405180910390a360008060006101000a81548173ffffffffffffffffffffffffffffffffffffffff021916908373ffffffffffffffffffffffffffffffffffffffff160217905550565b61101233610ea9565b151561101d57600080fd5b611026816117bf565b50565b61103233610ea9565b151561103d57600080fd5b600760009054906101000a900460ff1615151561105957600080fd5b6001600760006101000a81548160ff0219169083151502179055507f62e78cea01bee320cd4e420270b5ea74000d11b0c9f74754ebdbfc544b05a25833604051808273ffffffffffffffffffffffffffffffffffffffff1673ffffffffffffffffffffffffffffffffffffffff16815260200191505060405180910390a1565b60008060009054906101000a900473ffffffffffffffffffffffffffffffffffffffff16905090565b61110b33610ca3565b151561111657600080fd5b61111f81611819565b50565b60008060009054906101000a900473ffffffffffffffffffffffffffffffffffffffff1673ffffffffffffffffffffffffffffffffffffffff163373ffffffffffffffffffffffffffffffffffffffff1614905090565b61271081565b600a8054600181600116156101000203166002900480601f0160208091040260200160405190810160405280929190818152602001828054600181600116156101000203166002900480156112155780601f106111ea57610100808354040283529160200191611215565b820191906000526020600020905b8154815290600101906020018083116111f857829003601f168201915b505050505081565b61122633611323565b151561123157600080fd5b61123a81611873565b50565b611246336118cd565b565b61125133610ca3565b151561125c57600080fd5b8061126681611655565b15156112da576040517f08c379a00000000000000000000000000000000000000000000000000000000081526004018080602001828103825260138152602001807f6e6f742061206465706f7420616464726573730000000000000000000000000081525060200191505060405180910390fd5b6112e382611927565b5050565b6000600760009054906101000a900460ff1615151561130557600080fd5b61130f8383611982565b905092915050565b60006001905092915050565b60006113398260086115c190919063ffffffff16565b9050919050565b61134933610ca3565b151561135457600080fd5b61135d81611bb9565b50565b600080905092915050565b611373611122565b151561137e57600080fd5b61138781611cb9565b50565b60008073ffffffffffffffffffffffffffffffffffffffff168373ffffffffffffffffffffffffffffffffffffffff16141515156113c757600080fd5b61145682600460003373ffffffffffffffffffffffffffffffffffffffff1673ffffffffffffffffffffffffffffffffffffffff16815260200190815260200160002060008673ffffffffffffffffffffffffffffffffffffffff1673ffffffffffffffffffffffffffffffffffffffff168152602001908152602001600020546116ab90919063ffffffff16565b600460003373ffffffffffffffffffffffffffffffffffffffff1673ffffffffffffffffffffffffffffffffffffffff16815260200190815260200160002060008573ffffffffffffffffffffffffffffffffffffffff1673ffffffffffffffffffffffffffffffffffffffff168152602001908152602001600020819055508273ffffffffffffffffffffffffffffffffffffffff163373ffffffffffffffffffffffffffffffffffffffff167f8c5be1e5ebec7d5bd14f71427d1e84f3dd0314c0f7b2291e5b200ac8c7c3b925600460003373ffffffffffffffffffffffffffffffffffffffff1673ffffffffffffffffffffffffffffffffffffffff16815260200190815260200160002060008773ffffffffffffffffffffffffffffffffffffffff1673ffffffffffffffffffffffffffffffffffffffff168152602001908152602001600020546040518082815260200191505060405180910390a36001905092915050565b60008073ffffffffffffffffffffffffffffffffffffffff168273ffffffffffffffffffffffffffffffffffffffff16141515156115fe57600080fd5b8260000160008373ffffffffffffffffffffffffffffffffffffffff1673ffffffffffffffffffffffffffffffffffffffff16815260200190815260200160002060009054906101000a900460ff16905092915050565b6000600260008373ffffffffffffffffffffffffffffffffffffffff1673ffffffffffffffffffffffffffffffffffffffff16815260200190815260200160002060009054906101000a900460ff169050919050565b60008082840190508381101515156116c257600080fd5b8091505092915050565b60006116d733611323565b15156116e257600080fd5b6116ec8383611db3565b6001905092915050565b60095481111561170857806009819055505b50565b61171f816001611ef390919063ffffffff16565b8073ffffffffffffffffffffffffffffffffffffffff167f427400d279c506df610224b22ecce89b693fc1865864113f21c8d19c1f0c2a3b60405160405180910390a250565b611779816006611ef390919063ffffffff16565b8073ffffffffffffffffffffffffffffffffffffffff167fcd265ebaf09df2871cc7bd4133404a235ba12eff2041bb89d9c714a2621c7c7e60405160405180910390a250565b6117d3816006611fa290919063ffffffff16565b8073ffffffffffffffffffffffffffffffffffffffff167f6719d08c1888103bea251a4ed56406bd0c3e69723c8a1686e017e7bbe159b6f860405160405180910390a250565b61182d816001611fa290919063ffffffff16565b8073ffffffffffffffffffffffffffffffffffffffff167fa7555c95b69d4f5cc847881feb4ab2883a1921319e34fa2043747b793d65b36e60405160405180910390a250565b611887816008611fa290919063ffffffff16565b8073ffffffffffffffffffffffffffffffffffffffff167f6ae172837ea30b801fbfcdd4108aa1d5bf8ff775444fd70256b44e6bf3dfc3f660405160405180910390a250565b6118e1816008611ef390919063ffffffff16565b8073ffffffffffffffffffffffffffffffffffffffff167fe94479a9f7e1952cc78f2d6baab678adc1b772d936c6583def489e524cb6669260405160405180910390a250565b6000600260008373ffffffffffffffffffffffffffffffffffffffff1673ffffffffffffffffffffffffffffffffffffffff16815260200190815260200160002060006101000a81548160ff02191690831515021790555050565b60008073ffffffffffffffffffffffffffffffffffffffff168373ffffffffffffffffffffffffffffffffffffffff16141515156119bf57600080fd5b611a4e82600460003373ffffffffffffffffffffffffffffffffffffffff1673ffffffffffffffffffffffffffffffffffffffff16815260200190815260200160002060008673ffffffffffffffffffffffffffffffffffffffff1673ffffffffffffffffffffffffffffffffffffffff1681526020019081526020016000205461205290919063ffffffff16565b600460003373ffffffffffffffffffffffffffffffffffffffff1673ffffffffffffffffffffffffffffffffffffffff16815260200190815260200160002060008573ffffffffffffffffffffffffffffffffffffffff1673ffffffffffffffffffffffffffffffffffffffff168152602001908152602001600020819055508273ffffffffffffffffffffffffffffffffffffffff163373ffffffffffffffffffffffffffffffffffffffff167f8c5be1e5ebec7d5bd14f71427d1e84f3dd0314c0f7b2291e5b200ac8c7c3b925600460003373ffffffffffffffffffffffffffffffffffffffff1673ffffffffffffffffffffffffffffffffffffffff16815260200190815260200160002060008773ffffffffffffffffffffffffffffffffffffffff1673ffffffffffffffffffffffffffffffffffffffff168152602001908152602001600020546040518082815260200191505060405180910390a36001905092915050565b600073ffffffffffffffffffffffffffffffffffffffff168173ffffffffffffffffffffffffffffffffffffffff1614151515611c5e576040517f08c379a00000000000000000000000000000000000000000000000000000000081526004018080602001828103825260148152602001807f6465706f742063616e6e6f74206265206e756c6c00000000000000000000000081525060200191505060405180910390fd5b6001600260008373ffffffffffffffffffffffffffffffffffffffff1673ffffffffffffffffffffffffffffffffffffffff16815260200190815260200160002060006101000a81548160ff02191690831515021790555050565b600073ffffffffffffffffffffffffffffffffffffffff168173ffffffffffffffffffffffffffffffffffffffff1614151515611cf557600080fd5b8073ffffffffffffffffffffffffffffffffffffffff166000809054906101000a900473ffffffffffffffffffffffffffffffffffffffff1673ffffffffffffffffffffffffffffffffffffffff167f8be0079c531659141344cd1fd0a4f28419497f9722a3daafe3b4186f6b6457e060405160405180910390a3806000806101000a81548173ffffffffffffffffffffffffffffffffffffffff021916908373ffffffffffffffffffffffffffffffffffffffff16021790555050565b60008273ffffffffffffffffffffffffffffffffffffffff1614151515611dd957600080fd5b611dee816005546116ab90919063ffffffff16565b600581905550611e4681600360008573ffffffffffffffffffffffffffffffffffffffff1673ffffffffffffffffffffffffffffffffffffffff168152602001908152602001600020546116ab90919063ffffffff16565b600360008473ffffffffffffffffffffffffffffffffffffffff1673ffffffffffffffffffffffffffffffffffffffff168152602001908152602001600020819055508173ffffffffffffffffffffffffffffffffffffffff16600073ffffffffffffffffffffffffffffffffffffffff167fddf252ad1be2c89b69c2b068fc378daa952ba7f163c4a11628f55a4df523b3ef836040518082815260200191505060405180910390a35050565b600073ffffffffffffffffffffffffffffffffffffffff168173ffffffffffffffffffffffffffffffffffffffff1614151515611f2f57600080fd5b611f3982826115c1565b1515611f4457600080fd5b60008260000160008373ffffffffffffffffffffffffffffffffffffffff1673ffffffffffffffffffffffffffffffffffffffff16815260200190815260200160002060006101000a81548160ff0219169083151502179055505050565b600073ffffffffffffffffffffffffffffffffffffffff168173ffffffffffffffffffffffffffffffffffffffff1614151515611fde57600080fd5b611fe882826115c1565b151515611ff457600080fd5b60018260000160008373ffffffffffffffffffffffffffffffffffffffff1673ffffffffffffffffffffffffffffffffffffffff16815260200190815260200160002060006101000a81548160ff0219169083151502179055505050565b60008083831115151561206457600080fd5b828403905080915050929150505600a165627a7a7230582075a8ec65459fb4188e3afbf48cdb030c58d0ea9ec627e66ac114c6c941b8a00b0029",
  "source": "pragma solidity ^0.4.24;\n\nimport \"openzeppelin-solidity/contracts/token/ERC20/IERC20.sol\";\nimport \"openzeppelin-solidity/contracts/token/ERC20/SafeERC20.sol\";\nimport \"../token.sol\";\n\ncontract ERC20FailingMock is Token {\n  constructor(address _owner, uint256 _supply)\n    public\n    Token(_owner, _supply)\n  {\n  }\n\n  function totalSupply() public view returns (uint256) {\n    return 0;\n  }\n\n  function transfer(address, uint256) public returns (bool) {\n    return false;\n  }\n\n  function transferFrom(address, address, uint256) public returns (bool) {\n    return false;\n  }\n\n  function approve(address, uint256) public returns (bool) {\n    return false;\n  }\n\n  function balanceOf(address) public view returns (uint256) {\n    return 0;\n  }\n\n  function allowance(address, address) public view returns (uint256) {\n    return 0;\n  }\n}\n\ncontract ERC20SucceedingMock is Token {\n  constructor(address _owner, uint256 _supply)\n    public\n    Token(_owner, _supply)\n  {\n  }\n\n  function totalSupply() public view returns (uint256) {\n    return 0;\n  }\n\n  function transfer(address, uint256) public returns (bool) {\n    return true;\n  }\n\n  function transferFrom(address, address, uint256) public returns (bool) {\n    return true;\n  }\n\n  function approve(address, uint256) public returns (bool) {\n    return true;\n  }\n\n  function balanceOf(address) public view returns (uint256) {\n    return 0;\n  }\n\n  function allowance(address, address) public view returns (uint256) {\n    return 0;\n  }\n}\n\ncontract SafeERC20Helper {\n  using SafeERC20 for IERC20;\n\n  IERC20 private _failing;\n  IERC20 private _succeeding;\n\n  constructor() public {\n    _failing = new ERC20FailingMock(msg.sender, 1000000);\n    _succeeding = new ERC20SucceedingMock(msg.sender, 1000000);\n  }\n\n  function doFailingTransfer() public {\n    _failing.safeTransfer(address(0), 0);\n  }\n\n  function doFailingTransferFrom() public {\n    _failing.safeTransferFrom(address(0), address(0), 0);\n  }\n\n  function doFailingApprove() public {\n    _failing.safeApprove(address(0), 0);\n  }\n\n  function doSucceedingTransfer() public {\n    _succeeding.safeTransfer(address(0), 0);\n  }\n\n  function doSucceedingTransferFrom() public {\n    _succeeding.safeTransferFrom(address(0), address(0), 0);\n  }\n\n  function doSucceedingApprove() public {\n    _succeeding.safeApprove(address(0), 0);\n  }\n}\n",
  "sourcePath": "C:\\Users\\ctapa\\source\\payment-system-contracts\\contracts\\mocks\\SafeERC20Helper.sol",
  "compiler": {
    "name": "solc",
    "version": "0.4.24+commit.e67f0147.Emscripten.clang"
  },
  "schemaVersion": "3.2.0",
  "updatedAt": "2020-05-31T01:54:38.589Z",
  "devdoc": {
    "methods": {}
  },
  "userdoc": {
    "methods": {}
  }
}