{
  "contractName": "TokenVesting",
  "abi": [
    {
      "constant": false,
      "inputs": [],
      "name": "renounceOwnership",
      "outputs": [],
      "payable": false,
      "stateMutability": "nonpayable",
      "type": "function"
    },
    {
      "constant": true,
      "inputs": [],
      "name": "owner",
      "outputs": [
        {
          "name": "",
          "type": "address"
        }
      ],
      "payable": false,
      "stateMutability": "view",
      "type": "function"
    },
    {
      "constant": true,
      "inputs": [],
      "name": "isOwner",
      "outputs": [
        {
          "name": "",
          "type": "bool"
        }
      ],
      "payable": false,
      "stateMutability": "view",
      "type": "function"
    },
    {
      "constant": false,
      "inputs": [
        {
          "name": "newOwner",
          "type": "address"
        }
      ],
      "name": "transferOwnership",
      "outputs": [],
      "payable": false,
      "stateMutability": "nonpayable",
      "type": "function"
    },
    {
      "inputs": [
        {
          "name": "beneficiary",
          "type": "address"
        },
        {
          "name": "start",
          "type": "uint256"
        },
        {
          "name": "cliffDuration",
          "type": "uint256"
        },
        {
          "name": "duration",
          "type": "uint256"
        },
        {
          "name": "revocable",
          "type": "bool"
        }
      ],
      "payable": false,
      "stateMutability": "nonpayable",
      "type": "constructor"
    },
    {
      "anonymous": false,
      "inputs": [
        {
          "indexed": false,
          "name": "amount",
          "type": "uint256"
        }
      ],
      "name": "Released",
      "type": "event"
    },
    {
      "anonymous": false,
      "inputs": [],
      "name": "Revoked",
      "type": "event"
    },
    {
      "anonymous": false,
      "inputs": [
        {
          "indexed": true,
          "name": "previousOwner",
          "type": "address"
        },
        {
          "indexed": true,
          "name": "newOwner",
          "type": "address"
        }
      ],
      "name": "OwnershipTransferred",
      "type": "event"
    },
    {
      "constant": true,
      "inputs": [],
      "name": "beneficiary",
      "outputs": [
        {
          "name": "",
          "type": "address"
        }
      ],
      "payable": false,
      "stateMutability": "view",
      "type": "function"
    },
    {
      "constant": true,
      "inputs": [],
      "name": "cliff",
      "outputs": [
        {
          "name": "",
          "type": "uint256"
        }
      ],
      "payable": false,
      "stateMutability": "view",
      "type": "function"
    },
    {
      "constant": true,
      "inputs": [],
      "name": "start",
      "outputs": [
        {
          "name": "",
          "type": "uint256"
        }
      ],
      "payable": false,
      "stateMutability": "view",
      "type": "function"
    },
    {
      "constant": true,
      "inputs": [],
      "name": "duration",
      "outputs": [
        {
          "name": "",
          "type": "uint256"
        }
      ],
      "payable": false,
      "stateMutability": "view",
      "type": "function"
    },
    {
      "constant": true,
      "inputs": [],
      "name": "revocable",
      "outputs": [
        {
          "name": "",
          "type": "bool"
        }
      ],
      "payable": false,
      "stateMutability": "view",
      "type": "function"
    },
    {
      "constant": true,
      "inputs": [
        {
          "name": "token",
          "type": "address"
        }
      ],
      "name": "released",
      "outputs": [
        {
          "name": "",
          "type": "uint256"
        }
      ],
      "payable": false,
      "stateMutability": "view",
      "type": "function"
    },
    {
      "constant": true,
      "inputs": [
        {
          "name": "token",
          "type": "address"
        }
      ],
      "name": "revoked",
      "outputs": [
        {
          "name": "",
          "type": "bool"
        }
      ],
      "payable": false,
      "stateMutability": "view",
      "type": "function"
    },
    {
      "constant": false,
      "inputs": [
        {
          "name": "token",
          "type": "address"
        }
      ],
      "name": "release",
      "outputs": [],
      "payable": false,
      "stateMutability": "nonpayable",
      "type": "function"
    },
    {
      "constant": false,
      "inputs": [
        {
          "name": "token",
          "type": "address"
        }
      ],
      "name": "revoke",
      "outputs": [],
      "payable": false,
      "stateMutability": "nonpayable",
      "type": "function"
    },
    {
      "constant": true,
      "inputs": [
        {
          "name": "token",
          "type": "address"
        }
      ],
      "name": "releasableAmount",
      "outputs": [
        {
          "name": "",
          "type": "uint256"
        }
      ],
      "payable": false,
      "stateMutability": "view",
      "type": "function"
    },
    {
      "constant": true,
      "inputs": [
        {
          "name": "token",
          "type": "address"
        }
      ],
      "name": "vestedAmount",
      "outputs": [
        {
          "name": "",
          "type": "uint256"
        }
      ],
      "payable": false,
      "stateMutability": "view",
      "type": "function"
    }
  ],
  "bytecode": "0x608060405234801561001057600080fd5b5060405160a0806112dd8339810180604052810190808051906020019092919080519060200190929190805190602001909291908051906020019092919080519060200190929190505050336000806101000a81548173ffffffffffffffffffffffffffffffffffffffff021916908373ffffffffffffffffffffffffffffffffffffffff1602179055506000809054906101000a900473ffffffffffffffffffffffffffffffffffffffff1673ffffffffffffffffffffffffffffffffffffffff16600073ffffffffffffffffffffffffffffffffffffffff167f8be0079c531659141344cd1fd0a4f28419497f9722a3daafe3b4186f6b6457e060405160405180910390a3600073ffffffffffffffffffffffffffffffffffffffff168573ffffffffffffffffffffffffffffffffffffffff16141515156101bc576040517f08c379a000000000000000000000000000000000000000000000000000000000815260040180806020018281038252601a8152602001807f62656e65666963696172792063616e6e6f74206265206e756c6c00000000000081525060200191505060405180910390fd5b81831115151561025a576040517f08c379a000000000000000000000000000000000000000000000000000000000815260040180806020018281038252602e8152602001807f636c696666206475726174696f6e2073686f756c642062652077697468696e2081526020017f76657374696e6720706572696f6400000000000000000000000000000000000081525060400191505060405180910390fd5b84600160006101000a81548173ffffffffffffffffffffffffffffffffffffffff021916908373ffffffffffffffffffffffffffffffffffffffff16021790555080600560006101000a81548160ff021916908315150217905550816004819055506102dc83856102f364010000000002610d1d179091906401000000009004565b600281905550836003819055505050505050610314565b600080828401905083811015151561030a57600080fd5b8091505092915050565b610fba806103236000396000f3006080604052600436106100db576000357c0100000000000000000000000000000000000000000000000000000000900463ffffffff1680630fb5a6b4146100e057806313d033c01461010b5780631726cbc814610136578063191655871461018d578063384711cc146101d057806338af3eed14610227578063715018a61461027e57806374a8f10314610295578063872a7810146102d85780638da5cb5b146103075780638f32d59b1461035e5780639852595c1461038d578063be9a6555146103e4578063f2fde38b1461040f578063fa01dc0614610452575b600080fd5b3480156100ec57600080fd5b506100f56104ad565b6040518082815260200191505060405180910390f35b34801561011757600080fd5b506101206104b7565b6040518082815260200191505060405180910390f35b34801561014257600080fd5b50610177600480360381019080803573ffffffffffffffffffffffffffffffffffffffff1690602001909291905050506104c1565b6040518082815260200191505060405180910390f35b34801561019957600080fd5b506101ce600480360381019080803573ffffffffffffffffffffffffffffffffffffffff169060200190929190505050610524565b005b3480156101dc57600080fd5b50610211600480360381019080803573ffffffffffffffffffffffffffffffffffffffff16906020019092919050505061065d565b6040518082815260200191505060405180910390f35b34801561023357600080fd5b5061023c610861565b604051808273ffffffffffffffffffffffffffffffffffffffff1673ffffffffffffffffffffffffffffffffffffffff16815260200191505060405180910390f35b34801561028a57600080fd5b5061029361088b565b005b3480156102a157600080fd5b506102d6600480360381019080803573ffffffffffffffffffffffffffffffffffffffff16906020019092919050505061095d565b005b3480156102e457600080fd5b506102ed610b9d565b604051808215151515815260200191505060405180910390f35b34801561031357600080fd5b5061031c610bb4565b604051808273ffffffffffffffffffffffffffffffffffffffff1673ffffffffffffffffffffffffffffffffffffffff16815260200191505060405180910390f35b34801561036a57600080fd5b50610373610bdd565b604051808215151515815260200191505060405180910390f35b34801561039957600080fd5b506103ce600480360381019080803573ffffffffffffffffffffffffffffffffffffffff169060200190929190505050610c34565b6040518082815260200191505060405180910390f35b3480156103f057600080fd5b506103f9610c7d565b6040518082815260200191505060405180910390f35b34801561041b57600080fd5b50610450600480360381019080803573ffffffffffffffffffffffffffffffffffffffff169060200190929190505050610c87565b005b34801561045e57600080fd5b50610493600480360381019080803573ffffffffffffffffffffffffffffffffffffffff169060200190929190505050610ca6565b604051808215151515815260200191505060405180910390f35b6000600454905090565b6000600254905090565b600061051d600660008473ffffffffffffffffffffffffffffffffffffffff1673ffffffffffffffffffffffffffffffffffffffff1681526020019081526020016000205461050f8461065d565b610cfc90919063ffffffff16565b9050919050565b600061052f826104c1565b905060008111151561054057600080fd5b61059281600660008573ffffffffffffffffffffffffffffffffffffffff1673ffffffffffffffffffffffffffffffffffffffff16815260200190815260200160002054610d1d90919063ffffffff16565b600660008473ffffffffffffffffffffffffffffffffffffffff1673ffffffffffffffffffffffffffffffffffffffff16815260200190815260200160002081905550610622600160009054906101000a900473ffffffffffffffffffffffffffffffffffffffff16828473ffffffffffffffffffffffffffffffffffffffff16610d3e9092919063ffffffff16565b7ffb81f9b30d73d830c3544b34d827c08142579ee75710b490bab0b3995468c565816040518082815260200191505060405180910390a15050565b60008060008373ffffffffffffffffffffffffffffffffffffffff166370a08231306040518263ffffffff167c0100000000000000000000000000000000000000000000000000000000028152600401808273ffffffffffffffffffffffffffffffffffffffff1673ffffffffffffffffffffffffffffffffffffffff168152602001915050602060405180830381600087803b1580156106fd57600080fd5b505af1158015610711573d6000803e3d6000fd5b505050506040513d602081101561072757600080fd5b8101908080519060200190929190505050915061078c600660008673ffffffffffffffffffffffffffffffffffffffff1673ffffffffffffffffffffffffffffffffffffffff1681526020019081526020016000205483610d1d90919063ffffffff16565b90506002544210156107a1576000925061085a565b6107b8600454600354610d1d90919063ffffffff16565b4210158061080f5750600760008573ffffffffffffffffffffffffffffffffffffffff1673ffffffffffffffffffffffffffffffffffffffff16815260200190815260200160002060009054906101000a900460ff165b1561081c5780925061085a565b61085760045461084961083a60035442610cfc90919063ffffffff16565b84610e2c90919063ffffffff16565b610e6a90919063ffffffff16565b92505b5050919050565b6000600160009054906101000a900473ffffffffffffffffffffffffffffffffffffffff16905090565b610893610bdd565b151561089e57600080fd5b600073ffffffffffffffffffffffffffffffffffffffff166000809054906101000a900473ffffffffffffffffffffffffffffffffffffffff1673ffffffffffffffffffffffffffffffffffffffff167f8be0079c531659141344cd1fd0a4f28419497f9722a3daafe3b4186f6b6457e060405160405180910390a360008060006101000a81548173ffffffffffffffffffffffffffffffffffffffff021916908373ffffffffffffffffffffffffffffffffffffffff160217905550565b600080600061096a610bdd565b151561097557600080fd5b600560009054906101000a900460ff16151561099057600080fd5b600760008573ffffffffffffffffffffffffffffffffffffffff1673ffffffffffffffffffffffffffffffffffffffff16815260200190815260200160002060009054906101000a900460ff161515156109e957600080fd5b8373ffffffffffffffffffffffffffffffffffffffff166370a08231306040518263ffffffff167c0100000000000000000000000000000000000000000000000000000000028152600401808273ffffffffffffffffffffffffffffffffffffffff1673ffffffffffffffffffffffffffffffffffffffff168152602001915050602060405180830381600087803b158015610a8457600080fd5b505af1158015610a98573d6000803e3d6000fd5b505050506040513d6020811015610aae57600080fd5b81019080805190602001909291905050509250610aca846104c1565b9150610adf8284610cfc90919063ffffffff16565b90506001600760008673ffffffffffffffffffffffffffffffffffffffff1673ffffffffffffffffffffffffffffffffffffffff16815260200190815260200160002060006101000a81548160ff021916908315150217905550610b6b610b44610bb4565b828673ffffffffffffffffffffffffffffffffffffffff16610d3e9092919063ffffffff16565b7f44825a4b2df8acb19ce4e1afba9aa850c8b65cdb7942e2078f27d0b0960efee660405160405180910390a150505050565b6000600560009054906101000a900460ff16905090565b60008060009054906101000a900473ffffffffffffffffffffffffffffffffffffffff16905090565b60008060009054906101000a900473ffffffffffffffffffffffffffffffffffffffff1673ffffffffffffffffffffffffffffffffffffffff163373ffffffffffffffffffffffffffffffffffffffff1614905090565b6000600660008373ffffffffffffffffffffffffffffffffffffffff1673ffffffffffffffffffffffffffffffffffffffff168152602001908152602001600020549050919050565b6000600354905090565b610c8f610bdd565b1515610c9a57600080fd5b610ca381610e94565b50565b6000600760008373ffffffffffffffffffffffffffffffffffffffff1673ffffffffffffffffffffffffffffffffffffffff16815260200190815260200160002060009054906101000a900460ff169050919050565b600080838311151515610d0e57600080fd5b82840390508091505092915050565b6000808284019050838110151515610d3457600080fd5b8091505092915050565b8273ffffffffffffffffffffffffffffffffffffffff1663a9059cbb83836040518363ffffffff167c0100000000000000000000000000000000000000000000000000000000028152600401808373ffffffffffffffffffffffffffffffffffffffff1673ffffffffffffffffffffffffffffffffffffffff16815260200182815260200192505050602060405180830381600087803b158015610de157600080fd5b505af1158015610df5573d6000803e3d6000fd5b505050506040513d6020811015610e0b57600080fd5b81019080805190602001909291905050501515610e2757600080fd5b505050565b6000806000841415610e415760009150610e63565b8284029050828482811515610e5257fe5b04141515610e5f57600080fd5b8091505b5092915050565b600080600083111515610e7c57600080fd5b8284811515610e8757fe5b0490508091505092915050565b600073ffffffffffffffffffffffffffffffffffffffff168173ffffffffffffffffffffffffffffffffffffffff1614151515610ed057600080fd5b8073ffffffffffffffffffffffffffffffffffffffff166000809054906101000a900473ffffffffffffffffffffffffffffffffffffffff1673ffffffffffffffffffffffffffffffffffffffff167f8be0079c531659141344cd1fd0a4f28419497f9722a3daafe3b4186f6b6457e060405160405180910390a3806000806101000a81548173ffffffffffffffffffffffffffffffffffffffff021916908373ffffffffffffffffffffffffffffffffffffffff160217905550505600a165627a7a723058207e4aac2369af6754280456589bbb6b80de3d1c312e34a42172bb527dad77463d0029",
  "source": "/* solium-disable security/no-block-members */\n\npragma solidity ^0.4.24;\n\nimport \"openzeppelin-solidity/contracts/token/ERC20/SafeERC20.sol\";\nimport \"openzeppelin-solidity/contracts/ownership/Ownable.sol\";\nimport \"openzeppelin-solidity/contracts/math/SafeMath.sol\";\n\n/**\n * @title TokenVesting\n * @dev A token holder contract that can release its token balance gradually like a\n * typical vesting scheme, with a cliff and vesting period. Optionally revocable by the\n * owner.\n */\ncontract TokenVesting is Ownable {\n  using SafeMath for uint256;\n  using SafeERC20 for IERC20;\n\n  event Released(uint256 amount);\n  event Revoked();\n\n  // beneficiary of tokens after they are released\n  address private _beneficiary;\n\n  uint256 private _cliff;\n  uint256 private _start;\n  uint256 private _duration;\n\n  bool private _revocable;\n\n  mapping (address => uint256) private _released;\n  mapping (address => bool) private _revoked;\n\n  /**\n   * @dev Creates a vesting contract that vests its balance of any ERC20 token to the\n   * beneficiary, gradually in a linear fashion until start + duration. By then all\n   * of the balance will have vested.\n   * @param beneficiary address of the beneficiary to whom vested tokens are transferred\n   * @param cliffDuration duration in seconds of the cliff in which tokens will begin to vest\n   * @param start the time (as Unix time) at which point vesting starts\n   * @param duration duration in seconds of the period in which the tokens will vest\n   * @param revocable whether the vesting is revocable or not\n   */\n  constructor(\n    address beneficiary,\n    uint256 start,\n    uint256 cliffDuration,\n    uint256 duration,\n    bool revocable\n  )\n    public\n  {\n    require(beneficiary != address(0), 'beneficiary cannot be null');\n    require(cliffDuration <= duration, 'cliff duration should be within vesting period');\n\n    _beneficiary = beneficiary;\n    _revocable = revocable;\n    _duration = duration;\n    _cliff = start.add(cliffDuration);\n    _start = start;\n  }\n\n  /**\n   * @return the beneficiary of the tokens.\n   */\n  function beneficiary() public view returns(address) {\n    return _beneficiary;\n  }\n\n  /**\n   * @return the cliff time of the token vesting.\n   */\n  function cliff() public view returns(uint256) {\n    return _cliff;\n  }\n\n  /**\n   * @return the start time of the token vesting.\n   */\n  function start() public view returns(uint256) {\n    return _start;\n  }\n\n  /**\n   * @return the duration of the token vesting.\n   */\n  function duration() public view returns(uint256) {\n    return _duration;\n  }\n\n  /**\n   * @return true if the vesting is revocable.\n   */\n  function revocable() public view returns(bool) {\n    return _revocable;\n  }\n\n  /**\n   * @return the amount of the token released.\n   */\n  function released(address token) public view returns(uint256) {\n    return _released[token];\n  }\n\n  /**\n   * @return true if the token is revoked.\n   */\n  function revoked(address token) public view returns(bool) {\n    return _revoked[token];\n  }\n\n  /**\n   * @notice Transfers vested tokens to beneficiary.\n   * @param token ERC20 token which is being vested\n   */\n  function release(IERC20 token) public {\n    uint256 unreleased = releasableAmount(token);\n\n    require(unreleased > 0);\n\n    _released[token] = _released[token].add(unreleased);\n\n    token.safeTransfer(_beneficiary, unreleased);\n\n    emit Released(unreleased);\n  }\n\n  /**\n   * @notice Allows the owner to revoke the vesting. Tokens already vested\n   * remain in the contract, the rest are returned to the owner.\n   * @param token ERC20 token which is being vested\n   */\n  function revoke(IERC20 token) public onlyOwner {\n    require(_revocable);\n    require(!_revoked[token]);\n\n    uint256 balance = token.balanceOf(address(this));\n\n    uint256 unreleased = releasableAmount(token);\n    uint256 refund = balance.sub(unreleased);\n\n    _revoked[token] = true;\n\n    token.safeTransfer(owner(), refund);\n\n    emit Revoked();\n  }\n\n  /**\n   * @dev Calculates the amount that has already vested but hasn't been released yet.\n   * @param token ERC20 token which is being vested\n   */\n  function releasableAmount(IERC20 token) public view returns (uint256) {\n    return vestedAmount(token).sub(_released[token]);\n  }\n\n  /**\n   * @dev Calculates the amount that has already vested.\n   * @param token ERC20 token which is being vested\n   */\n  function vestedAmount(IERC20 token) public view returns (uint256) {\n    uint256 currentBalance = token.balanceOf(this);\n    uint256 totalBalance = currentBalance.add(_released[token]);\n\n    if (block.timestamp < _cliff) {\n      return 0;\n    } else if (block.timestamp >= _start.add(_duration) || _revoked[token]) {\n      return totalBalance;\n    } else {\n      return totalBalance.mul(block.timestamp.sub(_start)).div(_duration);\n    }\n  }\n}\n",
  "sourcePath": "C:\\Users\\ctapa\\source\\payment-system-contracts\\contracts\\drafts\\TokenVesting.sol",
  "compiler": {
    "name": "solc",
    "version": "0.4.24+commit.e67f0147.Emscripten.clang"
  },
  "schemaVersion": "3.2.0",
  "updatedAt": "2020-05-31T01:54:38.466Z",
  "devdoc": {
    "methods": {
      "beneficiary()": {
        "return": "the beneficiary of the tokens."
      },
      "cliff()": {
        "return": "the cliff time of the token vesting."
      },
      "duration()": {
        "return": "the duration of the token vesting."
      },
      "isOwner()": {
        "return": "true if `msg.sender` is the owner of the contract."
      },
      "owner()": {
        "return": "the address of the owner."
      },
      "releasableAmount(address)": {
        "details": "Calculates the amount that has already vested but hasn't been released yet.",
        "params": {
          "token": "ERC20 token which is being vested"
        }
      },
      "release(address)": {
        "params": {
          "token": "ERC20 token which is being vested"
        }
      },
      "released(address)": {
        "return": "the amount of the token released."
      },
      "renounceOwnership()": {
        "details": "Allows the current owner to relinquish control of the contract."
      },
      "revocable()": {
        "return": "true if the vesting is revocable."
      },
      "revoke(address)": {
        "params": {
          "token": "ERC20 token which is being vested"
        }
      },
      "revoked(address)": {
        "return": "true if the token is revoked."
      },
      "start()": {
        "return": "the start time of the token vesting."
      },
      "transferOwnership(address)": {
        "details": "Allows the current owner to transfer control of the contract to a newOwner.",
        "params": {
          "newOwner": "The address to transfer ownership to."
        }
      },
      "vestedAmount(address)": {
        "details": "Calculates the amount that has already vested.",
        "params": {
          "token": "ERC20 token which is being vested"
        }
      }
    },
    "title": "TokenVesting"
  },
  "userdoc": {
    "methods": {
      "release(address)": {
        "notice": "Transfers vested tokens to beneficiary."
      },
      "renounceOwnership()": {
        "notice": "Renouncing to ownership will leave the contract without an owner. It will not be possible to call the functions with the `onlyOwner` modifier anymore."
      },
      "revoke(address)": {
        "notice": "Allows the owner to revoke the vesting. Tokens already vested remain in the contract, the rest are returned to the owner."
      }
    }
  }
}